:020000040800F2
:10000000502F0320DD010008AF4900080F3C000815
:10001000AD4900089D14000881520008000000004E
:10002000000000000000000000000000B3490008CC
:100030005D16000800000000B1490008F501000845
:10004000F7010008F7010008F7010008F7010008B0
:10005000F7010008F7010008F7010008F7010008A0
:10006000F7010008F7010008F7010008F701000890
:10007000F7010008F7010008F7010008F701000880
:10008000F7010008F7010008F7010008F701000870
:10009000F7010008F7010008F7010008F701000860
:1000A000F7010008F7010008F7010008F701000850
:1000B000F7010008F7010008F7010008F701000840
:1000C000F7010008F7010008F7010008F701000830
:1000D000F7010008F7010008F7010008F701000820
:1000E000F7010008F7010008F7010008F701000810
:1000F000F7010008F7010008F7010008F701000800
:10010000F7010008F7010008F7010008F7010008EF
:10011000F7010008F7010008C14A0008F7010008CC
:10012000F7010008F7010008F7010008F7010008CF
:10013000F7010008F7010008F7010008F7010008BF
:10014000F7010008F7010008F7010008F7010008AF
:10015000F7010008F7010008F7010008F70100089F
:10016000F7010008F7010008F7010008F70100088F
:10017000F7010008F7010008F7010008000000007F
:10018000F7010008F7010008F7010008F70100086F
:10019000F7010008F7010008F7010008F70100085F
:1001A00005410008F701000841150008F7010008A3
:1001B000F7010008F7010008F7010008F70100083F
:1001C000F7010008F7010008DFF80CD000F07AFA18
:1001D00000480047916B0008502F032006488047D5
:1001E00006480047FEE7FEE7FEE7FEE7FEE7FEE71C
:1001F000FEE7FEE7FEE7FEE76D4A0008C9010008DA
:100200002DE9F05F0546002092469B46884606464B
:10021000814640241BE0284641464746224600F0DE
:1002200089F853465A46C01A914110D311461846D0
:10023000224600F016F82D1A67EB01084F462246B9
:100240000120002100F00DF817EB00094E41201E9F
:10025000A4F10104DFDC484631462A464346BDE8A6
:10026000F09F202A04DB203A00FA02F100207047B8
:100270009140C2F1200320FA03F3194390407047E4
:1002800040EA01039B0703D009E008C9121F08C018
:10029000042AFAD203E011F8013B00F8013B521E98
:1002A000F9D27047D2B201E000F8012B491EFBD20F
:1002B00070470022F6E710B513460A460446194671
:1002C000FFF7F0FF204610BD30B50446002003467E
:1002D00000E05B1C934203D2E05CCD5C401BF8D095
:1002E00030BD00F0004230F000400AD0C10D01F5F1
:1002F0006071C0F3160042EA0151C2084007114381
:10030000704700200146704730B50B46014600207B
:100310002022012409E021FA02F59D4205D303FAC7
:1003200002F5491B04FA02F52844151EA2F1010248
:10033000F1DC30BD202A04DB203A21FA02F0002152
:10034000704721FA02F3D040C2F1200291400843E5
:10035000194670472DE9FE4F804681EA0300C00F21
:100360000C46009021F0004123F00045B8EB02005C
:10037000A94105D24046214690461C460B460246FE
:1003800023F00040104347D0270DC7F30A00C3F302
:100390000A510290401A019040286BDAC3F313000F
:1003A00040F4801B0098924620B10023D2EB030A50
:1003B00063EB0B0B01985946C0F140025046FFF722
:1003C00050FF06460D4650465946019A00F08CF9FA
:1003D00010EB08006141002487EA115284EAE773B8
:1003E0001A4340D0009A62B3019A012A4FEA075299
:1003F00015DC001B61EB02014FF0004202EA0752DC
:10040000CDE90042001C41F5801132462B4600F038
:100410008CF903B0BDE8F08F40462146F9E7001B98
:1004200061EB0201001C41F5801300185B412018AC
:10043000A2F5001747EB030140EAD570B6196D41EC
:1004400011E06D084FEA360645EAC0754FEA0752DB
:10045000001B61EB0201001C41F5801149084FEAC5
:1004600030000019514132462B4603B0BDE8F04F31
:1004700000F04CB90098012240000023D0EB0202AA
:1004800063EBE073009821464FEAE074B8EB00009C
:1004900061EB0401E9E783F000435BE781F0004191
:1004A00058E72DE9FE4F81EA030404F0004421F0EF
:1004B000004100944FF0000B23F0004350EA010488
:1004C0005ED052EA03045BD0C3F30A54C1F30A5569
:1004D0002C44A4F2F3340194A0FB0254C1F31301A1
:1004E00041F48011C3F3130343F4801301FB02446E
:1004F00000FB034E840A970A44EA815447EA835773
:10050000A4FB076802958D0A05FB07854FEA932C2B
:1005100004FB0C542705029D4FEA065847EA16379C
:10052000B5EB08056EEB070C870E920E47EA8117B4
:1005300042EA8312A7FB0201B6EB0B0164EB000455
:100540002B0D43EA0C335E1844EB1C50DA4651463F
:10055000E7FB0201C5F313044FEA0B3343EA1453DC
:100560004FEA0432019C43EA0603A4F10C0402940E
:10057000009CCDE900B400F0D8F803B0BDE8F08FDE
:1005800000200146F9E72DE9F04D81EA030404F06B
:10059000004B21F0004514464FF0000A23F00041C3
:1005A00050EA050220D054EA01021DD0C5F30A57D3
:1005B0000246C5F31303C1F31300C1F30A5640F416
:1005C000801543F48013A7EB0608101BD64608F2EB
:1005D000FD3873EB050002D308F1010801E0921821
:1005E0005B41B8F1000F03DA00200146BDE8F08D51
:1005F00000204FF48011064684460EE0171B73EB73
:10060000050705D3121B63EB050306434CEA010CF7
:1006100049084FEA300092185B4150EA0107EDD1DA
:1006200052EA030012D082EA040083EA050108437B
:1006300005D0101BAB4106D20122002306E00022A8
:100640004FF0004302E06FF0010253101AEB060076
:100650004CEB085110EB0A0041EB0B01BDE8F04DEB
:1006600000F054B8C1F30A52C1F3130140F2FF3352
:1006700041F480119A4202DA00200146704740F2AC
:1006800033439A42A2F2334202DC5242FFF752BE97
:10069000FFF7E7BD30B5041E71F1000404DB4FF035
:1006A0000044404264EB0101141E73F1000405DBB9
:1006B0001C464FF00043524263EB0403994208BFCB
:1006C000904230BD064C074D06E0E06840F0010363
:1006D00094E8070098471034AC42F6D3FFF778FD52
:1006E00058B1040878B10408202A06DBCB17203A59
:1006F00041FA02F043EAE07306E041FA02F3D04027
:10070000C2F12002914008431946704710B5141EEB
:1007100073F1000408DA401C41F1000192185B41BA
:100720001A4301D120F0010010BD2DE9F04D924691
:100730009B4611B1B1FA81F202E0B0FA80F22032A8
:100740009046FFF78EFD04460F4640EA0A0041EA54
:100750000B0153465A46084313D0114653EA010091
:1007600019D0C8F140025046FFF7E4FD05460E4699
:10077000504659464246FFF774FD084305D0012014
:1007800004E020463946BDE8F08D0020054346EAE6
:10079000E0762C4337430A986305E40AA0EB08008F
:1007A0000022FD0A44EA47540A3002D500200146DF
:1007B000E9E7010510196941DDE9084500196941BA
:1007C000BDE8F04DA2E770B58C1810F8015B15F08C
:1007D000070301D110F8013B2A1106D110F8012BB3
:1007E00003E010F8016B01F8016B5B1EF9D12B07D8
:1007F00005D40023521E0DD401F8013BFAE710F88E
:10080000013BCB1A921C03E013F8015B01F8015B7A
:10081000521EF9D5A142D8D3002070BD1CB50446A4
:1008200000F02AFA034600F017FA02460020CDE94C
:1008300000040648064C006800EB800101EBC00193
:1008400004EB8101C96D03F01DFC1CBDD80500201F
:10085000042903200648C02330B40824052204607C
:1008600061034361C261C16230BC02F087B800001D
:100870008028032030B40A4C0A4B246804EB44045B
:1008800003EB84039B689C881D68E41DDB88E408F7
:10089000203A14FB02F203FB025230BC00F0E0BE2F
:1008A000D8050020EC290320094810B500688169AB
:1008B00041F00101816101220648110301F0F4FBBE
:1008C00001220548BDE81040082101F0EDBB000001
:1008D0000429032000200240002802402DE9FF4F98
:1008E00082461446032089460025A0EB440878E0A0
:1008F0003E4EA9EB040B3E4F0AEB0500316801EBBD
:10090000410157F821201FFA8BF1039080B200F0CB
:10091000AFF830681FFA8BF100EB400057F8202049
:10092000AAEB0500029080B200F0A2F83068A9EBB3
:10093000050B1FFA8BF100EB400057F820200AEB63
:100940000400019080B200F093F830681FFA8BF138
:1009500000EB400057F82020AAEB0400009080B282
:1009600000F086F8316809EB040B039801EB4101B4
:1009700080B257F821201FFA8BF100F079F8306827
:100980001FFA8BF100EB400057F82020029880B24C
:1009900000F06EF8326809EB050B01981FFA8BF135
:1009A00002EB420280B257F8222000F061F8326870
:1009B0001FFA8BF1009802EB420280B257F8222016
:1009C00000F056F8B8F1000F04DA08EB850000F1EA
:1009D000060805E0291B641E08EB810000F10A08E7
:1009E0006D1CA54284D9BDE8FF8F0000D80500200A
:1009F000EC2903207CB51C4B06460D461B4C1868A1
:100A000000EB800101EBC00004EB8000806C022849
:100A10001BD000F021F9196800FB056001EB81058E
:100A200005EBC10104EB8101C96D01EB8001186880
:100A30000E4D0024E83500EB400355F82330CDE996
:100A40000043012303F01EFB7CBD00F005F919688B
:100A500000FB056001EB810505EBC10104EB8101A1
:100A6000C96D01EB4001E2E7D8050020042903200D
:100A7000164B70B506460D461868154C00EB800104
:100A800001EBC00004EB8000806C02280ED000F067
:100A9000E3F8196805FB006001EB810303EBC1017A
:100AA00004EB8101C96D41F8202070BD00F0D4F83D
:100AB000196805FB006001EB810303EBC10104EB46
:100AC0008101C96D21F8102070BD0000D8050020FB
:100AD000042903202DE9F0411C4616460D46074621
:100AE000FFF788FF2819324681B23846FFF782FFA8
:100AF00022462946384600F009F8B8192246294608
:100B0000BDE8F04180B200F001B800007CB51F4C98
:100B100005460B461E4E206800EB800101EBC0002D
:100B200006EB8000806C022821D000F095F8216847
:100B300000FB035001EB810303EBC10106EB8101D4
:100B4000C96D01EB800500BF00F086F82468401EE7
:100B50000F4BE83304EB440153F8211013460122F4
:100B6000CDE900012946204603F08CFA7CBD00F057
:100B700073F8216800FB035001EB810303EBC10113
:100B800006EB8101C96D01EB4005DDE7D8050020CA
:100B9000042903202DE9F74FDFF8B4901446032011
:100BA000DFF8B0A0A0EB44060F4600259046D9F828
:100BB000000082B000EB40015AF8210000F028FA52
:100BC0004FF6FF7B31E08CB102980BEA44027B19AF
:100BD000001BCDE9000299B280B2FFF70BFF00982D
:100BE000791B89B2019A80B2FFF704FF8DB1029898
:100BF0000BEA45023B1B401BCDE9000299B280B2D3
:100C0000FFF7F8FE0098391989B2019A80B2FFF710
:100C1000F1FE002E03DA06EB8506B61D04E0281B64
:100C2000641E06EB80060A366D1CA542CBD9D9F8A6
:100C3000000000EB40015AF8210000F0E9F90298A9
:100C400005B042463946BDE8F04FFFF747BE000009
:100C5000D8050020EC2903200548006800EB80013E
:100C600001EBC000034901EB8000006E70470000FB
:100C7000D8050020042903200548006800EB800106
:100C800001EBC000034901EB8000406E704700009B
:100C9000D8050020042903202DE9F041224C28200A
:100CA000092140F21B1604F1140840F215253522E3
:100CB00040F21D1C0B2340F2352788E8EF1000217D
:100CC0002046FFF7C7FD4FF4F07222664FF488719B
:100CD0006166002084F8340084F8350084F836001A
:100CE0006060A060114AE06022602061204601F04F
:100CF00039FC18B90021204600F05EF80A4801F0DE
:100D000099FC01220A48110301F0CEF90948012299
:100D1000082101F0C9F900F087F9074800F054F9FB
:100D20000020BDE8F0810000042903200068014094
:100D30000020024000280240D005002070B58EB08F
:100D40000A46002304460093FFF786FFCDE901031E
:100D5000FFF792FFFF25039007208DF83030022126
:100D600009928DF831304FF4C066CDE90415069331
:100D70008DF83230CDE90760FFF76EFF0A90FFF77C
:100D80007BFF0B9022460A48694601F0C1FB0848E8
:100D900004EB44014FF0FF34E83000EB81022306FE
:100DA0005460044C946040F821300EB070BD0000D7
:100DB00004290320D00500204748F0B5016887B01A
:100DC00041F080610160006800F080600590424859
:100DD0001438016841F400010160016801F4000168
:100DE0000591016841F010010160016801F01001F6
:100DF0000591016841F040010160016801F0400186
:100E00000591016841F480710160016801F480710D
:100E10000591016841F400710160016801F40071FD
:100E20000591016841F480610160016801F480610D
:100E30000591016841F480710160016801F48071DD
:100E40000591016841F480610160006802240E256B
:100E500000F4806005901020CDE9000402A8002174
:100E600080E832001D48694601F032F8E602694622
:100E7000092004901A48CDE9006401F029F8194FBF
:100E80004FF46640CDE9000469463846049501F008
:100E90001FF84EF6FF706946CDE90004124804952C
:100EA00001F016F80495F720104D6946CDE90004CD
:100EB000284601F00DF8012469463846CDE9006462
:100EC00001F006F808206946CDE90004284600F044
:100ED000FFFF07B0F0BD00004438024000100240A0
:100EE0000018024000200240002402400028024076
:100EF00030B5294D04460B46284A286800EB80018E
:100F000001EBC00002EB8000806CB0B1012823D05F
:100F1000022832D0042830D007282ED0FFF79CFEBC
:100F2000296803FB004001EB810303EBC10102EBE5
:100F30008101C96D11F8100030BDFFF78DFE2968E1
:100F400003FB004001EB810303EBC10102EB8101D4
:100F5000C96D51F8200030BDFFF77EFE296803FB04
:100F6000004001EB810303EBC10102EB8101C96D7C
:100F700051F8200020F07F4030BDFFF76DFE29685A
:100F800003FB004001EB810303EBC10102EB810194
:100F9000C96D31F8100030BDD805002004290320A8
:100FA0000149086070470000D80500200449054A3F
:100FB000096801EB410102EB8101486070470000C4
:100FC000D8050020EC2903200449054A096801EBF3
:100FD000410102EB8101886070470000D8050020C4
:100FE000EC290320094A8423012903EBC01011686E
:100FF0000B5808D023F001030B501068416A41F0F0
:1010000001014162704743F00103F5E70429032021
:101010000349044A096801EB410142F82100704785
:10102000D8050020EC2903201B4802222DE9F041BD
:1010300000F13401174E07230660042581E82C00D7
:10104000CB6000240A61D7014A6110238A619102B2
:1010500044604026C0E902454A00C0E90741C0E9B2
:1010600009241030002180E8C800103800F05EF834
:1010700009490948343102F0A3F9084D10B10120A3
:10108000287000E02C7040F2036000F009F8287826
:10109000BDE8F081400100A0C42A0320DC05002047
:1010A0002DE9F843204C102700254FF6FF78012644
:1010B000009521468146C4E90067C4E90265A1F1B3
:1010C0005000424602F0B0F9012000F095FE0220E7
:1010D0002146C4E90007C4E90265A1F15000424677
:1010E00002F0A2F903214246C4E900170820214674
:1010F000C4E90205A1F1500002F096F94FF408701E
:10110000009004214246C4E90260C4E90017214668
:10111000A1F1500002F088F9A4F150004946BDE861
:10112000F84302F070B90000142B0320F0B5044618
:101130004F4887B0016841F00101016000684C49E7
:1011400000F0010005900839086840F4800008604C
:10115000086800F480000590086840F0040008600A
:10116000086800F004000590086840F00800086076
:10117000086800F008000590086840F0100008605A
:10118000086800F010000590086840F02000086032
:10119000086800F020000590086840F040000860F2
:1011A000086800F040000590086840F08000086082
:1011B000086801210C2200F0800005900220CDE992
:1011C000010108230093CDE903022A48694600F093
:1011D0007FFE4CF2037000902748694600F078FECD
:1011E0004FF6837000902548694600F071FE4FF677
:1011F0003F0000902248694600F06AFE48F2331032
:1012000000902048694600F063FE282000901E48A8
:10121000694600F05DFE1D494FF4007500224FF055
:10122000800CEE006F004A606801C1E902C5C1E9A7
:1012300004761831164EC300032581E80D00C1E97C
:1012400003254A618A6141F8186D21630F488C6358
:1012500000F02FFD0D4800F05DFD00220F21382029
:1012600001F01CFB382001F00BFB07B0F0BD0000C3
:101270003838024000080240000C024000100240D2
:101280000014024000180240001C0240042A0320FF
:10129000106402402DE9F04F95B0584D4FF0000B0F
:1012A00006465C46CDF844B0CDF848B0CDF84CB019
:1012B000A868016968788847002830707ED00024CB
:1012C0000DF1100A0DF1380908AF8BE0A8680DF197
:1012D0002C080AEB440208EB4401436968789847FC
:1012E0002878012807D138F8142029F814203AF872
:1012F000141027F81410810705D538F81410C1F51B
:10130000805129F81410410705D53AF81410C1F599
:10131000805127F81410000707D538F8140027F873
:1013200014003AF8141029F81410DFF8D48039F8B2
:10133000140058F82410884201D9421A00E00A1A11
:101340002F491FFA82FC37F81420143151F8243049
:101350009A4201D9D31A00E09B1A9BB26344052B31
:1013600003D948F8240041F8242095F801C0BCF1C5
:10137000700F26D058F8242006EB44006B885A439F
:10138000120B428051F82410AA885143090B818125
:1013900013A8214612AB009011AA604605F0FEFA90
:1013A000301911998175129980F82010139979B12B
:1013B00001290FD0022910D0032900E01AE010D132
:1013C0000DE006EB4401488037F814008881DFE720
:1013D000012100E00221C17603E00321FBE780F850
:1013E0001BB0641C3078A0423FF670AF304600F06E
:1013F00009F8044615B02046BDE8F08FE00500204E
:10140000242B0320F8B504461448002669460096AC
:101410003546407805F0B2FA0098182816D005DC59
:1014200068B110280DD0142806D10CE01C280FD06C
:1014300040280FD049280FD001252846F8BDA662C4
:10144000FBE7012000E00220A062F6E70320FBE7B3
:101450000420F9E70520F7E70620F5E7E00500207E
:1014600070B50C4C00260C4D60807020A18029685E
:101470008847696870208847512802D00326304683
:1014800070BDA5607020607008212170E9688847F0
:10149000F5E70000E0050020EC050020FEE7000075
:1014A000204AF0B5204E116840F25144631C0020E0
:1014B00021F00107176001213268C2F30A02A2F588
:1014C0008065493D04D0A24204D140F0010005E00E
:1014D000084603E09A4201D1012200E00022144BA9
:1014E0001043124A09D01348816081680029FCD159
:1014F00002600068984213D0FEE70F4C4FF00A409C
:101500002468B0EB445F0BD10C48016001680029EE
:10151000FCD10A48083802600068984200D0FEE713
:10152000F0BD0000002000E0002004E0C2A507F4A8
:10153000CDB5E8B5003002400010005C084C025800
:10154000014800F03BBA0000A8060020F0B5059C59
:1015500044EA034503685C6C04F040442C435C643B
:101560000368DA634268B2F5403F02D00068C160A8
:10157000F0BD01F47F42856801F47F04224301F04D
:101580007F4301F47F0701F47F46CCB2BDB1012D4A
:1015900016D001F47F02C1F3C401D20C022D11D088
:1015A000032D14D0320B390D15011A0F45EA012312
:1015B000210943EA02320A4300688263F0BD1A43FC
:1015C0002243F9E7B30A5B0143EAC222F3E7F40AD4
:1015D000DB0F640144EA822242EAC332EBE70000F7
:1015E00001681823CAB2103AB2FBF3F2054B6FF34D
:1015F0000901032A9B5CC36500D9091D8165084662
:101600007047000000B1040810B583694FF0C07442
:10161000826A0146002053B1B3F5005F15D072B164
:10162000012A0CD0022A0AD0032A09D104E01AB1F7
:10163000012A06D0022A03D1C96AC90100D50120B6
:1016400010BDC96AA142FAD010BD002AF7D0012A04
:10165000F2D0022AF3D0032AF3D010BD7047000065
:101660002DE9F74F29480026DFF89CA0006800EB21
:1016700040000AEB800080688588C788E81D8346A3
:1016800020F00700401B00F0FF0939E04FEADB01C2
:101690000298012901FB060009D0022909D001782E
:1016A00042788378080440EA0220184303E0007877
:1016B00001E0008840BA002480461AE02A1B02EBB1
:1016C00009010120491E884010EA080F009800EB2C
:1016D00004020E48016890B201EB410202D05AF8B0
:1016E000222002E00AEB82014A680199FFF7C0F963
:1016F000641CAC42E2D30198401C80B20190761C7D
:10170000BE42C3D3BDE8FE8FEC290320D8050020DC
:10171000F0B5D1E90125D1E90343D1E905762A43A2
:10172000D1F800C044EA0304D1E9073542EA0402D3
:10173000496A42EA0702BCF1010F42EA060208D0F8
:1017400004681A432A430A43E30BDB031A4302608B
:101750000BE0066844682B4326F4F84529430B4305
:1017600003606FF30E04224342600020F0BD426923
:1017700042EA410141610020704738B591E81C0000
:10178000C9686FF01F051A4305EB441444EA412170
:101790000A4300920261002038BD00002DE9F043A9
:1017A000914691E81C006FF00F05521E2E0105EBCB
:1017B00003131A430B7E06EB04268C8A2F034FEA91
:1017C000054C0D8A32434FF07F4808EB0366CB6827
:1017D000B9F1010F07EB05450CEB04540CD08168FF
:1017E0003F1107EB03331A432A432243324301F0EC
:1017F00070410A43826011E08168DFF828C0C76841
:101800001B03A3F5805323432A4301EA0C0132430F
:101810000B43836007F070442243C2600020BDE8A0
:10182000F0830000FF0F0FFFF0B5012604460020F3
:101830001E2301E05B1E05D303F01F0706FA07F520
:101840000D42F7D072B1082A0AD0102A05D0182A02
:1018500001D1072B06D30120F0BD082BFBD201E0FC
:10186000102BF8D22368596121688B6823F0180384
:1018700013438B60F0BD000010B5040010D0607FF2
:1018800020B900202077204600F032F8217902208C
:10189000607739B1D4E902122046FFF7C5FF48B19D
:1018A000012010BD2168114848612068816821F03D
:1018B000180181606079A0B1216820690861012266
:1018C00020686369816821F06001194381602068A4
:1018D000A369816821F0800119438160627700204B
:1018E00010BD21684FF0FF30E8E70000B71DC104CC
:1018F00008B500680649884208D10648016841F4E5
:1019000080510160006800F48050009008BD000024
:1019100000300240303802407047000070B590F847
:101920003820012A23D0244C012680F83860022375
:1019300000EB011280F83930158CD36918320A2B6C
:1019400043EA054515D0092B13D0137B45EA036301
:10195000056899B1E969A1431943E9610168136810
:101960000B6151680A291BD0092919D01DE00220FA
:1019700070BDD36803F07F432B43E9E7696AA14355
:1019800019436962016813688B6151680A2901D0A3
:1019900009290AD1D168026821F07F41916204E0EF
:1019A000D168026821F07F411162002180F839601E
:1019B00080F83810084670BD0F0003FF2DE9F0478E
:1019C0000446006800274FF004084FF001094668FC
:1019D0000568F10714D0E90512D5036823F4807374
:1019E0000360E06B40F00100E0632068C0F80890FD
:1019F00084F8398084F83870616909B120468847D5
:101A0000B00615D5A80413D520682022036823F456
:101A10000053036020688260E06B40F00200E063E6
:101A200084F8398084F83870616909B120468847A4
:101A3000300715D5280513D520680822036823F43C
:101A40000063036020688260E06B40F00400E063A4
:101A500084F8398084F83870616909B12046884774
:101A600070070CD568050AD52068026822F48062E8
:101A700002602068C0F80880204600F05AF8B007DD
:101A800013D5A80511D520680222036823F400733A
:101A9000036020688260E06BE06384F8399084F82A
:101AA0003870216909B120468847F00612D5E8044C
:101AB00010D52068016821F480510160226810214E
:101AC0009160E16BE16384F83990204684F83870C6
:101AD000FFF722FFBDE8F08770B5040004D094F84A
:101AE0003900002510B106E0012070BD204684F8C1
:101AF000385000F01FF8022084F83900D4E90003C0
:101B00000121026822F440321A4302602068A3686F
:101B1000426B22F007021A4342632068E368026CBA
:101B20006FF30D021A430264E56384F83910002054
:101B300070BD704708B500680B49884212D10B4848
:101B4000016841F40001016000680022114600F4C0
:101B5000000000905A2000F0A1FEBDE808405A2085
:101B600000F08EBE08BD000000B0024030380240D8
:101B70002DE9F8430026044604270D4600964FF051
:101B8000030800680068C00726D000F093FA814679
:101B90001EE04068009010F0210F10D000988006E1
:101BA00003D5E06B40F00200E0630098C00703D06B
:101BB000E06B40F00100E0632168212035E0681C03
:101BC00006D000F077FAA0EB0900A8424DD8A5B3E3
:101BD000206841688907DCD52068C169406A01F046
:101BE000200100F02000084335D000F063FA814660
:101BF0002DE04068009010F0290F1FD000980007DA
:101C000003D5E06B40F00400E0630098800603D544
:101C1000E06B40F00200E0630098C00703D0E06B87
:101C200040F00100E06321682920886084F8397061
:101C3000012084F83860BDE8F88316E0681C06D0FF
:101C400000F038FAA0EB0900A8420ED86DB1206868
:101C50004168C906CDD5226812210120916084F81F
:101C60003900002084F83860E5E7E16B84F83860DB
:101C700041F02001E16384F839800320DBE7F8B507
:101C80000446069894F83850012D10D0012684F8A7
:101C90003860022584F8395000902046FFF756FC42
:101CA0002068016841F0010101600020F8BD0220B8
:101CB000F8BD70B504002BD094F83500022826D06A
:101CC000206800252122016821F0010101602068BF
:101CD000056020684560206885602068C5602068D0
:101CE0000561206842612046FFF77AFC94F85C2089
:101CF0003F2191408160E56325646564A564E564E6
:101D00002565656584F83550002084F8345070BD31
:101D1000012070BD2DE9F047044600F0CBF90546DF
:101D200064B14FF0000984F83490022184F8351032
:101D30002068016821F0010101600EE00120BDE88A
:101D4000F08700BF00F0B6F9401B052805D9202117
:101D50006165032084F83500F1E720680068C0075A
:101D6000F0D1D4E90020D4E90251D4E9043C28435D
:101D700004F1180519430843116895E8E00140EAA9
:101D80000C001C4B2843194040EA060040EA0700BB
:101D9000B8F1040F40EA010003D1D4E90B13194351
:101DA0000843106020680126656A4069042D20F010
:101DB000070045EA00050CD1D4E90A01054341B109
:101DC0002046FFF721FC20B14020606584F8356093
:101DD000B4E7206845612046FFF702FC94F85C30C8
:101DE0003F229A408260C4F8549084F83560002005
:101DF000A5E700003F8010F070B5044600F05AF9E6
:101E00000546601C02D004480078044400F052F9F2
:101E1000401BA042FAD370BD28060020F0B587B061
:101E200014216846FEF745FA2148016800293CD193
:101E3000012101601F48016841F001010160006853
:101E400002240025694600F00100059003264FF6A4
:101E500083700C278DE8F100174800F039F848F23C
:101E6000331069468DE8F100144800F031F84CF267
:101E7000037069468DE8F100114800F029F84FF62B
:101E80003F0069468DE8F1000E4800F021F8282057
:101E900069468DE8F1000C4800F01AF80820694600
:101EA0008DE8F100094800F013F807B0F0BD00001C
:101EB000C8050020383802400010024000180240D7
:101EC000000C024000140240001C024000080240C6
:101ED0002DE9F84FDFF89CE100224FF001084FF0A8
:101EE000030B4FF00F0A00BF0B6808FA02F42340FF
:101EF000A34271D14D68022D01D0122D0FD1D5080A
:101F00000E69570700EB8505A9462D6AFF0E0AFAF0
:101F100007FCBE4025EA0C052E43C9F820600F7966
:101F2000550006680BFA05FC07F0030726EA0C06C5
:101F3000AF40374307604E68012E05D0022E03D014
:101F4000112E01D0122E0ED18668CF6826EA0C061B
:101F5000AF403743876046680F79A643C7F3001741
:101F6000974037434760C4688E6824EA0C04AE404B
:101F70002643C6604C68E40075D53F4C256845F49F
:101F800080452560246822F00306950704F4804408
:101F900000943A4C2D0F2644D6F80848DFF8E0C0EC
:101FA0000AFA05F7604524EA070401D100272EE06C
:101FB000344FB84201D1012729E0334FB84201D153
:101FC000022724E0314FB84201D103271FE0304FF0
:101FD000B84202D104271AE045E02E4FB84201D1A1
:101FE000052714E02C4FB84201D106270FE02B4FF4
:101FF000B84201D107270AE0294FB84201D108278A
:1020000005E0284FB84201D1092700E00A27AF4078
:1020100027437546C6F808784E68DEF80040F60398
:1020200024EA030400D51C43124E2C60361D4D6873
:102030003468AD0324EA030400D51C430D4F34601B
:1020400008374D683C68ED0224EA030400D51C43C0
:10205000084D3C600C354E682C68B60224EA030437
:1020600000D51C432C60521C102AFFF43DAFBDE884
:10207000F88F0000003C014044380240003001402D
:10208000000002400004024000080240000C024030
:10209000001002400014024000180240001C0240E0
:1020A00000200240002402400AB181617047090407
:1020B000FBE7000001488068704700002806002008
:1020C00010B5040014D0242084F841002068016871
:1020D00021F001010160204600F0CAF9002060648F
:1020E00084F84100206384F8420084F8400010BD69
:1020F000012010BD90F841007047000070B5040049
:1021000004D094F84100002510B106E0012070BD14
:10211000204684F8405000F0ACF9242084F84100B7
:102120002068016821F001010160D4E9001020F06D
:10213000706008612068816821F400418160E06876
:1021400021680128A06806D040F404408860E06857
:10215000022803D006E040F40040F7E721684FF47E
:102160000060486020212068114A4368134343609F
:102170002068C26822F40042C26054F8106B0DCC93
:10218000104340EA0320F06054F81C3CD4E90002FC
:102190001043186054F81C0D026842F001020260FE
:1021A000656484F84110256384F84250002070BDB6
:1021B000008000022DE9FF4F83B0044690F84100F3
:1021C0009A469346DDE91087DDF84890202874D1BF
:1021D0005FEA080014D09FB194F8400001286CD049
:1021E000012084F84000FFF765FF0122064619230D
:1021F0000090D103204601F0DBFD002871D103E0FF
:102200004FF4007060646CE00025C4F82480222143
:1022100084F84110402084F8420065646785534685
:1022200065635A4604992046CDE9009601F046FDC3
:1022300010B184F8405054E0618DFF2734484FF0CE
:102240008078FF294FF0007A04D927853A46434623
:10225000009005E0618D53462185009094F8282078
:102260002046049901F08EFD00224B4604212046B1
:10227000009601F09DFDA0BB2068616A406A08706D
:10228000606A401C6062208D401E81B22185608D95
:10229000401E6085608DD8B1D1B900224B468021A7
:1022A0002046009601F084FDD8B9608DFF2805D93D
:1022B00027853A464346009506E026E0608D534662
:1022C0002085009594F828202046049901F05AFDB5
:1022D000608D0028C8D132464946204601F095FD60
:1022E00018B1012007B0BDE8F08F21682020094A0D
:1022F000C86121684B6813404B6084F8410084F842
:102300004250002084F84050ECE70220EAE7000049
:102310000024008000E800FE2DE9FF4F83B0044652
:1023200090F841009A469346DDE91087DDF8489021
:10233000202871D15FEA080014D09FB194F84000C2
:10234000012869D0012084F84000FFF7B3FE012284
:10235000064619230090D103204601F029FD0028EC
:102360006ED103E04FF40070606469E00025C4F8AA
:102370002480212184F84110402084F842006564C3
:102380006785534665635A4604992046CDE9009611
:1023900001F0C6FC10B184F8405051E0608DFF2779
:1023A0004FF08078FF284FF0007A04D927853A460D
:1023B0004346009505E0608D53462085009594F8CE
:1023C00028202046049901F0DDFC3246494620468B
:1023D00001F042FDA0BB606A216800788862606AF3
:1023E000401C6062608D401E6085208D401E80B262
:1023F0002085618DD9B1D0B900224B46802120467D
:10240000009601F0D5FCD8B9608DFF2805D9278545
:102410003A464346009506E026E0608D5346208507
:10242000009594F828202046049901F0ABFC608DBB
:102430000028CAD132464946204601F0E6FC18B1D0
:10244000012007B0BDE8F08F20682021074AC16154
:10245000206843681340436084F8411084F8425078
:10246000002084F84050ECE70220EAE700E800FE94
:102470007047704702488168027811448160704754
:1024800028060020032010B500F028FA002000F0F4
:1024900005F800F0DDF9002010BD000010B50022A5
:1024A0000146362088B000F0F9F9362000F0E8F94E
:1024B0001348016841F010010160006805A900F0AF
:1024C00010000690684600F06DFD00F08BFD0D4990
:1024D000400000220C4CB0FBF1F10C4840F2E73315
:1024E0000460C0E90332491EC0E9011201F038F866
:1024F00010B1012008B010BD044801F061F8F9E7FF
:102500004038024040420F0000100040A82703203E
:102510002DE9F041044690F8A00016460F46012828
:102520001DD0012584F8A050022084F8A10006EBFC
:10253000860000EBC600342204EB80003830FDF743
:102540009FFE32463946204601F0E2FD2168002018
:102550004D6284F8A15084F8A000BDE8F08102200B
:10256000FBE7704790F8A10070472DE9F041044661
:10257000006800274FF00408856B466B690715D586
:10258000710713D5426B22F0040242632068C0F841
:102590003C80D4F8A40040F00100C4F8A40084F802
:1025A000A180204684F8A070FFF7DBFFA80716D5AE
:1025B000B00714D520680222436B23F00203436363
:1025C0002068C263D4F8A40040F00200C4F8A4005C
:1025D00084F8A180204684F8A070FFF7C2FF05EAC6
:1025E00006004FF00108C0070ED021684A6B22F0A8
:1025F00001024A632168C1F83C8084F8A18020462A
:1026000084F8A07000F092F8280710D530070ED596
:1026100020680822436B23F0080343632068C263E9
:1026200084F8A180204684F8A07000F00FF9BDE87E
:10263000F08100002DE9F041040004D094F8A100DD
:10264000002518B107E00120BDE8F081204684F89C
:10265000A05000F06DF83448022184F8A110012246
:1026600002CC8B6923F070438B6194E84A001943D4
:10267000E3681E4354F8043D31439E693143996138
:1026800021688B6803408B602168A68AA7698B68E4
:102690003B4343EA06438B602168CB680340CB6031
:1026A0002168A38B276ACE683E4346EA0346CE6084
:1026B00021680B6903400B612368A68CA76A19691E
:1026C000394341EA0641196121684B6903404B6176
:1026D0002068A38D266B4169314341EA0341416182
:1026E000236894F8351094F83600DE6A000406F08A
:1026F0007F46DE62236840EA012094F83460D96A9C
:1027000031430143D9622068416B41F006014163C6
:102710002068816941F001018161C4F8A45084F806
:10272000A120002090E7000000F800F070470000B2
:1027300070B586B0044614216846FDF7BAFD3C49E1
:102740002068884272D13B48016841F08061016095
:10275000006800F08060059036481438016841F048
:1027600010010160016801F010010591016841F458
:1027700000710160016801F400710591016841F484
:1027800080610160016801F480610591016841F098
:1027900040010160016801F040010591016841F4C8
:1027A00080710160006800240E26694600F4807084
:1027B00005901020009002251F48CDE90154CDE975
:1027C0000346FFF785FB4EF6FF700090CDE90154FC
:1027D0001A486946CDE90346FFF77AFBF7200090D7
:1027E000CDE9015416486946CDE90346FFF770FB71
:1027F0000921E8020090CDE90154CDE903411148D7
:102800006946FFF765FB4FF446400090CDE901545F
:102810000D486946CDE90346FFF75AFB00225820D0
:10282000114600F03BF8582000F02AF806B070BDC1
:102830000068014044380240001002400024024079
:1028400000280240001802400020024070470000AB
:102850000A4808B5016841F080510160006800F045
:10286000805000900548001D016841F480410160DE
:10287000006800F48040009008BD0000403802402D
:10288000002809DB410900F01F028900012001F145
:10289000E0219040C1F80001704700000E4BF0B4F9
:1028A0001B680D46C3F30223C3F10706042E00D9AB
:1028B0000426191D072901D2002300E0DB1E012494
:1028C00004FA06F19C40491E2940641E99401440B8
:1028D0002143F0BC02F0F9BC0CED00E0064900F029
:1028E000070210B54FF6FF040868044B204040EA89
:1028F00002201843086010BD0CED00E00000FA054E
:102900001848F8B5016841F0805101600068164C24
:1029100000F080500090206840F480302060FFF785
:10292000C9FB4FF47A76054605E000BFFFF7C2FB0E
:10293000401BB0420FD86068C003F7D5206840F450
:1029400000302060FFF7B6FB054606E0FFF7B2FB5C
:10295000401BB04201D90320F8BD60688003F5D563
:102960000020F8BD40380240007000400248016875
:1029700041F4807101607047007000402DE9F84F0C
:1029800004460078DFF824944FF000063746C0076D
:102990000ED0D9F8001021F40001C9F80010D9F8C0
:1029A0000010626B1143C9F80010606B00B901267A
:1029B000FE4D2068843500030ED5E16B286820F4B5
:1029C000401008432860E06BB0F5801F01D010B1C3
:1029D00002E0012600E0012720684FF4800BC002CE
:1029E0000CD5216C286820F4400008432860206C36
:1029F000584501D1012601E000B901272068C10135
:102A000000D50126800666D5E8483830016841F0D7
:102A1000805101600068DFF898A300F080500090BA
:102A2000DAF8001041F48071CAF80010FFF742FB99
:102A3000804605E0FFF73EFBA0EB080064287DD848
:102A4000DAF80000C005F5D5DFF8608308F1680802
:102A5000D8F8000010F440702AD0218E01F44071A3
:102A6000814225D0D8F80010D8F8002021F4407118
:102A700042F48032C8F80020D8F8002022F48032D6
:102A8000C8F80020C8F80010D8F80000C0070FD020
:102A9000FFF710FB824607E0FFF70CFBA0EB0A01F3
:102AA00041F288308142CAD8D8F800008007F3D5B7
:102AB000206BC0F3012103297ED0D9F8001021F446
:102AC000F811C9F80010228ED8F80010C2F30B02DA
:102AD0001143C8F800102078C00607D5286820F0F8
:102AE000807028602868A16B084328602188AF485F
:102AF0008830490405D5626E016821F440311143E4
:102B000001602188090405D5A26E016821F44021E5
:102B1000114301602168C90305D5E26E016821F403
:102B20004011114301602168890305D5226F0168B6
:102B300021F4400111430160217800E018E14906C9
:102B400005D5626C016821F0030111430160217811
:102B5000090605D5A26C016821F00C011143016042
:102B60002188C90505D5E26C016821F030011143C7
:102B700001602188890505D5226D016821F0C00119
:102B8000114301602188490505D5626D016821F472
:102B90004071114301602188090505D5A26D0168C6
:102BA00021F44061114301602188C90407D5E26D19
:102BB000016821F4405100E041E0114301602188A7
:102BC000890405D5226E016821F44041114301605A
:102BD0002168490205D5A26F016821F08061114387
:102BE000016021684FF0006A890209D5E26F01682F
:102BF00021F0006111430160E16F514500D10127CF
:102C000021680A0700D50127490305D5626F0168CD
:102C100021F04071114301602168090206D5D4F802
:102C20008020016821F0805111430160DFF8849118
:102C3000012E0ED02068B0F1007F0AD08FE05E4AEE
:102C4000D9F80030104023F4F8120243C9F80020EC
:102C500039E7D9F800004E4620F08060C9F800003E
:102C6000FFF728FA804605E0FFF724FAA0EB0800FA
:102C700064287DD830680001F6D421784B487C3038
:102C8000C90712D0616B81B9237A62680168D0F8F4
:102C900000C09201C1F3014142EA0142CCF3036159
:102CA00042EA016141EA0371016021680A0303D528
:102CB000E26BB2F5801F04D0C9021AD5216C5945C8
:102CC00017D16368016894F80CC002689B01C1F3D6
:102CD000014143EA0141C2F3027241EA0C6141EA57
:102CE000027101602968626A21F01F01521E1143BE
:102CF00029602168C90110D5238A62680168D0F86B
:102D000000C09201C1F3036142EA034242EA016258
:102D1000CCF3027142EA01710160216889010CD58E
:102D20006168228A237B94F808C0890141EA024144
:102D300041EA036141EA0C7101603168B04641F03B
:102D400080613160FFF7B6F9064604E0FFF7B2F99B
:102D5000801B64280CD8D8F800000001F6D56FB3AA
:102D6000D9F800004E4620F08050C9F8000000E07D
:102D700079E0FFF79FF9074605E000BFFFF79AF9F2
:102D8000C01B64286FD83068C0438000F6D5074860
:102D9000216880300A0301D5E26B1AB1C90225D53A
:102DA000216C19BB63690168277E08E0083802407E
:102DB0000070004000380240FFFCFF0F5AE002683C
:102DC000C1F301419B0143EA0143C2F3027143EAAB
:102DD000076242EA0171016029686FF0FF03A26A8D
:102DE00021F4F85103EB0222114329602168890282
:102DF00012D5E16F51450FD1238C626901680768D4
:102E00009201C1F3036142EA034242EA0162C7F35D
:102E1000027142EA017101602178090716D56169E2
:102E20000268D0F800C08B01277FC2F30362CCF3A5
:102E3000014143EA014141EA026141EA077101604F
:102E40002868E16A20F4403008432860306840F088
:102E500080503060FFF72EF9044607E0FFF72AF9AB
:102E6000001B642802D90320BDE8F88F3068C043F6
:102E70008000F3D40020F7E72DE9F04705000F4666
:102E800063D0444E306800F00F00B84209D2306879
:102E900020F00F0038433060306800F00F00B84277
:102EA00053D128683C4C810712D5400703D52068D0
:102EB00040F4E05020602878000703D5206840F4F3
:102EC00060402060A968206820F0F000084320607E
:102ED0002878C0072AD0304968680839012810D0FE
:102EE0000968022810D0890700292EDA216821F00C
:102EF000030101432160FFF7DDF8804641F2883984
:102F00000DE009688903EFE78901EDE7FFF7D2F8E3
:102F1000A0EB0801494502D90320BDE8F0876868A5
:102F2000216801F00C01B1EB800FEFD1306800F0A7
:102F30000F00B8420BD9306820F00F0038433060E2
:102F4000306800F00F00B84201D00120E5E7287892
:102F5000400705D5E968206820F4E0500843206068
:102F60002878000706D52869216821F4604141EAE4
:102F7000C000206000F056F82168084AC1F3031130
:102F8000515CC840064908600020FFF787FA00201E
:102F9000C3E70000003C024008380240E8B00408E3
:102FA000240600200D4A0F2330B503604FF4E0548F
:102FB0000B4B156805F003054560156805F0F00535
:102FC0008560156805F4E055C560126804EAD20210
:102FD0000261186800F00F00086030BD0838024038
:102FE000003C02400449054809680068044AC1F3EE
:102FF0008221515CC84070470838024024060020F6
:10300000F8B004080449054809680068044AC1F397
:103010004231515CC8407047083802402406002005
:10302000F8B00408154910B51548096811F00C02EC
:1030300013D01449042A0FD0082A0ED10F4C241F94
:103040002268236802F03F025B0207D52068C0F3C4
:103050008810A0FB010106E0084610BD2168C1F3FD
:103060008811A1FB00010023FDF7CAF82168C1F314
:103070000141491C4900B0FBF1F010BD0838024085
:103080000024F40040787D012DE9F84F05004FF051
:1030900000076ED02878DFF81C93A9F1040AC00756
:1030A000AAF104044CD0D9F800104846C1F38101BC
:1030B000012908D00068C0F3810002280AD1DAF89B
:1030C0000000400206D52068800339D568680028D2
:1030D000DFD035E06868B0F5803F0BD010B1B0F5B7
:1030E000A02F11D0206820F480302060206820F4C8
:1030F000802002E0206840F480302060686890B151
:10310000FEF7D8FF06460AE0206840F480202060E1
:10311000F0E700BFFEF7CEFF801B642872D820685E
:103120008003F7D50CE0FEF7C5FF064605E000BFBB
:10313000FEF7C0FF801B6428F0D820688003F7D416
:103140002878800742D5D9F80010484611F00C0FB6
:1031500008D00068C0F3810002280BD1DAF8000023
:10316000400207D42068800718D5E868012800D1FC
:1031700014E01CE1E8680028206817D040F0010046
:103180002060FEF797FF064605E000BFFEF792FFBE
:10319000801B0228C2D820688007F7D528692168DB
:1031A00021F0F80141EAC00020600FE020F00100AA
:1031B0002060FEF77FFF064605E000BFFEF77AFFBE
:1031C000801B02281ED820688007F7D428780007C3
:1031D00029D5784869696C3000298046016812D089
:1031E00041F001010160FEF765FF064605E000BF02
:1031F000FEF760FF801B022804D8D8F80000800783
:10320000F6D510E089E021F001010160FEF752FFE0
:10321000064604E0FEF74EFF801B02287DD8D8F852
:1032200000008007F6D4287840076BD5DFF884814A
:1032300008F13808D8F80000C0000BD4D8F8001006
:1032400041F08051C8F80010D8F80000012700F0C4
:103250008050009058480168C90512D4016883461F
:1032600041F480710160FEF725FF064605E000BFCE
:10327000FEF720FF801B64284FD8DBF80000C00554
:10328000F6D54C4EA868683601280AD008B1052842
:1032900011D0306820F001003060306820F0040068
:1032A00002E0306840F001003060A868A0B1FEF78D
:1032B00001FF83460CE0306840F004003060F0E726
:1032C000FEF7F8FEA0EB0B0141F28830814266D890
:1032D00030688007F4D50EE0FEF7ECFE834607E089
:1032E000FEF7E8FEA0EB0B0141F28830814256D890
:1032F00030688007F4D42FB1D8F8001021F0805145
:10330000C8F80010A869C8B3D9F80010C1F381014A
:1033100002294CD00228206800E040E020F08070B4
:10332000206003D0FEF7C6FE05463BE0FEF7C2FE76
:10333000064604E0FEF7BEFE801B02282FD8206858
:103340008001F7D4D5E90962D5E907011B4B57087D
:1033500095F82C20084303EB074343EA8611084302
:1033600040EA026040F00050CAF80000206840F0D7
:1033700080702060FEF79EFE054606E015E000BF67
:10338000FEF798FE401B022809D820688001F7D577
:103390000BE000BFFEF78EFE401B022802D903207F
:1033A000BDE8F88F20688001F4D40020F8E7012000
:1033B000F6E7000008380240007000400000FFFF00
:1033C00070B504000D4603D094F82C0010B107E04E
:1033D000012070BD002084F82D00204600F011F877
:1033E000022084F82C002068211DFEF791F9D4E911
:1033F00000022946FEF7D2F9012084F82C000020B3
:1034000070BDFEF70BBD10B5044690F82C000228E5
:1034100009D0022084F82C002068FEF7A8F90120CA
:1034200084F82C00002010BD70B5044690F82C00E4
:103430000D4602280DD0022084F82C002068FEF7EB
:103440009CF92868022805D05FF0010084F82C0060
:10345000002070BD0520F9E77047704770470000F5
:103460002DE9F04390F83C20012A42D0012280F857
:103470003C2051F80C4BDFF880804FF0000991E8B8
:10348000680051E9022723F44073B1F80CC03B43B4
:10349000CF6923F480631343026823F4006323435A
:1034A00023F4805343EA050323F4005343EA06035D
:1034B00023F4804343EA07030C3923F47023424585
:1034C00043EA0C4302D00D4CA2420CD18D8C23F464
:1034D0007006D1E9073446EA055121F0807119439D
:1034E00021F000732343536480F83C900020BDE832
:1034F000F0830220FBE700000000014000040140CF
:1035000070B590F83C20012A24D0134C012580F896
:103510003C50022280F83D2002685368A24296681F
:1035200002D00E4CA24203D14C6823F47003234313
:103530000C6823F0700389681C435460002326F054
:10354000800602683143916080F83D5080F83C303D
:10355000184670BD022070BD00000140000401400B
:1035600010B5040003D094F83D0010B107E001202D
:1035700010BD002084F83C00204600F00DF8022029
:1035800084F83D002068211D01F0A0FA012084F894
:103590003D00002010BD000008B5006806498842C3
:1035A00008D10648016841F001010160006800F09F
:1035B0000100009008BD00000000014044380240B6
:1035C0000168094ACB6843F00103CB600168886851
:1035D0001040062806D0B0F5803F03D0086840F0C0
:1035E00001000860002070470700010070B5044624
:1035F00090F83C00012817D0324B012584F83C504C
:10360000022084F83D0022689068184020F47F4032
:1036100090600868502830D00DDC20284DD005DCA3
:1036200098B310283BD148E0022070BD302844D028
:10363000402834D139E0602828D0702806D0B0F571
:10364000805F2CD0B0F5005F29D10AE04A6820687D
:10365000D1E9021301F0A0FA2068816841F07701F6
:1036600009E04A682068D1E9021301F095FA206860
:10367000816841F48041816011E0CA68496820682E
:1036800001F0D2FB2068502107E016E0CA684968C3
:10369000206801F0DAFB2068602101F086FA002042
:1036A00084F83D5084F83C0070BDCA6849682068C1
:1036B00001F0BAFB20684021EFE72268014610467E
:1036C000EBE7000088FFFEFF704770B50446006816
:1036D00000250169C943890715D4C168C943890711
:1036E00011D4EA1E026101212177206880698007D8
:1036F000204602D0FFF7E8FF04E000F0D1F82046B2
:1037000000F07FF9257720680169C943490717D47C
:10371000C168C943490713D402216FF00402026152
:1037200021772068806910F4407F204602D0FFF79F
:10373000CBFF04E000F0B4F8204600F062F92577F2
:1037400020680169C943090716D4C168C94309073C
:1037500012D404216FF00802026121772068C06949
:103760008007204602D0FFF7AFFF04E000F098F892
:10377000204600F046F9257720680169C943C9064B
:1037800017D4C168C943C90613D408216FF01002C9
:10379000026121772068C06910F4407F204602D082
:1037A000FFF792FF04E000F07BF8204600F029F9D3
:1037B000257720680169C943C90708D1C168C94391
:1037C000C90704D1891E0161204600F01BF9206859
:1037D0000169C943090609D4C168C943090605D46A
:1037E0006FF0800101612046FFF737FE2068016914
:1037F000C943C90509D4C168C943090605D46FF492
:10380000807101612046FFF727FE20680169C943E6
:10381000490609D4C168C943490605D46FF040017F
:103820000161204600F0F8F820680169C943890663
:103830000BD4C168C943890607D46FF02001016128
:103840002046BDE87040FFF709BE70BD10B586B0D8
:10385000044614216846FCF72CFD0E492068884276
:1038600016D10D48016841F0010101600068012393
:10387000022200F00100059000204FF480710091B9
:103880006946CDE90120CDE903030448FEF720FB9A
:1038900006B010BD00000140303802400000024078
:1038A000704770B5044690F83C000D4601280ED0D4
:1038B000012684F83C60022084F83D000C2A45D0A3
:1038C00007DC5AB1042A1BD0082A78D12CE0022048
:1038D00070BD102A4ED0142A71D15DE0206801F02D
:1038E0006DF92068816941F0080181612068816972
:1038F00021F00401816120682A698169114311E086
:10390000206801F095F92068816941F400618161C6
:103910002068816921F48061816120682969826958
:1039200042EA012181614AE0206801F0BDF9206886
:10393000C16941F00801C1612068C16921F0040139
:10394000C16120682A69C169114311E0206801F052
:10395000E7F92068C16941F40061C1612068C1696B
:1039600021F48061C16120682969C26942EA0121AC
:10397000C16124E0206801F0FFF92068416D41F049
:10398000080141652068416D21F00401416520680E
:103990002A69416D114311E0206801F019FA20688D
:1039A000416D41F4006141652068416D21F4806101
:1039B000416520682969426D42EA01214165002084
:1039C00084F83D6084F83C0070BD10B5040003D05D
:1039D00094F83D0010B107E0012010BD002084F8EC
:1039E0003C00204600F00CF8022084F83D002068DE
:1039F000211D01F06BF8012084F83D00002010BD6E
:103A00007047704700680349884201D1FEF732BD14
:103A10007047000000100040704710B5040002D04D
:103A2000606F10B107E0012010BD002084F8700025
:103A3000204600F025F8242060672068016821F006
:103A400001010160204601F0C1FA0128ECD0606A52
:103A500010B1204601F038FA2068416821F4904105
:103A600041602068816821F02A0181602068016836
:103A700041F0010101602046BDE8104001F088BA24
:103A800070B586B0054614216846FCF712FC28681C
:103A900000242C4A02252A49072690422CD1284886
:103AA0001430026842F010020260006800F010005A
:103AB0000590086840F002000860086800F0020005
:103AC0000590086840F0010008600868694600F049
:103AD0000100059080200090CDE901541A48CDE9FD
:103AE0000346FEF7F5F928020090CDE90154174886
:103AF0006946CDE903461EE0154A90421DD11048A3
:103B00001030026842F480220260006800F48020D5
:103B10000590086840F004000860086803210496D6
:103B200000F0040005904FF44060CDE90241CDE97A
:103B3000000508486946FEF7CBF906B070BD0000E5
:103B400030380240001001400004024000000240F2
:103B500000480040000802402DE9F8430446406F49
:103B60001F4616460D4620284FD1CDB1C6B194F858
:103B70007000012849D0012284F8702021214FF0E3
:103B80000008C4F87C806167FEF794FA8146A0685B
:103B9000A4F85060A4F85260B0F5805F03D004E050
:103BA0000120BDE8F883206910B12E46002510E001
:103BB00000260EE08021204601F032FBB8B9C6B1E4
:103BC00016F8010B21688862B4F85200401EA4F870
:103BD0005200B4F852004B464FF000020097002804
:103BE000E8D14FF04001204601F01AFB38B1032024
:103BF000D7E735F8020B2168C0F30800E3E720217E
:103C00006167002084F87080CBE70220C9E7FEE7F7
:103C100001688A69D243920701D400228A6200684F
:103C20008169C943C90703D0816941F001018161FC
:103C3000704700002DE9F0410446006890460E46AA
:103C40008069C043C00635D40025202720688069DC
:103C5000C043800616D5701CF8D0FEF72BFAA0EBF7
:103C60000800B04201D8002EF0D1606C84F84050BA
:103C700040F02000606484F8417084F842500120D4
:103C8000BDE8F08121681020C8612068C761204626
:103C9000FFF7BEFF2068084942680A404260606C36
:103CA00040F00400606484F8417084F8425084F865
:103CB0004050E4E70020E3E700E800FE2DE9F84388
:103CC000174604461548DAB2DDE908981E4600900A
:103CD0000023204600F056F842464946204600F0B0
:103CE000BBF8B8B9012EFDB208D02068390A81624C
:103CF00042464946204600F0AFF858B92068856230
:103D0000002240214B462046CDF8008000F050F8BC
:103D1000002800D00120BDE8F883000000200080CA
:103D20002DE9F8430446164817461E46DAB20090BD
:103D3000C3022046DDE9089800F024F842464946CF
:103D4000204600F089F8B8B9012EFDB208D02068ED
:103D5000390A816242464946204600F07DF858B94A
:103D600020688562002280214B462046CDF80080E5
:103D700000F01EF8002800D00120BDE8F883000004
:103D80000020008070B50068C1F30901074E41EAC8
:103D90000241049C4FF480654268194305EA54557A
:103DA0003543AA4321430A43426070BDFF63FF03CA
:103DB0002DE9F0411D4617460E460446DDF81880F1
:103DC00008E0681C06D0FEF775F9A0EB0800A842D1
:103DD0000BD855B12068806936EA000013D0002066
:103DE000B842EED00020BDE8F081626C002084F87B
:103DF0004000202142F02002626484F8411084F8DF
:103E000042000120EFE70120EAE770B516460D46B3
:103E100004460DE0324629462046FFF70BFF08B165
:103E2000012070BDFEF746F9801BA84207D835B1C6
:103E300020688069C0438006ECD4002070BD626CAD
:103E4000002084F84000202142F02002626484F8BF
:103E5000411084F84200E3E770B516460D4604466B
:103E60000FE0324629462046FFF7E4FE08B1012064
:103E700070BD681C05D0FEF71DF9801BA84207D84D
:103E800035B120688069C0438007EAD4002070BD46
:103E9000626C002084F84000202142F0200262641D
:103EA00084F8411084F84200E1E710B50446FEF7BB
:103EB00007F92046BDE81040AFF3008010B5044676
:103EC000FEF718F9002818D10C48844201D10C489B
:103ED00000E00C4801210C4A206000206260C4E927
:103EE000020120616061E0612062204600F00EF86E
:103EF0002046BDE81040FEF701B910BDE8270320B9
:103F0000005C00400054004032279140F0B5424927
:103F10000022424B87B0424D4FF48076414C98428C
:103F2000D1F800C04FF012004FF002034FF0040729
:103F300037D14CF0800CC1F800C009680DF1080CB5
:103F400001F0800105918021CDE900108CE88C0002
:103F5000354F69463846FDF7BBFF6946384600963F
:103F6000FDF7B6FF286840F400002860286800F4D8
:103F700000000590206840F400002060206820F4D4
:103F80000000206000220F214820FEF787FC482017
:103F9000FEF776FC00220F214920FEF77FFC492026
:103FA00035E04CF0020CC1F800C00968CDE90223ED
:103FB00001F00201CDE90471CDE900601B4E6946B4
:103FC0003046FDF785FF7015694600903046FDF7D5
:103FD0007FFF286840F400102860286800F4001073
:103FE0000590206840F400102060206820F4001044
:103FF000206000220F211F20FEF750FC1F20FEF73B
:104000003FFC00220F212020FEF748FC2020FEF775
:1040100037FC07B0F0BD000030380240E82703202D
:104020004038024020380240001C02400004024098
:10403000FEB50D4606464FF47A74DDE908018DE8B9
:10404000130029463046FEF7B5F8040003D0294690
:104050003046FFF72AFF2046FEBDFEB50D46064658
:104060004FF47A74DDE908018DE8130029463046E3
:10407000FEF752F9040003D029463046FFF715FF3A
:104080002046FEBD2DE9F84307461B480E4615465F
:10409000DDE908184FF440321C464260174A1268A6
:1040A00002EB820303EBC202A0F1A80303EB82023E
:1040B000926C022A00D000228260114A0260C16024
:1040C0000D48FDF709FD002814D10B483946FDF7CE
:1040D00025FC00280ED108482B4632464146009464
:1040E000FDF7CDFD002805D1BDE8F84302480A21BF
:1040F000FDF73EBDBDE8F883AC290320D8050020BC
:1041000000B002400148FEF730BA0000E806002087
:104110002DE9FE4F81460068882493468D888C22C5
:1041200004EBCB178A46C3689421BE46C459C3F337
:104130000B432B4404F470441F04019702EBCB1291
:1041400040F80E4001EBCB13DAF800709C214FF0E1
:10415000AC0C01EBCB1440F2077102910CEBCB11CC
:10416000D9F800C098250020CDF800C0A02605EBA6
:10417000CB15DCF80CC006EBCB16CCF30B4C0CF1DA
:10418000010C07EB0C08DDF800C0019F48EA0708A6
:104190004CF80E80D9F80070BAF80CC0B846FF6829
:1041A000C7F30A0767444FEA074E58F8027007F44E
:1041B000704C48F802C0D9F800C0DAF80870DCF892
:1041C0000C80C8F30A0808F10108B84448EA0E0850
:1041D0004CF80280D9F80020D75827F00707D750AD
:1041E000D9F80070DAF81020FA509AF831209AF8CD
:1041F00018304FEA022C9AF83220120442EA036285
:10420000D9F800301F5918519AF8303043EA0C039E
:104210001343D9F800201351D9F80020535923F043
:10422000FF035351D9F80020DAF814305351D9F86C
:1042300000209359029CA3439351D9F80030DAE946
:10424000072422439A51D9F8002053585050D9F8E6
:104250000020DAF824005050DAF81000C8B3012822
:104260003AD004283AD0022838D0032836D007287C
:1042700034D00120D9F80030B02505EBCB11B422A1
:1042800084245D5802EBCB1205F0E0255D50DAE99D
:10429000003504EBCB14EB1ABAF8285043434543DE
:1042A000D9F80000DB1C43EA05434350D9F800006D
:1042B00081586FF30A018150D9F80000DAF82C1008
:1042C0008150D9F80000015941F001010151BDE8C8
:1042D000FE8FFFE70420CDE70320CBE70220C9E7EC
:1042E000F0B587B01C216846FBF7E3FF13480021B7
:1042F000114E042300F1080E102506604FF4C0771C
:10430000416040268EE82A004FF4006C0222C0E98A
:1043100005670724D502C0E9071CC0E90951CDE9AA
:10432000002403266946CDE90462CDE902340692F1
:10433000FFF746F807B0F0BD400100A0D00800200C
:104340002DE9F04F87B014216846FBF7B2FFFE4815
:10435000016841F010010160016801F01001059150
:10436000016841F040010160016801F040010591E0
:10437000016841F002010160016801F0020105914C
:10438000016841F008010160016801F00801059130
:10439000016841F004010160016801F00401059128
:1043A000016841F001010160016801F0010105911E
:1043B000016841F400710160016801F40071059128
:1043C000016841F480710160016801F48071059118
:1043D000016841F480610160016801F48061059128
:1043E000016841F020010160016801F020010591A0
:1043F000016841F08001016000680122202100F085
:1044000080000590D148FDF74FFED14800220C21D5
:10441000FDF74AFECF4801220821FDF745FE0122A3
:10442000CB481103FDF740FECB4800224FF400516A
:10443000FDF73AFEC9480022C821FDF735FE0024E9
:104440004FF00809C64869460294CDE90094FDF78B
:104450003FFD02AA4FF0090B02254FF00408032686
:10446000BF4882E85008CDE900856946FDF730FD78
:104470004FF4D0400294CDE900050B206946CDE908
:104480000360B648FDF724FD01276946300200901D
:104490001220CDE90107B348CDE90348FDF718FD27
:1044A00043F623400294CDE900050A206946CDE990
:1044B0000360AC48FDF70CFD10200090CDE90154DD
:1044C000A8486946CDE90345FDF702FD802000902C
:1044D000CDE901549D486946CDE90349FDF7F8FC53
:1044E0004FF498500294CDE900050C206946CDE9BF
:1044F00003609D48FDF7ECFCA8030090CDE9015452
:104500009A486946CDE90347FDF7E2FC60204FF089
:104510000D0A00906946CDE901549148CDE9034A5E
:10452000FDF7D6FC40200294CDE900050A2069463B
:10453000CDE903608B48FDF7CBFCE8026946CDE985
:1045400000048B480294FDF7C3FC4020009089488A
:104550006946CDE901047D48FDF7BAFC4FF4E0500F
:104560000294CDE900050A206946CDE903607F4841
:10457000FDF7AEFCF02000900A206946CDE9015419
:10458000CDE903407248FDF7A3FC680200900A20C1
:104590006946CDE90154CDE903407048FDF798FC28
:1045A00020200090CDE90174684869460394FDF726
:1045B0008FFCCDF800906946CDE901546348CDE900
:1045C000034AFDF785FC41F20C000090CDE901742F
:1045D0005F4869460394FDF77BFC28036946CDE9F3
:1045E000000461480294FDF773FCCDF80090694621
:1045F000CDE9017457480394FDF76AFC2802009046
:10460000CDE9015455486946CDE9034AFDF760FC00
:1046100010206946CDE900044C480294FDF758FC8F
:104620000C20CDF800806946CDE903604748CDE90C
:104630000154FDF74DFC48F204006946CDE9000441
:1046400045480294FDF744FC05200095CDE901544E
:104650006946CDE903403E48FDF73AFC2803009047
:10466000CDE901743C4869460394FDF731FC4FF4F1
:10467000BC400090CDE9015437486946CDE9034A72
:10468000FDF726FC00976946CDE901543048CDE995
:104690000345FDF71DFC2803009036486946CDE927
:1046A00001042B48FDF714FCC020694602AACDE99D
:1046B00000052D4882E85002FDF70AFC1020029404
:1046C000CDE900050A206946CDE903602248FDF7DF
:1046D000FFFBC8200090CDE901742048694603948F
:1046E000FDF7F6FB4FF4F8606946CDE90006224875
:1046F0000294FDF7EDFB05200294CDE900050A20A8
:104700006946CDE903601848FDF7E2FB32200294C8
:10471000CDE900050B206946CDE903601248FDF79D
:10472000D7FB02AA0F48694682E85008CDE9008508
:10473000FDF7CEFB4FF46050694602AACDE90005B3
:10474000024882E8500819E030380240000C02406C
:104750000020024000280240001C024000180240D5
:104760000010024000040240000802400000024025
:10477000002402400000121000140240FDF7A8FBC4
:1047800028486946CDE900840294FDF7A1FB862004
:104790000294CDE900050B206946CDE9036022486B
:1047A000FDF796FB009769461F48CDE90164FDF7C8
:1047B0008FFB50200090CDE901541B486946CDE99C
:1047C000034AFDF785FBF101009112211748CDE95D
:1047D0000117CDE903686946FDF77AFB28200090B0
:1047E0000A206946CDE903600F48CDE90154FDF781
:1047F0006FFB40210091CDE901540C486946CDE999
:10480000034BFDF765FB0521B0030090CDE9015492
:10481000CDE9034106486946FDF75AFB07B0BDE8FC
:10482000F08F00000018024000000240001C02400F
:1048300000040240F0B58DB034216846FBF739FD25
:1048400022480024204D2821092240F21526352334
:1048500040F21B1705600B25446040F2352C846044
:1048600040F21D1EC4600461143080E8EE5080F8F0
:10487000204080F8214080F822401438FDF7DAFE0D
:104880004FF4F0704FF488714506CDE90040CDE952
:104890000A0107A8022704970723CDE902414FF434
:1048A000C062694680E82C00FF260848CDE905640F
:1048B0008DF8304000228DF831408DF83240FDF700
:1048C00027FE0DB0F0BD000000680140E8060020A2
:1048D00010B59AB000241C21009412A801940294EF
:1048E0000394049405940694FBF7E3FC2C2107A899
:1048F000FBF7DFFC20481F49C0E900148460C46056
:10490000046144618461FEF72BFE4FF480500090F7
:1049100019486946FEF76AFE1748FFF756F8164829
:1049200004A9049405940694FEF7EAFD602014940B
:10493000CDE912041048002212A915941694179478
:104940001894FEF7AEFF4FF40050079408940994B2
:1049500001030A94CDE90B40CDE90E41064807A9B1
:104960000D9410941194FEF77BFD0348FEF76EFF43
:104970001AB010BD00000140900700200A48002135
:1049800030B4084C0C224FF4E1330460C0E901312B
:10499000C160C0E904128161C1610162416230BC41
:1049A000FFF73BB800100140D0070020FEE770473A
:1049B00070477047F0B5B3B0302121A8FBF779FC00
:1049C00014212DA8FBF775FC84216846FBF771FCC8
:1049D000FDF7CCFF2348016841F080510160006879
:1049E00000F0805032902048016841F4404101605D
:1049F00000680224012600F440403290E0031922AE
:104A0000810113010925CDE9274129A9CDE92160BB
:104A100021A881E83C00FEF737FBFDF771FFE202B9
:104A20004FF4A0510025CDE930122DAA0F20062108
:104A300082E831002DA8FEF71FFA032311954FF4E9
:104A4000A4700090270413954FF4C07168460522A6
:104A5000CDE90514CDE90723CDE90A67FDF78EFFFF
:104A600033B0F0BD4038024000700040104A30B50D
:104A70001048146800210F4B44F47004146008338C
:104A800005680D4A0D4C45F0010505601960036885
:104A9000051D1340074A03600C322C600568E305CE
:104AA000034C25F480250560803C1160236030BDF7
:104AB00088ED00E000380240FFFFF6FE10300024D1
:104AC0000148FEF702BE0000A8270320F0B5274BDF
:104AD0004FF0804E264D02689842264E264F274CB6
:104AE00009D0704507D0A84205D0B04203D0B842E3
:104AF00001D0A04205D1D1F804C022F070024CEAE6
:104B0000020298421BD0704519D0A84217D0B0427B
:104B100015D0B84213D0A04211D0194DA8420ED0E2
:104B2000184DA8420BD0184DA84208D0174DA842E6
:104B300005D0174DA84202D0164DA84203D1CD682A
:104B400022F440722A434D6922F080022A43026017
:104B500098428A68C2620A68826201D0A04201D18A
:104B60000969016301214161F0BD000000000140BD
:104B70000004004000080040000C00400004014018
:104B8000004001400044014000480140001800403E
:104B9000001C00400020004042EA032283680A43D0
:104BA00023F47F410A4382607047826822F07002DA
:104BB0000A4342F00701816070470000F0B5026AC5
:104BC000DFF860C0184F22F00102DFF860E00262F7
:104BD000066A4268836926F002060D68B8428C684E
:104BE00003EA0C0323F0030344EA060445EA030541
:104BF00001D0704505D1CB6824F00804234323F08D
:104C00000404B84201D0704505D122F44076D1E9C0
:104C1000053233431A434260856149684163046247
:104C2000F0BD00008FFFFEFF0000014000040140C6
:104C3000F0B5026A194E1A4C22F01002DFF864E057
:104C40000262056A4368826925F02005D1F808C030
:104C5000A0420F6802EA060222F4407245EA0C15EF
:104C600042EA072201D0704506D1CE6825F08005C2
:104C700045EA061525F04005A04201D0704507D150
:104C8000D1E9054623F4406343EA840343EA8603FB
:104C900043608261496881630562F0BDFF8FFFFE5A
:104CA0000000014000040140F0B5026A194F1A4E9D
:104CB00022F48072DFF864E00262056A4368C26928
:104CC00025F40075D1F808C0B0420C6802EA07026A
:104CD00022F0030245EA0C2544EA020401D07045A3
:104CE00006D1CF6825F4006242EA072222F48065EB
:104CF000B04201D0704507D123F44052D1E90536C6
:104D000042EA031242EA06134360C4614968C16380
:104D10000562F0BD8FFFFEFF00000140000401406E
:104D2000F0B5026A124B114F22F48052984202628F
:104D3000046A4268C36924F400548E680D6803EA6B
:104D4000070323F4407344EA063443EA052302D000
:104D5000084DA84204D14D6922F4804242EA8512EE
:104D60004260C361496801640462F0BDFF8FFFFEC9
:104D70000000014000040140F0B5026ADFF844C0C1
:104D800022F480320262056A4268446D25F40035DF
:104D90000E8960450C4F0B6804EA070445EA064596
:104DA00043EA040302D0094CA04204D14C6922F426
:104DB000803242EA042242604365496881650562A7
:104DC000F0BD0000000001408FFFFEFF0004014025
:104DD000F0B5026ADFF844C022F480120262046A6D
:104DE0004268436D24F400140E8960450C4F0D6831
:104DF00003EA070344EA065443EA052302D0094DB7
:104E0000A84204D14D6922F4802242EA8522426000
:104E100043654968C1650462F0BD000000000140BF
:104E2000FF8FFFFE0004014010B5036A046A23F0FF
:104E30000A0324F00104046284690B4324F0F001A6
:104E400041EA02118161036210BD10B5036A23F0CB
:104E5000100303628369046A23F4704324F0A004FE
:104E600043EA0232826144EA0111016210BDFCF79B
:104E7000C3BF00000148FFF721B80000E827032066
:104E80003EB50124002202AB8DF80820CDE90034A4
:104E90000A46234601460348FFF7CAF89DF8080072
:104EA0003EBD0000E827032007B5012382B004AA15
:104EB000CDE900230A4601460248FFF7CEF805B0C7
:104EC00000BD0000E827032090F82410C90706D091
:104ED0000168836A4A6822F400321A434A6090F8F3
:104EE0002410890706D50168C36A4A6822F4803213
:104EF0001A434A6090F82410490706D50168036BED
:104F00004A6822F480221A434A6090F82410090764
:104F100006D50168436B4A6822F400421A434A608E
:104F200090F82410C90606D50168836B8A6822F4BC
:104F300080521A438A6090F82410890606D50168C9
:104F4000C36B8A6822F400521A438A6090F82410D6
:104F5000490611D50168036C4A6822F480121A438D
:104F60004A60016CB1F5801F06D10168436C4A6844
:104F700022F4C0021A434A6090F82410090606D5AC
:104F80000168826C486820F4002010434860704734
:104F900038B500250446C567FDF78CF80346206840
:104FA000006800070BD56FF07E400090002220467D
:104FB0004FF4001100F034F908B1032038BD20206F
:104FC000606784F87050A067002038BD2DE9F0417B
:104FD00004468068DFF818C2864F2368D4E904527B
:104FE000E16928431E6800250A438349104306EA05
:104FF0000C0606431E604FF400422068E6684368D2
:1050000023F44053334343602368A669206AD3F8EE
:1050100008C030432CF4306606439E602068B842D6
:105020000AD1086810F0030052D001287BD0022872
:105030007AD003286ED186E0704B98420AD1086876
:1050400010F00C0079D004287BD0082877D00C28E9
:1050500060D178E06A4B98420AD1086810F03000BD
:105060006BD010286DD0202869D0302852D16AE04A
:10507000644B98420AD1086810F0C0005DD0402807
:105080005FD080285BD0C02844D15CE05E4B984262
:105090000DD1086810F440704FD0B0F5807F50D02B
:1050A000B0F5007F4BD0B0F5407F33D14BE0574B8C
:1050B00098420FD1086810F4406009D0B0F5806FB5
:1050C0003FD0B0F5006F3AD0B0F5406F22D13AE052
:1050D000012120E04E4B98420DD1086810F4405059
:1050E0002BD0B0F5805F2CD0B0F5005F27D0B0F5A5
:1050F000405F0FD127E0474B98420BD1086810F46E
:1051000040401AD0B0F5804F1BD0904217D0B0F578
:10511000404F18D01021E0694FF6EF76904238D119
:1051200009295DD202E00CE009E006E0DFE801F0C9
:105130000D1027582A5858582D000021EBE702215E
:10514000E9E70421E7E70821E5E7FDF74BFF01E088
:10515000FDF758FF0146D4F80400490001EB500167
:10516000B1FBF0F080B2A0F11001B14238D84FF697
:10517000F0732168C0F342021840104324E026492E
:105180006068EBE7FDF74EFFE4E760684FF48031BD
:10519000E4E7092924D2DFE801F0050819231C23DC
:1051A00023231F00FDF71EFF01E0FDF72BFF014643
:1051B000D4F8040001EB5001B1FBF0F080B2A0F193
:1051C0001001B1420CD82168C8600AE01349606838
:1051D000F0E7FDF727FFEAE7606802EB5001EBE735
:1051E00001250020206660662846BDE8F0810000A9
:1051F000F369FFEF00100140903802400044004086
:1052000000480040004C00400050004000140140A5
:1052100000780040007C00400048E8010024F400D1
:105220002DE9F041984617460E460446069D08E0D3
:10523000681C06D0FCF73EFFA0EB0800A8420BD884
:1052400055B12068C06936EA000017D00020B84286
:10525000EED00020BDE8F0812168202000220B68FC
:1052600023F4D0730B6021688B6823F001038B60FB
:105270006067A067032084F87020EBE70120E6E771
:10528000FEE700000FB4054B10B503A9044A0298CD
:1052900000F04AFB10BC5DF814FB0000A968000890
:1052A000340600204100080218BF04200A0E18BF6F
:1052B00040F001004FF07F4232EA010108BF40F0A8
:1052C0000200012808BF05207047090700284FEA9F
:1052D000116104DB00F1E02080F80014704700F059
:1052E0000F0000F1E02080F8141D704710B510EE9B
:1052F000104A4FF019406849002200EB44002DEDA0
:10530000028B884257D8DFED650A14F0004F60EE3B
:10531000200A14BFBEEE001AB6EE001A71EE200A83
:10532000FDEEE00A10EE900A00EE900AF8EEE00AB8
:105330009FED5B1A00EEC10A9FED5A1A00EEC10AFA
:10534000DFED590A9FED591A00EE201ADFED580AD9
:1053500040EE010A9FED571A574B00F0030100EE93
:10536000201A21EE000A7B4403EB8103D3ED000AEF
:10537000524B7B4403EB810393ED001A504B41EEFB
:10538000000A7B4403EB8101801091ED000A70EE6E
:10539000800AEABB00EE100AB8EEC01ADFED491A27
:1053A0009FED490ABDEC028B01EE210ABCEEC00A5A
:1053B00020EE200A10BD4FF0FF40A0431BD04FF05D
:1053C000CE40B0EB440F82BFB7EE000ABDEC028BBB
:1053D00010BD3E48B0EB440F28BF012293D20220FB
:1053E00000F09CF814F0004F15D0BDEC028BBDE826
:1053F000104000F07BB814F5000F02BF9FED340A97
:10540000BDEC028B10BDBDEC028BBDE8104000E08E
:1054100007E000F05FB8BDEC028BBDE8104000F083
:105420005DB800EBD07359104FF07E5202EBC151C2
:1054300000EE101AA0EB630002EBC05060EE200AF1
:1054400000EE100A20EE208A18EE100A88B118EE3D
:10545000100AB0F1FF4F15D018EE100AFFF722FF27
:10546000042808BF00F042F8B0EE480ABDEC028BF9
:1054700010BD022000F052F8BDEC028BBDE81040D8
:1054800000F034B8022000F049F8BDEC028BBDE812
:10549000104000F023B800000000501E3BAAB840A6
:1054A0000070313EF4FD053712BB2A3D12BB2A3E87
:1054B000FFFFFF3EFFFF7F3FCE5D0400D25D040093
:1054C000A25D04000000004B00007E4E0000A0859D
:1054D0000000000030EE000A704700009FED020A55
:1054E00020EE000A70470000000000709FED020AE5
:1054F00020EE000A704700000000001002E008C81B
:10550000121F08C1002AFAD170477047002001E03D
:1055100001C1121F002AFBD1704700000149086039
:1055200070470000380600202DE9FF5F82B000219F
:10553000DDE90430020DDDF840B0034318D044F635
:105540001050A2F2FF3242431514119801281FD0C7
:10555000A5EB0B00401C5FEA000A4FF000064E4F1F
:10556000DFF83891B046504615D5CAF1000413E073
:10557000119801244AA3012801D16FEA0B01029876
:10558000119AC0E90031C0E9024206B0BDE8F09FBF
:10559000CBF10000DFE704460021404A491842EB06
:1055A0000450CDE9001012E0E00707D032463B4638
:1055B00040464946FAF775FF8046894632463B46E3
:1055C00010461946FAF76DFF06460F466410002C88
:1055D000EAD1DDE90401DDE90023BAF1000F06DAC2
:1055E000FAF75FFF42464B46FAF75BFF05E0FAF732
:1055F000CAFF42464B46FAF7C6FF04460E46002253
:10560000284BFBF747F803D84FF0FF30014607E07F
:105610000022254B20463146FAF79CFEFBF722F884
:10562000102409E0002C0ADB0A220023FAF7E8FD27
:10563000039B30321A55641E50EA0102F2D1641CF9
:10564000039AC4F111031444119A012A03D00122D0
:1056500008430DD10AE0084304D000204FF0110B9D
:10566000119072E7A3EB0B056D1E0DE05B4504DDA9
:105670004FF0000205F1010504E003DA4FF00002EB
:10568000A5F10105002AECD002981199C0E9023178
:10569000C0E9004579E70000000014400000F03F39
:1056A000300000000000F0430000E03F2DE9FC5F07
:1056B0000400934688460AD0217A0020E76B608276
:1056C0002082C843800705D030221121D3E000207A
:1056D000BDE8FC9FB8F1000F6AD03889002867D078
:1056E00038680026B8F80490056853E078680068C8
:1056F00000EB061ACDB3BAF1000F59D006EB8600C5
:1057000008EB8001CDE900102A68B1F808C0C8880C
:10571000E646CB6851680CFB00FC0CFB03FC8C4597
:1057200013D8D5F810C084450FD1D5F80CC0F44576
:105730000BD1A868984208D1106800F0DFFC2A6AF3
:10574000014628695043814202D21822122192E078
:105750002868006800F0F4FC0199C00158F8211095
:10576000B0EBC11F02D01922F0E721E000980069D8
:10577000F0B100988088E8B14845494600D2084613
:10578000009981462A46504600F079F83868761C20
:1057900050F826503889B042A8D8BBF1000F0BD082
:1057A000E66BB08A0C3648B13068002705685AE0CD
:1057B0001722CBE72122C9E7012089E7182259E007
:1057C0007068006800EB0718ADB3B8F1000F33D074
:1057D00007EB87000BEB8001CDE900102A68B1F8D8
:1057E00008C0C888E246CB6851680CFB00FC0CFB83
:1057F00003FC8C45E2D8D5F810C08445DED1D5F83D
:105800000CC0D445DAD1A8689842D7D1106800F00E
:1058100075FC2A6A296951438842CFD328680068F9
:1058200000F08EFC0199C0015BF82110B0EBC11FA4
:1058300004D019221EE0FFE717221BE00098006940
:105840000028F9D00098808898B14845494600D290
:105850000846009981462A46404600F010F8306814
:105860007F1C50F827503089B842A9D8A4F810906E
:10587000A2E721221321204600F0E7FE27E730B5FA
:105880001469136A5C4384608B886343C3600C694A
:10589000446009691944016011680B689B0007D4D2
:1058A000D1E902355B1B23448B6011684068C860F6
:1058B00030BD2DE9F04106460068002501682EE064
:1058C000726808681368026803EB051492000FD52C
:1058D0008168D4E90102FAF7D3FCD4E90101084454
:1058E00060602168884201D3E068081A606012E0B5
:1058F000D4E90020A36818446060904201D3E068B6
:10590000101A60600A68D2E90237DB1B1844906005
:1059100009686068C8606D1C306850F825103089CF
:10592000A842CDD8BDE8F0812DE9FF4F95B09B4648
:105930008946064600250FE2252877D10024274610
:10594000F84A0121059400E0044316F8013F203B8A
:1059500001FA03F01042F7D130782A2811D06FF005
:105960002F033078A0F13002092A16D8059A44F0A6
:10597000020402EB820203EB42021044761C059003
:10598000EFE759F8042B0592002A03DA504244F459
:105990000054059044F00204761C30782E2816D16D
:1059A00016F8010F44F004042A280DD06FF02F02DE
:1059B0003078A0F13003092B09D807EB870302EBFD
:1059C0004303C718761CF3E759F8047B761C30783C
:1059D0006C280FD006DC4C2817D068280DD06A2818
:1059E00014D104E0742810D07A280FD10DE044F4CB
:1059F00000140AE044F4801401E044F44014727886
:105A0000824202D104F58014761C761C3078662818
:105A10000BD013DC582877D009DC002875D0452836
:105A2000F6D04628F4D047281AD19DE118E0632823
:105A300035D0642879D0652812D195E1702873D0CB
:105A400008DC6728F1D069286FD06E280DD06F2848
:105A500006D1B5E073282CD0752875D0782874D07D
:105A60005A46179990476D1C75E1C4F302500228FD
:105A700009D003280DD0D9F8001004280DD00D60EE
:105A800009F1040967E1D9F80010EA17C1E90052E9
:105A9000F6E7D9F800100D80F2E70D70F0E719F87D
:105AA000041B8DF8001000208DF80100EA4601204B
:105AB00003E059F804AB4FF0FF3061074FF00001ED
:105AC00002D40DE008F101018846B9420FDA8045A1
:105AD000F8DB1AF808100029F4D108E008F10101F8
