:020000040800F2
:1000000078090020DD010008AF3A00089D300008A3
:10001000AD3A0008D50B0008254400080000000098
:10002000000000000000000000000000B33A0008DB
:10003000F50C000800000000B13A0008F5010008C6
:10004000F7010008F7010008F7010008F7010008B0
:10005000F7010008F7010008F7010008F7010008A0
:10006000F7010008F7010008F7010008F701000890
:10007000F7010008F7010008F7010008F701000880
:10008000F7010008F7010008F7010008F701000870
:10009000F7010008F7010008F7010008F701000860
:1000A000F7010008F7010008BD3B0008F701000850
:1000B000F7010008F7010008F7010008F701000840
:1000C000F7010008F7010008F7010008F701000830
:1000D000F701000819440008F7010008F7010008BB
:1000E000F7010008F7010008F7010008F701000810
:1000F000F7010008F7010008F7010008F701000800
:10010000F7010008F7010008F7010008F7010008EF
:10011000F7010008F7010008C93B0008F7010008D3
:10012000F7010008F7010008F7010008F7010008CF
:10013000F7010008F7010008F7010008F7010008BF
:10014000F7010008F7010008F7010008F7010008AF
:10015000F7010008F7010008F7010008F70100089F
:10016000F7010008F7010008F7010008F70100088F
:10017000F7010008F7010008F7010008000000007F
:10018000F7010008F7010008F7010008F70100086F
:10019000F7010008F7010008F7010008F70100085F
:1001A00021310008F7010008D90B0008F701000809
:1001B000F7010008F7010008F7010008F70100083F
:1001C000F7010008F7010008DFF80CD000F0A2F8F2
:1001D00000480047B94600087809002006488047D3
:1001E00006480047FEE7FEE7FEE7FEE7FEE7FEE71C
:1001F000FEE7FEE7FEE7FEE7693B0008C9010008ED
:100200002DE9F05F0546002092469B46884606464B
:10021000814640241BE0284641464746224600F0DE
:1002200069F853465A46C01A914110D311461846F0
:10023000224600F050F82D1A67EB01084F4622467F
:100240000120002100F047F817EB00094E41201E65
:10025000A4F10104DFDC484631462A464346BDE8A6
:10026000F09F40EA01039B0703D009E008C9121F71
:1002700008C0042AFAD203E011F8013B00F8013B60
:10028000521EF9D27047D2B201E000F8012B491E8C
:10029000FBD270470022F6E710B513460A46044623
:1002A0001946FFF7F0FF204610BD30B50B4601465A
:1002B00000202022012409E021FA02F59D4205D305
:1002C00003FA02F5491B04FA02F52844151EA2F1AF
:1002D0000102F1DC30BD202A04DB203A00FA02F1F1
:1002E000002070479140C2F1200320FA03F3194324
:1002F00090407047202A04DB203A21FA02F00021C6
:10030000704721FA02F3D040C2F120029140084325
:1003100019467047064C074D06E0E06840F00103BF
:1003200094E8070098471034AC42F6D3FFF750FF2B
:1003300088630008A86300081CB5044600F09AF919
:10034000034600F087F902460020CDE90004064884
:10035000064C806800EB800101EBC00104EB8101D9
:10036000C96D02F09DFE1CBD000000209C01002014
:100370002DE9F041134D0646134CA86800EB4000F0
:1003800004EB800154F82070496844F8201000F014
:1003900061F982B2A86800EB400004EB800080683D
:1003A000C38803FB06F081B2002000F0F7F8A868CC
:1003B00000EB400044F820703846BDE8F04100F002
:1003C000C7BA000000000020840200200648C023B5
:1003D00030B408240522046061034361C261C16234
:1003E00030BC01F0E3BB00005800002030B40A4CE0
:1003F0000A4BA46804EB440403EB84039B689C88C9
:100400001D68E41DDB88E408203A14FB02F203FBBC
:10041000025230BC00F070BC0000002084020020BA
:10042000094810B50068816941F00101816101222C
:100430000648110301F02AF901220548BDE81040E1
:10044000082101F023B900009C0100200020024097
:10045000002802402DE9F04700270446154689464A
:1004600010463A4600E0521C10F8011B0029FAD150
:1004700000F0F0F8DFF89CC0012B274EDCF80810E4
:1004800001EB410106EB810189688988B0FBF1F03D
:1004900002D0022B09D104E0801A484304EB50003B
:1004A00002E0801A4843001B84B247F6FF71601EC9
:1004B000884200D30124E04600F0CCF80146D8F889
:1004C000080000EB400006EB80008068808807FB96
:1004D000101189B2814213D3012012E0494620460F
:1004E000FFF784FFD8F808007F1CBFB26D1C00EB3B
:1004F000400006EB800080688088204484B2DBE7FF
:1005000000202A780AB1012100E000210842E5D14B
:10051000BDE8F08700000020840200200A46034660
:1005200010B500F089F8C088BDE810405843032397
:1005300081B20020FFF78EBF164B70B506460D4600
:100540009868154C00EB800101EBC00004EB8000C3
:10055000806C02280ED000F07DF8996805FB0060E1
:1005600001EB810303EBC10104EB8101C96D41F88B
:10057000202070BD00F06EF8996805FB006001EB6B
:10058000810303EBC10104EB8101C96D21F8102047
:1005900070BD0000000000209C0100202DE9FC41FE
:1005A0009846234B0746234E15460C46986800EBA9
:1005B000400056F8200000F0CBF99868A6F1E80258
:1005C00000EB800101EBC00002EB8000806C022890
:1005D0001FD000F03FF8996800FB047001EB810424
:1005E00004EBC10102EB8101C96D01EB800400BF86
:1005F00000F030F8411B9868434600EB400256F883
:100600002220CDE900122A46214602F049FDBDE82C
:10061000FC8100F01FF8996800FB047001EB810475
:1006200004EBC10102EB8101C96D01EB4004DFE77E
:10063000000000208402002004480549806800EB87
:10064000400001EB8000806870470000000000203F
:10065000840200200548806800EB800101EBC000A7
:10066000034901EB8000006E70470000000000208D
:100670009C0100200548806800EB800101EBC00070
:10068000034901EB8000406E70470000000000202D
:100690009C0100202DE9F041224C2820092140F244
:1006A0001B1604F1140840F21525352240F21D1CDA
:1006B0000B2340F2352788E8EF1000212046FFF792
:1006C00085FE4FF4F07222664FF488716166002057
:1006D00084F8340084F8350084F836006060A06047
:1006E000114AE06022602061204601F053F818B9F9
:1006F0000021204600F05EF80A4801F0B3F801221C
:100700000A48110300F0C2FF09480122082100F045
:10071000BDFF00F029F9074800F0F6F80020BDE819
:10072000F08100009C010020006801400020024090
:10073000002802403400002070B58EB00A46002325
:1007400004460093FFF786FFCDE90103FFF792FF10
:10075000FF25039007208DF83030022109928DF893
:1007600031304FF4C066CDE9041506938DF8323070
:10077000CDE90760FFF76EFF0A90FFF77BFF0B9054
:1007800022460A48694600F0DBFF084804EB4401B2
:100790004FF0FF34E83000EB810223065460044C34
:1007A000946040F821300EB070BD00009C01002024
:1007B000340000204748F0B5016887B041F08061FF
:1007C0000160006800F080600590424814380168BC
:1007D00041F400010160016801F400010591016824
:1007E00041F010010160016801F0100105910168FC
:1007F00041F040010160016801F04001059101688C
:1008000041F480710160016801F480710591016813
:1008100041F400710160016801F400710591016803
:1008200041F480610160016801F480610591016813
:1008300041F480710160016801F4807105910168E3
:1008400041F480610160006802240E2500F480609C
:1008500005901020CDE9000402A8002180E83200B4
:100860001D48694600F01AFEE60269460920049018
:100870001A48CDE9006400F011FE194F4FF46640AC
:10088000CDE9000469463846049500F007FE4EF6AF
:10089000FF706946CDE900041248049500F0FEFDA2
:1008A0000495F720104D6946CDE90004284600F074
:1008B000F5FD012469463846CDE9006400F0EEFDFF
:1008C00008206946CDE90004284600F0E7FD07B09E
:1008D000F0BD000044380240001002400018024001
:1008E0000020024000240240002802400449054A3A
:1008F000896801EB410102EB81014860704700000B
:1009000000000020840200200449054A896801EBA8
:10091000410102EB81018860704700000000002067
:1009200084020020094A8423012903EBC0101168C6
:100930000B5808D023F001030B501068416A41F0B6
:1009400001014162704743F00103F5E79C0100207B
:100950000349044A896801EB410142F821007047CC
:1009600000000020840200201B4802222DE9F041F3
:1009700000F13401174E07230660042581E82C009E
:10098000CB6000240A61D7014A6110238A61910279
:1009900044604026C0E902454A00C0E90741C0E979
:1009A00009241030002180E8C800103800F05EF8FB
:1009B00009490948343101F01BFE084D10B10120EE
:1009C000E87000E0EC7040F2036000F009F8E878AD
:1009D000BDE8F081400100A09C0200200000002042
:1009E0002DE9F843204C102700254FF6FF7801260B
:1009F000009521468146C4E90067C4E90265A1F17A
:100A00005000424601F028FE012000F0DBFC0220ED
:100A10002146C4E90007C4E90265A1F1500042463D
:100A200001F01AFE03214246C4E9001708202146BE
:100A3000C4E90205A1F1500001F00EFE4FF4087068
:100A4000009004214246C4E90260C4E9001721462F
:100A5000A1F1500001F000FEA4F150004946BDE8AC
:100A6000F84301F0E8BD0000EC020020F0B50446B8
:100A70004F4887B0016841F00101016000684C49AE
:100A800000F0010005900839086840F48000086013
:100A9000086800F480000590086840F004000860D1
:100AA000086800F004000590086840F0080008603D
:100AB000086800F008000590086840F01000086021
:100AC000086800F010000590086840F020000860F9
:100AD000086800F020000590086840F040000860B9
:100AE000086800F040000590086840F08000086049
:100AF000086801210C2200F0800005900220CDE959
:100B0000010108230093CDE903022A48694600F059
:100B1000C5FC4CF2037000902748694600F0BEFC0B
:100B20004FF6837000902548694600F0B7FC4FF6F9
:100B30003F0000902248694600F0B0FC48F23310B4
:100B400000902048694600F0A9FC282000901E482B
:100B5000694600F0A3FC1D494FF4007500224FF0D8
:100B6000800CEE006F004A606801C1E902C5C1E96E
:100B700004761831164EC300032581E80D00C1E943
:100B800003254A618A6141F8186D21630F488C631F
:100B900000F075FB0D4800F0A3FB00220F21382068
:100BA00000F094FF382000F083FF07B0F0BD000094
:100BB0003838024000080240000C02400010024099
:100BC0000014024000180240001C0240DC0000201B
:100BD00010640240FEE70000014800F0C3B90000C5
:100BE0005C030020F0B5059C44EA034503685C6C97
:100BF00004F040442C435C640368DA634268B2F555
:100C0000403F02D00068C160F0BD01F47F428568BA
:100C100001F47F04224301F07F4301F47F0701F4D4
:100C20007F46CCB2BDB1012D16D001F47F02C1F3D5
:100C3000C401D20C022D11D0032D14D0320B390D6A
:100C400015011A0F45EA0123210943EA02320A433A
:100C500000688263F0BD1A432243F9E7B30A5B01DF
:100C600043EAC222F3E7F40ADB0F640144EA82227A
:100C700042EAC332EBE7000001681823CAB2103A17
:100C8000B2FBF3F2054B6FF30901032A9B5CC365CA
:100C900000D9091D81650846704700006863000897
:100CA00010B583694FF0C074826A0146002053B1C9
:100CB000B3F5005F15D072B1012A0CD0022A0AD018
:100CC000032A09D104E01AB1012A06D0022A03D16D
:100CD000C96AC90100D5012010BDC96AA142FAD074
:100CE00010BD002AF7D0012AF2D0022AF3D0032A3D
:100CF000F3D010BD704700002DE9F74F29480026BA
:100D0000DFF89CA0806800EB40000AEB8000806860
:100D10008588C788E81D834620F00700401B00F047
:100D2000FF0939E04FEADB010298012901FB0600C7
:100D300009D0022909D0017842788378080440EA72
:100D40000220184303E0007801E0008840BA002444
:100D500080461AE02A1B02EB09010120491E884047
:100D600010EA080F009800EB04020E48816890B268
:100D700001EB410202D05AF8222002E00AEB820184
:100D80004A680199FFF7D8FB641CAC42E2D3019892
:100D9000401C80B20190761CBE42C3D3BDE8FE8FDA
:100DA00084020020000000207047F0B5D1E9012541
:100DB000D1E90343D1E905762A43D1F800C044EADA
:100DC0000304D1E9073542EA0402496A42EA07020C
:100DD000BCF1010F42EA060208D004681A432A4314
:100DE0000A43E30BDB031A4302600BE00668446826
:100DF0002B4326F4F84529430B4303606FF30E049D
:100E0000224342600020F0BD426942EA4101416153
:100E10000020704738B591E81C00C9686FF01F05C5
:100E20001A4305EB441444EA41210A43009202614B
:100E3000002038BD2DE9F043914691E81C006FF089
:100E40000F05521E2E0105EB03131A430B7E06EB12
:100E500004268C8A2F034FEA054C0D8A32434FF04B
:100E60007F4808EB0366CB68B9F1010F07EB054536
:100E70000CEB04540CD081683F1107EB03331A4389
:100E80002A432243324301F070410A43826011E059
:100E90008168DFF828C0C7681B03A3F5805323438C
:100EA0002A4301EA0C0132430B43836007F070448C
:100EB0002243C2600020BDE8F0830000FF0F0FFF57
:100EC0007047000070B590F83820012A23D0244CD8
:100ED000012680F83860022300EB011280F83930D7
:100EE000158CD36918320A2B43EA054515D0092B16
:100EF00013D0137B45EA0363056899B1E969A143FF
:100F00001943E961016813680B6151680A291BD014
:100F1000092919D01DE0022070BDD36803F07F437A
:100F20002B43E9E7696AA1431943696201681368C1
:100F30008B6151680A2901D009290AD1D168026858
:100F400021F07F41916204E0D168026821F07F4185
:100F50001162002180F8396080F83810084670BDB1
:100F60000F0003FF2DE9F0470446006800274FF00B
:100F700004084FF0010946680568F10714D0E90537
:100F800012D5036823F480730360E06B40F0010026
:100F9000E0632068C0F8089084F8398084F83870DD
:100FA000616909B120468847B00615D5A80413D554
:100FB00020682022036823F40053036020688260C5
:100FC000E06B40F00200E06384F8398084F8387008
:100FD000616909B120468847300715D5280513D522
:100FE00020680822036823F400630360206882609D
:100FF000E06B40F00400E06384F8398084F83870D6
:10100000616909B12046884770070CD568050AD583
:101010002068026822F4806202602068C0F80880BC
:10102000204600F05AF8B00713D5A80511D520685E
:101030000222036823F40073036020688260E06B7F
:10104000E06384F8399084F83870216909B120464A
:101050008847F00612D5E80410D52068016821F40D
:1010600080510160226810219160E16BE16384F896
:101070003990204684F83870FFF722FFBDE8F087EA
:1010800070B5040004D094F83900002510B106E0D2
:10109000012070BD204684F8385000F01FF802206F
:1010A00084F83900D4E900030121026822F44032B7
:1010B0001A4302602068A368426B22F007021A43B9
:1010C00042632068E368026C6FF30D021A43026406
:1010D000E56384F83910002070BD704708B50068DA
:1010E0000B49884212D10B48016841F400010160AC
:1010F00000680022114600F4000000905A2000F021
:10110000E5FCBDE808405A2000F0D2BC08BD000054
:1011100000B00240303802402DE9F8430026044672
:1011200004270D4600964FF0030800680068C007CA
:1011300026D000F0B1FA81461EE04068009010F021
:10114000210F10D00098800603D5E06B40F002001C
:10115000E0630098C00703D0E06B40F00100E0635B
:101160002168212035E0681C06D000F095FAA0EB3C
:101170000900A8424DD8A5B3206841688907DCD58D
:101180002068C169406A01F0200100F02000084396
:1011900035D000F081FA81462DE04068009010F0D3
:1011A000290F1FD00098000703D5E06B40F0040022
:1011B000E0630098800603D5E06B40F00200E06336
:1011C0000098C00703D0E06B40F00100E0632168A5
:1011D0002920886084F83970012084F83860BDE8DF
:1011E000F88316E0681C06D000F056FAA0EB090060
:1011F000A8420ED86DB120684168C906CDD52268D5
:1012000012210120916084F83900002084F83860B0
:10121000E5E7E16B84F8386041F02001E16384F890
:1012200039800320DBE7F8B50446069894F8385077
:10123000012D10D0012684F83860022584F8395039
:1012400000902046FFF7CEFC2068016841F00101C4
:1012500001600020F8BD0220F8BD90F83510022989
:1012600003D08021416501207047052180F83510A9
:101270000068016821F0010101600020704770B52D
:1012800004002BD094F83500022826D020680025D1
:101290002122016821F001010160206805602068B9
:1012A0004560206885602068C56020680561206809
:1012B00042612046FFF7E0FC94F85C203F2191401A
:1012C0008160E56325646564A564E56425656565FD
:1012D00084F83550002084F8345070BD012070BD72
:1012E0002DE9F047044600F0D7F9054664B14FF008
:1012F000000984F83490022184F8351020680168D0
:1013000021F0010101600EE00120BDE8F08700BF7F
:1013100000F0C2F9401B052805D920216165032092
:1013200084F83500F1E720680068C007F0D1D4E9FF
:101330000020D4E90251D4E9043C284304F1180503
:1013400019430843116895E8E00140EA0C001C4B82
:101350002843194040EA060040EA0700B8F1040FAC
:1013600040EA010003D1D4E90B131943084310608C
:1013700020680126656A4069042D20F0070045EACF
:1013800000050CD1D4E90A01054341B12046FFF71D
:1013900087FC20B14020606584F83560B4E72068A0
:1013A00045612046FFF768FC94F85C303F229A4084
:1013B0008260C4F8549084F835600020A5E70000EE
:1013C0003F8010F070B5044600F066F90546601CD9
:1013D00002D004480078044400F05EF9401BA042AB
:1013E000FAD370BD44000020F0B587B014216846E0
:1013F000FEF750FF2148016800293CD1012101601E
:101400001F48016841F001010160006802240025C5
:10141000694600F00100059003264FF683700C2703
:101420008DE8F100174800F039F848F233106946AA
:101430008DE8F100144800F031F84CF20370694671
:101440008DE8F100114800F029F84FF63F00694699
:101450008DE8F1000E4800F021F8282069468DE85B
:10146000F1000C4800F01AF8082069468DE8F100F8
:10147000094800F013F807B0F0BD00003C00002060
:10148000383802400010024000180240000C0240B0
:1014900000140240001C0240000802402DE9F84FF1
:1014A000DFF89CE100224FF001084FF0030B4FF0F2
:1014B0000F0A00BF0B6808FA02F42340A34271D15F
:1014C0004D68022D01D0122D0FD1D5080E69570796
:1014D00000EB8505A9462D6AFF0E0AFA07FCBE40FF
:1014E00025EA0C052E43C9F820600F7955000668DF
:1014F0000BFA05FC07F0030726EA0C06AF4037435A
:1015000007604E68012E05D0022E03D0112E01D0A7
:10151000122E0ED18668CF6826EA0C06AF403743FC
:10152000876046680F79A643C7F300179740374393
:101530004760C4688E6824EA0C04AE402643C66047
:101540004C68E40075D53F4C256845F4804525601E
:10155000246822F00306950704F4804400943A4C72
:101560002D0F2644D6F80848DFF8E0C00AFA05F740
:10157000604524EA070401D100272EE0344FB84229
:1015800001D1012729E0334FB84201D1022724E0DD
:10159000314FB84201D103271FE0304FB84202D18A
:1015A00004271AE045E02E4FB84201D1052714E088
:1015B0002C4FB84201D106270FE02B4FB84201D182
:1015C00007270AE0294FB84201D1082705E0284F34
:1015D000B84201D1092700E00A27AF4027437546EA
:1015E000C6F808784E68DEF80040F60324EA0304E3
:1015F00000D51C43124E2C60361D4D683468AD0377
:1016000024EA030400D51C430D4F346008374D68AD
:101610003C68ED0224EA030400D51C43084D3C60FD
:101620000C354E682C68B60224EA030400D51C432E
:101630002C60521C102AFFF43DAFBDE8F88F00006B
:10164000003C0140443802400030014000000240AC
:101650000004024000080240000C0240001002405A
:101660000014024000180240001C0240002002400A
:10167000002402400069084000D001207047426900
:1016800031EA020200D10904816170470AB1816127
:1016900070470904FBE700000148806870470000BC
:1016A000440000200248816802781144816070473C
:1016B00044000020032010B500F028FA002000F0BC
:1016C00005F800F0DDF9002010BD000010B5002283
:1016D0000146362088B000F0F9F9362000F0E8F92C
:1016E0001348016841F010010160006805A900F08D
:1016F00010000690684600F06DFD00F08BFD0D496E
:10170000400000220C4CB0FBF1F10C4840F2E733F2
:101710000460C0E90332491EC0E9011201F038F843
:1017200010B1012008B010BD044801F06BF8F9E7D2
:101730004038024040420F000010004038050020B1
:101740002DE9F041044690F8A00016460F46012806
:101750001DD0012584F8A050022084F8A10006EBDA
:10176000860000EBC600342204EB80003830FEF720
:1017700078FD32463946204601F0D8FC2168002029
:101780004D6284F8A15084F8A000BDE8F0810220E9
:10179000FBE7704790F8A10070472DE9F04104463F
:1017A000006800274FF00408856B466B690715D564
:1017B000710713D5426B22F0040242632068C0F81F
:1017C0003C80D4F8A40040F00100C4F8A40084F8E0
:1017D000A180204684F8A070FFF7DBFFA80716D58C
:1017E000B00714D520680222436B23F00203436341
:1017F0002068C263D4F8A40040F00200C4F8A4003A
:1018000084F8A180204684F8A070FFF7C2FF05EAA3
:1018100006004FF00108C0070ED021684A6B22F085
:1018200001024A632168C1F83C8084F8A180204607
:1018300084F8A07000F092F8280710D530070ED574
:1018400020680822436B23F0080343632068C263C7
:1018500084F8A180204684F8A07000F00FF9BDE85C
:10186000F08100002DE9F041040004D094F8A100BB
:10187000002518B107E00120BDE8F081204684F87A
:10188000A05000F06DF83448022184F8A110012224
:1018900002CC8B6923F070438B6194E84A001943B2
:1018A000E3681E4354F8043D31439E693143996116
:1018B00021688B6803408B602168A68AA7698B68C2
:1018C0003B4343EA06438B602168CB680340CB600F
:1018D0002168A38B276ACE683E4346EA0346CE6062
:1018E00021680B6903400B612368A68CA76A1969FC
:1018F000394341EA0641196121684B6903404B6154
:101900002068A38D266B4169314341EA034141615F
:10191000236894F8351094F83600DE6A000406F067
:101920007F46DE62236840EA012094F83460D96A79
:1019300031430143D9622068416B41F006014163A4
:101940002068816941F001018161C4F8A45084F8E4
:10195000A120002090E7000000F800F07047000090
:1019600070B586B0044614216846FEF793FC3C49E6
:101970002068884272D13B48016841F08061016073
:10198000006800F08060059036481438016841F026
:1019900010010160016801F010010591016841F436
:1019A00000710160016801F400710591016841F462
:1019B00080610160016801F480610591016841F076
:1019C00040010160016801F040010591016841F4A6
:1019D00080710160006800240E26694600F4807062
:1019E00005901020009002251F48CDE90154CDE953
:1019F0000346FFF753FD4EF6FF700090CDE901540A
:101A00001A486946CDE90346FFF748FDF7200090E4
:101A1000CDE9015416486946CDE90346FFF73EFD7E
:101A20000921E8020090CDE90154CDE903411148B4
:101A30006946FFF733FD4FF446400090CDE901546D
:101A40000D486946CDE90346FFF728FD00225820DE
:101A5000114600F03BF8582000F02AF806B070BD9F
:101A60000068014044380240001002400024024057
:101A70000028024000180240002002407047000089
:101A80000A4808B5016841F080510160006800F023
:101A9000805000900548001D016841F480410160BC
:101AA000006800F48040009008BD0000403802400B
:101AB000002809DB410900F01F028900012001F123
:101AC000E0219040C1F80001704700000E4BF0B4D7
:101AD0001B680D46C3F30223C3F10706042E00D989
:101AE0000426191D072901D2002300E0DB1E012472
:101AF00004FA06F19C40491E2940641E9940144096
:101B00002143F0BC02F0B4BC0CED00E0064900F04B
:101B1000070210B54FF6FF040868044B204040EA66
:101B200002201843086010BD0CED00E00000FA052B
:101B30001848F8B5016841F0805101600068164C02
:101B400000F080500090206840F480302060FFF763
:101B5000A3FD4FF47A76054605E000BFFFF79CFD34
:101B6000401BB0420FD86068C003F7D5206840F42E
:101B700000302060FFF790FD054606E0FFF78CFD82
:101B8000401BB04201D90320F8BD60688003F5D541
:101B90000020F8BD40380240007000400248016853
:101BA00041F4807101607047007000402DE9F84FEA
:101BB00004460078DFF824944FF000063746C0074B
:101BC0000ED0D9F8001021F40001C9F80010D9F89E
:101BD0000010626B1143C9F80010606B00B9012658
:101BE000FE4D2068843500030ED5E16B286820F493
:101BF000401008432860E06BB0F5801F01D010B1A1
:101C000002E0012600E0012720684FF4800BC002AB
:101C10000CD5216C286820F4400008432860206C13
:101C2000584501D1012601E000B901272068C10112
:101C300000D50126800666D5E8483830016841F0B5
:101C4000805101600068DFF898A300F08050009098
:101C5000DAF8001041F48071CAF80010FFF71CFD9B
:101C6000804605E0FFF718FDA0EB080064287DD84A
:101C7000DAF80000C005F5D5DFF8608308F16808E0
:101C8000D8F8000010F440702AD0218E01F4407181
:101C9000814225D0D8F80010D8F8002021F44071F6
:101CA00042F48032C8F80020D8F8002022F48032B4
:101CB000C8F80020C8F80010D8F80000C0070FD0FE
:101CC000FFF7EAFC824607E0FFF7E6FCA0EB0A011B
:101CD00041F288308142CAD8D8F800008007F3D595
:101CE000206BC0F3012103297ED0D9F8001021F424
:101CF000F811C9F80010228ED8F80010C2F30B02B8
:101D00001143C8F800102078C00607D5286820F0D5
:101D1000807028602868A16B084328602188AF483C
:101D20008830490405D5626E016821F440311143C1
:101D300001602188090405D5A26E016821F44021C3
:101D4000114301602168C90305D5E26E016821F4E1
:101D50004011114301602168890305D5226F016894
:101D600021F4400111430160217800E018E14906A7
:101D700005D5626C016821F00301114301602178EF
:101D8000090605D5A26C016821F00C011143016020
:101D90002188C90505D5E26C016821F030011143A5
:101DA00001602188890505D5226D016821F0C001F7
:101DB000114301602188490505D5626D016821F450
:101DC0004071114301602188090505D5A26D0168A4
:101DD00021F44061114301602188C90407D5E26DF7
:101DE000016821F4405100E041E011430160218885
:101DF000890405D5226E016821F440411143016038
:101E00002168490205D5A26F016821F08061114364
:101E1000016021684FF0006A890209D5E26F01680C
:101E200021F0006111430160E16F514500D10127AC
:101E300021680A0700D50127490305D5626F0168AB
:101E400021F04071114301602168090206D5D4F8E0
:101E50008020016821F0805111430160DFF88491F6
:101E6000012E0ED02068B0F1007F0AD08FE05E4ACC
:101E7000D9F80030104023F4F8120243C9F80020CA
:101E800039E7D9F800004E4620F08060C9F800001C
:101E9000FFF702FC804605E0FFF7FEFBA0EB080021
:101EA00064287DD830680001F6D421784B487C3016
:101EB000C90712D0616B81B9237A62680168D0F8D2
:101EC00000C09201C1F3014142EA0142CCF3036137
:101ED00042EA016141EA0371016021680A0303D506
:101EE000E26BB2F5801F04D0C9021AD5216C5945A6
:101EF00017D16368016894F80CC002689B01C1F3B4
:101F0000014143EA0141C2F3027241EA0C6141EA34
:101F1000027101602968626A21F01F01521E11439B
:101F200029602168C90110D5238A62680168D0F848
:101F300000C09201C1F3036142EA034242EA016236
:101F4000CCF3027142EA01710160216889010CD56C
:101F50006168228A237B94F808C0890141EA024122
:101F600041EA036141EA0C7101603168B04641F019
:101F700080613160FFF790FB064604E0FFF78CFBC1
:101F8000801B64280CD8D8F800000001F6D56FB388
:101F9000D9F800004E4620F08050C9F8000000E05B
:101FA00079E0FFF779FB074605E000BFFFF774FB18
:101FB000C01B64286FD83068C0438000F6D507483E
:101FC000216880300A0301D5E26B1AB1C90225D518
:101FD000216C19BB63690168277E08E0083802405C
:101FE0000070004000380240FFFCFF0F5AE002681A
:101FF000C1F301419B0143EA0143C2F3027143EA89
:10200000076242EA0171016029686FF0FF03A26A6A
:1020100021F4F85103EB022211432960216889025F
:1020200012D5E16F51450FD1238C626901680768B1
:102030009201C1F3036142EA034242EA0162C7F33B
:10204000027142EA017101602178090716D56169C0
:102050000268D0F800C08B01277FC2F30362CCF383
:10206000014143EA014141EA026141EA077101602D
:102070002868E16A20F4403008432860306840F066
:1020800080503060FFF708FB044607E0FFF704FBD1
:10209000001B642802D90320BDE8F88F3068C043D4
:1020A0008000F3D40020F7E72DE9F04705000F4644
:1020B00063D0444E306800F00F00B84209D2306857
:1020C00020F00F0038433060306800F00F00B84255
:1020D00053D128683C4C810712D5400703D52068AE
:1020E00040F4E05020602878000703D5206840F4D1
:1020F00060402060A968206820F0F000084320605C
:102100002878C0072AD0304968680839012810D0DB
:102110000968022810D0890700292EDA216821F0E9
:10212000030101432160FFF7B7FA804641F2883985
:102130000DE009688903EFE78901EDE7FFF7ACFAE5
:10214000A0EB0801494502D90320BDE8F087686883
:10215000216801F00C01B1EB800FEFD1306800F085
:102160000F00B8420BD9306820F00F0038433060C0
:10217000306800F00F00B84201D00120E5E7287870
:10218000400705D5E968206820F4E0500843206046
:102190002878000706D52869216821F4604141EAC2
:1021A000C000206000F056F82168084AC1F303110E
:1021B000515CC840064908600020FFF787FA0020FC
:1021C000C3E70000003C024008380240706300088A
:1021D000500000200D4A0F2330B503604FF4E05447
:1021E0000B4B156805F003054560156805F0F00513
:1021F0008560156805F4E055C560126804EAD202EE
:102200000261186800F00F00086030BD0838024015
:10221000003C02400449054809680068044AC1F3CB
:102220008221515CC84070470838024050000020AD
:10223000806300080449054809680068044AC1F33E
:102240004231515CC84070470838024050000020BD
:1022500080630008154910B51548096811F00C0293
:1022600013D01449042A0FD0082A0ED10F4C241F72
:102270002268236802F03F025B0207D52068C0F3A2
:102280008810A0FB010106E0084610BD2168C1F3DB
:102290008811A1FB00010023FDF7B2FF2168C1F303
:1022A0000141491C4900B0FBF1F010BD0838024063
:1022B0000024F40040787D012DE9F84F05004FF02F
:1022C00000076ED02878DFF81C93A9F1040AC00734
:1022D000AAF104044CD0D9F800104846C1F381019A
:1022E000012908D00068C0F3810002280AD1DAF879
:1022F0000000400206D52068800339D568680028B0
:10230000DFD035E06868B0F5803F0BD010B1B0F594
:10231000A02F11D0206820F480302060206820F4A5
:10232000802002E0206840F480302060686890B12E
:10233000FFF7B2F906460AE0206840F480202060EA
:10234000F0E700BFFFF7A8F9801B642872D8206867
:102350008003F7D50CE0FFF79FF9064605E000BFC4
:10236000FFF79AF9801B6428F0D820688003F7D41F
:102370002878800742D5D9F80010484611F00C0F94
:1023800008D00068C0F3810002280BD1DAF8000001
:10239000400207D42068800718D5E868012800D1DA
:1023A00014E01CE1E8680028206817D040F0010024
:1023B0002060FFF771F9064605E000BFFFF76CF9F2
:1023C000801B0228C2D820688007F7D528692168B9
:1023D00021F0F80141EAC00020600FE020F0010088
:1023E0002060FFF759F9064605E000BFFFF754F9F2
:1023F000801B02281ED820688007F7D428780007A1
:1024000029D5784869696C3000298046016812D066
:1024100041F001010160FFF73FF9064605E000BF0A
:10242000FFF73AF9801B022804D8D8F8000080078B
:10243000F6D510E089E021F001010160FFF72CF9E9
:10244000064604E0FFF728F9801B02287DD8D8F85B
:1024500000008007F6D4287840076BD5DFF8848128
:1024600008F13808D8F80000C0000BD4D8F80010E4
:1024700041F08051C8F80010D8F80000012700F0A2
:102480008050009058480168C90512D401688346FD
:1024900041F480710160FFF7FFF8064605E000BFD8
:1024A000FFF7FAF8801B64284FD8DBF80000C0055E
:1024B000F6D54C4EA868683601280AD008B1052820
:1024C00011D0306820F001003060306820F0040046
:1024D00002E0306840F001003060A868A0B1FFF76A
:1024E000DBF883460CE0306840F004003060F0E731
:1024F000FFF7D2F8A0EB0B0141F28830814266D899
:1025000030688007F4D50EE0FFF7C6F8834607E091
:10251000FFF7C2F8A0EB0B0141F28830814256D898
:1025200030688007F4D42FB1D8F8001021F0805122
:10253000C8F80010A869C8B3D9F80010C1F3810128
:1025400002294CD00228206800E040E020F0807092
:10255000206003D0FFF7A0F805463BE0FFF79CF8AA
:10256000064604E0FFF798F8801B02282FD8206861
:102570008001F7D4D5E90962D5E907011B4B57085B
:1025800095F82C20084303EB074343EA86110843E0
:1025900040EA026040F00050CAF80000206840F0B5
:1025A00080702060FFF778F8054606E015E000BF70
:1025B000FFF772F8401B022809D820688001F7D580
:1025C0000BE000BFFFF768F8401B022802D9032088
:1025D000BDE8F88F20688001F4D40020F8E70120DE
:1025E000F6E7000008380240007000400000FFFFDE
:1025F00070B504000D4603D094F82C0010B107E02C
:10260000012070BD002084F82D00204600F011F854
:10261000022084F82C002068211DFEF7C6FBD4E9B7
:1026200000022946FEF706FC012084F82C00002059
:1026300070BDFEF7D9BE10B5044690F82C000228F4
:1026400009D0022084F82C002068FEF7DDFB012071
:1026500084F82C00002010BD70B5044690F82C00C2
:102660000D4602280DD0022084F82C002068FEF7C9
:10267000D1FB2868022805D05FF0010084F82C0007
:10268000002070BD0520F9E77047704770470000D3
:102690002DE9F04390F83C20012A42D0012280F835
:1026A0003C2051F80C4BDFF880804FF0000991E896
:1026B000680051E9022723F44073B1F80CC03B4392
:1026C000CF6923F480631343026823F40063234338
:1026D00023F4805343EA050323F4005343EA06033B
:1026E00023F4804343EA07030C3923F47023424563
:1026F00043EA0C4302D00D4CA2420CD18D8C23F442
:102700007006D1E9073446EA055121F0807119437A
:1027100021F000732343536480F83C900020BDE80F
:10272000F0830220FBE700000000014000040140AC
:1027300070B590F83C20012A24D0134C012580F874
:102740003C50022280F83D2002685368A2429668FD
:1027500002D00E4CA24203D14C6823F470032343F1
:102760000C6823F0700389681C435460002326F032
:10277000800602683143916080F83D5080F83C301B
:10278000184670BD022070BD0000014000040140E9
:1027900010B5040003D094F83D0010B107E001200B
:1027A00010BD002084F83C00204600F00DF8022007
:1027B00084F83D002068211D01F00CFA012084F806
:1027C0003D00002010BD000008B500680B4988429C
:1027D00012D10B48016841F001010160006800223C
:1027E000114600F0010000901A20FFF76FF9BDE8D4
:1027F00008401A20FFF75CB908BD00000000014046
:10280000443802400168094ACB6843F00103CB60B9
:10281000016888681040062806D0B0F5803F03D0D4
:10282000086840F0010008600020704707000100C0
:1028300070B5044690F83C00012817D0324B0125B2
:1028400084F83C50022084F83D00226890681840CB
:1028500020F47F4090600868502830D00DDC20289C
:102860004DD005DC98B310283BD148E0022070BD64
:10287000302844D0402834D139E0602828D070284E
:1028800006D0B0F5805F2CD0B0F5005F29D10AE00A
:102890004A682068D1E9021301F002FA20688168D1
:1028A00041F0770109E04A682068D1E9021301F09C
:1028B000F7F92068816841F48041816011E0CA68BD
:1028C0004968206801F034FB2068502107E016E0D9
:1028D000CA684968206801F03CFB2068602101F06B
:1028E000E8F9002084F83D5084F83C0070BDCA68C7
:1028F0004968206801F01CFB20684021EFE722684E
:1029000001461046EBE7000088FFFEFF704770B5F8
:102910000446006800250169C943890715D4C168C8
:10292000C943890711D4EA1E026101212177206879
:1029300080698007204602D0FFF7E8FF04E000F03E
:10294000D1F8204600F07FF9257720680169C94356
:10295000490717D4C168C943490713D402216FF04E
:102960000402026121772068806910F4407F2046CC
:1029700002D0FFF7CBFF04E000F0B4F8204600F0EF
:1029800062F9257720680169C943090716D4C1682F
:10299000C943090712D404216FF0080202612177AC
:1029A0002068C0698007204602D0FFF7AFFF04E02F
:1029B00000F098F8204600F046F925772068016974
:1029C000C943C90617D4C168C943C90613D408212D
:1029D0006FF01002026121772068C06910F4407F17
:1029E000204602D0FFF792FF04E000F07BF820467B
:1029F00000F029F9257720680169C943C90708D182
:102A0000C168C943C90704D1891E0161204600F08D
:102A10001BF920680169C943090609D4C168C94383
:102A2000090605D46FF0800101612046FFF72DFEF5
:102A300020680169C943C90509D4C168C9430906A9
:102A400005D46FF4807101612046FFF71DFE2068F8
:102A50000169C943490609D4C168C943490605D477
:102A60006FF040010161204600F0F8F8206801692C
:102A7000C94389060BD4C168C943890607D46FF0DE
:102A8000200101612046BDE87040FFF7FFBD70BD29
:102A900010B586B0044614216846FDF7FBFB0E49CD
:102AA0002068884216D10D48016841F0010101609B
:102AB00000680123022200F00100059000204FF47D
:102AC000807100916946CDE90120CDE903030448F6
:102AD000FEF7E4FC06B010BD0000014030380240B3
:102AE00000000240704770B5044690F83C000D4667
:102AF00001280ED0012684F83C60022084F83D00B5
:102B00000C2A45D007DC5AB1042A1BD0082A78D1F8
:102B10002CE0022070BD102A4ED0142A71D15DE045
:102B2000206801F0CFF82068816941F008018161D7
:102B30002068816921F00401816120682A69816926
:102B4000114311E0206801F0F7F82068816941F431
:102B5000006181612068816921F480618161206860
:102B60002969826942EA012181614AE0206801F015
:102B70001FF92068C16941F00801C1612068C1697D
:102B800021F00401C16120682A69C169114311E083
:102B9000206801F049F92068C16941F40061C16110
:102BA0002068C16921F48061C16120682969C26916
:102BB00042EA0121C16124E0206801F061F9206846
:102BC000416D41F0080141652068416D21F004012B
:102BD000416520682A69416D114311E0206801F0C8
:102BE0007BF92068416D41F4006141652068416DC9
:102BF00021F48061416520682969426D42EA012122
:102C00004165002084F83D6084F83C0070BD10B53B
:102C1000040003D094F83D0010B107E0012010BD7E
:102C2000002084F83C00204600F00CF8022084F8D4
:102C30003D002068211D00F0CDFF012084F83D00FB
:102C4000002010BD7047704700680349884201D1D9
:102C5000FEF728BD70470000001000407047704725
:102C60002DE9F041026804460025D0691168936897
:102C700010F00F0F5BD003F0010601F4907737439B
:102C800069D0C70707D0CF0505D501271762E26FC6
:102C900042F00102E267820708D5DA0706D027680A
:102CA00002223A62E26F42F00402E267420708D56C
:102CB000DA0706D0236804221A62E26F42F00202A9
:102CC000E26702070AD501F02002324306D02368EA
:102CD00008221A62E26F42F00802E267E26F002AFD
:102CE00032D0800605D5880603D5216E09B120466D
:102CF00088472168E06F8968490601D4000725D517
:102D0000204601F0C4F920688168490619D5816818
:102D100021F040018160E06E98B11A490165E06ED2
:102D2000FEF79BFA00280FD0E06E016D06E08306E7
:102D300011D58B060FD5216E12E02046BDE8F0417B
:102D400008472046FFF78BFFBDE8F0812046FFF7DC
:102D500086FFE567F8E7030605D50B0603D5616E28
:102D60000029EAD1F0E74006EED54806ECD5136815
:102D70002021204623F0400313606167656600F060
:102D80008CF9E1E77B40000810B5040002D0606FC9
:102D900010B107E0012010BD002084F8700020462B
:102DA00000F026F8242060672068016821F0010106
:102DB0000160204601F0D6F90128ECD0606A10B11C
:102DC000204601F0D8F82068416821F49041416024
:102DD0002068816821F02A0181602068016841F043
:102DE000010101602046BDE8104001F028B9000053
:102DF00070B586B0044614216846FDF74BFA2049A9
:102E00002068884239D11F48016841F010010160F3
:102E1000006800F0100005901A481438016841F06D
:102E200002010160016801F002010591016841F0B1
:102E300001010160006800240726694600F00100D6
:102E400005908020009002250F48CDE90154CDE97E
:102E50000346FEF723FB28020090CDE901540B48FE
:102E60006946CDE90346FEF719FB002225201146ED
:102E7000FEF72CFE2520FEF71BFE06B070BD0000FD
:102E800000100140443802400004024000000240AB
:102E900070B5836F202B4BD1B9B1B2B190F87030BF
:102EA000012B45D08368012680F8706000244165BD
:102EB00035030466AB42A0F85820A0F85A204FF022
:102EC000FF0107D1026912B126E0012070BD40F276
:102ED000FF1121E04FF07F02E3B1B3F1805F1ED01C
:102EE000A0F85C402221C467816701688A6842F0CB
:102EF00001028A608168A94201D10169B1B10D491D
:102F0000016680F870400068016841F490710160CA
:102F1000002070BD036933B9A0F85C10E2E70169D5
:102F200009B13F21F8E7A0F85C20DBE70249E7E7B9
:102F3000022070BD09410008AF40000870B5194C6F
:102F4000206A00282DD0A06A18B1217816A001F0BF
:102F50006BFA207800253038C1B26170481E09280C
:102F60000CD3A06A10B114A001F05EFA65700122C2
:102F7000BDE870400B491448FFF78ABF13A001F069
:102F800053FA15A001F076FB064815A16278801C63
:102F900001F05AFA0348801C01F06CFB0120C4E9DF
:102FA000085070BD00000020696E70757420737445
:102FB000723A25630A0D0000696E70757420696E9F
:102FC00076616C69640A0D00B80400207374617244
:102FD000740A0D25640A0D00737461727400000098
:102FE000256400002DE9F8430446406F1F4616464D
:102FF0000D4620284FD1CDB1C6B194F870000128FC
:1030000049D0012284F8702021214FF00008C4F833
:103010007C806167FEF740FB8146A068A4F85060A1
:10302000A4F85260B0F5805F03D004E00120BDE851
:10303000F883206910B12E46002510E000260EE02E
:103040008021204601F0B8F9B8B9C6B116F8010BD5
:1030500021688862B4F85200401EA4F85200B4F807
:1030600052004B464FF0000200970028E8D14FF085
:103070004001204601F0A0F938B10320D7E735F828
:10308000020B2168C0F30800E3E7202161670020FC
:1030900084F87080CBE70220C9E77047FEE70000A4
:1030A0002DE9F84307461B480E461546DDE908188A
:1030B0004FF440321C464260174A926802EB82038A
:1030C00003EBC202A0F1A80303EB8202926C022A76
:1030D00000D000228260114A0260C1600D48FDF7F5
:1030E000CFFF002814D10B483946FDF7EBFE00282E
:1030F0000ED108482B46324641460094FEF793F81D
:10310000002805D1BDE8F84302480A21FEF704B8BB
:10311000BDE8F883440200200000002000B0024017
:103120000148FEF73ABB0000D00300202DE9FE4F16
:1031300081460068882493468D888C2204EBCB1747
:103140008A46C3689421BE46C459C3F30B432B443B
:1031500004F470441F04019702EBCB1240F80E40B8
:1031600001EBCB13DAF800709C214FF0AC0C01EBB3
:10317000CB1440F2077102910CEBCB11D9F800C0CF
:1031800098250020CDF800C0A02605EBCB15DCF873
:103190000CC006EBCB16CCF30B4C0CF1010C07EB7F
:1031A0000C08DDF800C0019F48EA07084CF80E80C3
:1031B000D9F80070BAF80CC0B846FF68C7F30A0720
:1031C00067444FEA074E58F8027007F4704C48F80D
:1031D00002C0D9F800C0DAF80870DCF80C80C8F337
:1031E0000A0808F10108B84448EA0E084CF80280C1
:1031F000D9F80020D75827F00707D750D9F8007022
:10320000DAF81020FA509AF831209AF818304FEA7C
:10321000022C9AF83220120442EA0362D9F80030F4
:103220001F5918519AF8303043EA0C031343D9F868
:1032300000201351D9F80020535923F0FF035351B4
:10324000D9F80020DAF814305351D9F800209359F6
:10325000029CA3439351D9F80030DAE907242243B2
:103260009A51D9F8002053585050D9F80020DAF874
:1032700024005050DAF81000C8B301283AD00428CE
:103280003AD0022838D0032836D0072834D001207D
:10329000D9F80030B02505EBCB11B42284245D5859
:1032A00002EBCB1205F0E0255D50DAE9003504EBC6
:1032B000CB14EB1ABAF8285043434543D9F8000021
:1032C000DB1C43EA05434350D9F8000081586FF3F3
:1032D0000A018150D9F80000DAF82C108150D9F891
:1032E0000000015941F001010151BDE8FE8FFFE7E7
:1032F0000420CDE70320CBE70220C9E70F480222D4
:103300000D4B002110B50360C0E90112C160C0E996
:103310000A1201634163FDF7B3FE08B1FDF744FDF6
:1033200006480121FDF7CEFD002803D0BDE810407E
:10333000FDF73ABD10BD000000B002405C03002064
:10334000144838B5016841F480010160006800212B
:10335000114A802300F48000009010485515141580
:10336000C0E9002183600422C5600323C0E9044151
:1033700000F120048161C16184E80E00C162016333
:10338000FDF7AEFF002803D0BDE83840FDF70CBDC7
:1033900038BD00003038024010640240FC020020BA
:1033A000F0B587B01C216846FCF774FF1548002172
:1033B000134E042300F1080E102506604FF4C07769
:1033C000416040268EE82A004FF4006C0222C0E9DA
:1033D00005670724D502C0E9071CC0E90951CDE9FA
:1033E000002403266946CDE90462CDE90234069241
:1033F000FFF7FEF8002801D0FDF7D6FC07B0F0BDBE
:10340000400100A09C0300202DE9F04F87B014215B
:103410006846FCF73FFFFE48016841F0100101607B
:10342000016801F010010591016841F0400101605F
:10343000016801F040010591016841F0020101605D
:10344000016801F002010591016841F00801016085
:10345000016801F008010591016841F00401016073
:10346000016801F004010591016841F0010101606A
:10347000016801F001010591016841F400710160EA
:10348000016801F400710591016841F480710160E7
:10349000016801F480710591016841F48061016067
:1034A000016801F480610591016841F0200101602B
:1034B000016801F020010591016841F0800101607F
:1034C00000680122202100F080000590D148FEF71D
:1034D000DDF8D14800220E21FEF7D8F8CF480122AE
:1034E0000821FEF7D3F80122CB481103FEF7CEF8EE
:1034F000CB4800224FF40051FEF7C8F8C94800221B
:10350000C821FEF7C3F800244FF00809C6486946F1
:103510000294CDE90094FDF7C1FF02AA4FF0090B18
:1035200002254FF004080326BF4882E85008CDE981
:1035300000856946FDF7B2FF4FF4D0400294CDE913
:1035400000050B206946CDE90360B648FDF7A6FFEC
:1035500001276946300200901220CDE90107B348E7
:10356000CDE90348FDF79AFF43F623400294CDE9E5
:1035700000050A206946CDE90360AC48FDF78EFFDF
:1035800010200090CDE90154A8486946CDE90345D3
:10359000FDF784FF80200090CDE901549D486946E5
:1035A000CDE90349FDF77AFF4FF4F8500294CDE9D5
:1035B00000050C206946CDE903609D48FDF76EFFCC
:1035C000A8030090CDE901549A486946CDE9034724
:1035D000FDF764FF60204FF00D0A00906946CDE9C9
:1035E00001549148CDE9034AFDF758FF4020029469
:1035F000CDE900050A206946CDE903608B48FDF757
:103600004DFFE8026946CDE900048B480294FDF7BE
:1036100045FF4020009089486946CDE901047D4876
:10362000FDF73CFF4FF4E0500294CDE900050A207D
:103630006946CDE903607F48FDF730FFF020009038
:103640000A206946CDE90154CDE903407248FDF7EF
:1036500025FF680200900A206946CDE90154CDE9B2
:1036600003407048FDF71AFF20200090CDE9017457
:10367000684869460394FDF711FFCDF8009069464C
:10368000CDE901546348CDE9034AFDF707FF41F254
:103690000E000090CDE901745F4869460394FDF780
:1036A000FDFE28036946CDE9000461480294FDF758
:1036B000F5FECDF800906946CDE9017457480394B2
:1036C000FDF7ECFE28020090CDE90154554869460B
:1036D000CDE9034AFDF7E2FE10206946CDE900047A
:1036E0004C480294FDF7DAFE0C20CDF800806946C4
:1036F000CDE903604748CDE90154FDF7CFFE48F21C
:1037000004006946CDE9000445480294FDF7C6FE71
:1037100028030090CDE90174414869460394FDF700
:10372000BDFE4FF4BC400090CDE901543C486946D1
:10373000CDE9034AFDF7B2FE00976946CDE9015491
:103740003548CDE90345FDF7A9FEA8026946CDE954
:10375000000431480294FDF7A1FE28030090374889
:103760006946CDE901042C48FDF798FEC020694662
:1037700002AACDE900052E4882E85002FDF78EFE30
:1037800010200294CDE900050A206946CDE90360C6
:103790002348FDF783FEC8200090CDE9017421483D
:1037A00069460394FDF77AFE4FF4F8606946CDE967
:1037B000000623480294FDF771FE05200294CDE92E
:1037C00000050A206946CDE903601948FDF766FE49
:1037D00032200294CDE900050B206946CDE9036053
:1037E0001348FDF75BFE02AA1048694682E85008BC
:1037F000CDE90085FDF752FE4FF46050694602AAFC
:10380000CDE90005034882E85008FDF747FE19E0BE
:1038100030380240000C02400020024000280240E4
:10382000001C024000180240001002400004024048
:103830000008024000000240002402400000121074
:103840000014024028486946CDE900840294FDF73F
:1038500025FE86200294CDE900050B206946CDE9BE
:1038600003602248FDF71AFE009769461F48CDE91C
:103870000164FDF713FE50200090CDE901541B4870
:103880006946CDE9034AFDF709FEF10100911221D5
:103890001748CDE90117CDE903686946FDF7FEFD3C
:1038A000282000900A206946CDE903600F48CDE941
:1038B0000154FDF7F3FD40210091CDE901540C487E
:1038C0006946CDE9034BFDF7E9FD0521B003009002
:1038D000CDE90154CDE9034106486946FDF7DEFD17
:1038E00007B0BDE8F08F0000001802400000024061
:1038F000001C024000040240F0B58DB0342168463F
:10390000FCF7C8FC25480024234D2821092240F259
:103910001526352340F21B1705600B25446040F245
:10392000352C846040F21D1EC4600461143080E8B0
:10393000EE5080F8204080F8214080F82240143872
:10394000FDF790FF08B1FDF72FFA4FF4F0704FF438
:1039500088714506CDE90040CDE90A0107A8022794
:1039600004970723CDE902414FF4C062694680E81D
:103970002C00FF260948CDE905648DF8304000226F
:103980008DF831408DF83240FDF7DAFE002801D085
:10399000FDF70AFA0DB0F0BD00680140D003002029
:1039A00010B59AB000241C21009412A8019402942E
:1039B0000394049405940694FCF76CFC2C2107A84E
:1039C000FCF768FC29482849C0E900148460C460F9
:1039D000046144618461FEF7DBFE08B1FDF7E4F9A0
:1039E0004FF48050009021486946FEF721FF08B14E
:1039F000FDF7DAF91D48FFF70AF908B1FDF7D4F928
:103A00001A4804A9049405940694FEF791FE08B19F
:103A1000FDF7CAF960201494CDE91204134800227E
:103A200012A91594169417941894FFF75CF808B12E
:103A3000FDF7BAF94FF40050079408940994010374
:103A40000A94CDE90B40CDE90E41084807A90D9431
:103A500010941194FEF71CFE08B1FDF7A5F9034878
:103A6000FFF716F81AB010BD0000014078040020DE
:103A70000D48002110B50B4C0C224FF4E1330460CB
:103A8000C0E90131C160C0E904128161C161016214
:103A90004162FFF779F9002803D0BDE81040FDF737
:103AA00083B910BD00100140B8040020FEE7704744
:103AB00070477047F0B5B3B0302121A8FCF7EAFB9E
:103AC00014212DA8FCF7E6FB84216846FCF7E2FBF5
:103AD000FEF764F82248016841F0805101600068F7
:103AE00000F0805032901F48016841F4404101606D
:103AF00000680224012500F440403290E0031922BE
:103B0000810113010926CDE9274129A9CDE92150D9
:103B100021A881E85C00FEF7CFFBFEF709F8E2027E
:103B20004FF4A0510026CDE930122DAA0F20062116
:103B300082E851002DA8FEF7B7FA48200090032331
:103B40001196270468464FF4C0710522CDE905148B
:103B5000CDE90723CDE90A57FEF728F833B0F0BDC9
:103B60004038024000700040104A30B510481468D8
:103B700000210F4B44F470041460083305680D4AAB
:103B80000D4C45F00105056019600368051D1340E3
:103B9000074A03600C322C600568E305034C25F4EA
:103BA00080250560803C1160236030BD88ED00E019
:103BB00000380240FFFFF6FE103000240148FEF7F7
:103BC000A6BE0000780400200148FEF7A0BE000059
:103BD00038050020F0B5274B4FF0804E264D026887
:103BE0009842264E264F274C09D0704507D0A84250
:103BF00005D0B04203D0B84201D0A04205D1D1F8DF
:103C000004C022F070024CEA020298421BD07045B8
:103C100019D0A84217D0B04215D0B84213D0A04254
:103C200011D0194DA8420ED0184DA8420BD0184DF6
:103C3000A84208D0174DA84205D0174DA84202D07F
:103C4000164DA84203D1CD6822F440722A434D6933
:103C500022F080022A43026098428A68C2620A689F
:103C6000826201D0A04201D1096901630121416151
:103C7000F0BD0000000001400004004000080040CA
:103C8000000C00400004014000400140004401409D
:103C90000048014000180040001C00400020004087
:103CA00042EA032283680A4323F47F410A43826085
:103CB0007047826822F070020A4342F00701816077
:103CC00070470000F0B5026ADFF860C0184F22F0BC
:103CD0000102DFF860E00262066A4268836926F04A
:103CE00002060D68B8428C6803EA0C0323F0030354
:103CF00044EA060445EA030501D0704505D1CB68C6
:103D000024F00804234323F00404B84201D0704592
:103D100005D122F44076D1E9053233431A4342609B
:103D20008561496841630462F0BD00008FFFFEFFBA
:103D30000000014000040140F0B5026A194E1A4C1F
:103D400022F01002DFF864E00262056A43688269CB
:103D500025F02005D1F808C0A0420F6802EA06024B
:103D600022F4407245EA0C1542EA072201D0704560
:103D700006D1CE6825F0800545EA061525F04005F8
:103D8000A04201D0704507D1D1E9054623F4406334
:103D900043EA840343EA860343608261496881639E
:103DA0000562F0BDFF8FFFFE0000014000040140EE
:103DB000F0B5026A194F1A4E22F48072DFF864E0FF
:103DC0000262056A4368C26925F40075D1F808C02B
:103DD000B0420C6802EA070222F0030245EA0C2511
:103DE00044EA020401D0704506D1CF6825F4006290
:103DF00042EA072222F48065B04201D0704507D123
:103E000023F44052D1E9053642EA031242EA06138E
:103E10004360C4614968C1630562F0BD8FFFFEFF66
:103E20000000014000040140F0B5026A124B114F3E
:103E300022F4805298420262046A4268C36924F400
:103E400000548E680D6803EA070323F4407344EAC4
:103E5000063443EA052302D0084DA84204D14D6937
:103E600022F4804242EA85124260C36149680164DB
:103E70000462F0BDFF8FFFFE00000140000401401E
:103E8000F0B5026ADFF844C022F480320262056AAB
:103E90004268446D25F400350E8960450C4F0B686F
:103EA00004EA070445EA064543EA040302D0094C44
:103EB000A04204D14C6922F4803242EA04224260DA
:103EC0004365496881650562F0BD0000000001405E
:103ED0008FFFFEFF00040140F0B5026ADFF844C026
:103EE00022F480120262046A4268436D24F40014D2
:103EF0000E8960450C4F0D6803EA070344EA065437
:103F000043EA052302D0094DA84204D14D6922F4A9
:103F1000802242EA8522426043654968C1650462A5
:103F2000F0BD000000000140FF8FFFFE00040140D3
:103F300010B5036A046A23F00A0324F00104046242
:103F400084690B4324F0F00141EA021181610362AC
:103F500010BD10B5036A23F0100303628369046A7D
:103F600023F4704324F0A00443EA0232826144EA5D
:103F70000111016210BD90F82410C90706D0016834
:103F8000836A4A6822F400321A434A6090F8241087
:103F9000890706D50168C36A4A6822F480321A4349
:103FA0004A6090F82410490706D50168036B4A68F7
:103FB00022F480221A434A6090F82410090706D59B
:103FC0000168436B4A6822F400421A434A6090F841
:103FD0002410C90606D50168836B8A6822F48052D2
:103FE0001A438A6090F82410890606D50168C36BCD
:103FF0008A6822F400521A438A6090F82410490615
:1040000011D50168036C4A6822F480121A434A6091
:10401000016CB1F5801F06D10168436C4A6822F437
:10402000C0021A434A6090F82410090606D50168B8
:10403000826C486820F4002010434860704738B50F
:1040400000250446C567FDF727FB03462068006886
:1040500000070BD56FF07E400090002220464FF401
:10406000001100F0A9F908B1032038BD20206067D5
:1040700084F87050A067002038BD10B5806B002117
:10408000A0F85A10A0F85210FEF7E9FD10BD10B5C7
:104090000168202200230C6824F490740C600168ED
:1040A0008C6824F001048C608267036610BD10B533
:1040B000816FB0F85C202229016804D0886940F043
:1040C0000800886110BD496A436D11401980416D37
:1040D000891C4165B0F85A10491EA0F85A10B0F872
:1040E0005A100029EED10168202200230C6824F424
:1040F00090740C6001688C6824F001048C60826705
:104100000366FEF71BFF10BD10B5816FB0F85C2091
:104110002229016804D0886940F00800886110BD38
:10412000496A436D11401970416D491C4165B0F8F1
:104130005A10491EA0F85A10B0F85A100029EED1B2
:104140000168202200230C6824F490740C6001683C
:104150008C6824F001048C6082670366FEF7EEFE33
:1041600010BD00002DE9F04104468068DFF818C258
:10417000864F2368D4E90452E16928431E6800256C
:104180000A438349104306EA0C0606431E604FF4B7
:1041900000422068E668436823F440533343436099
:1041A0002368A669206AD3F808C030432CF430662F
:1041B00006439E602068B8420AD1086810F00300E8
:1041C00052D001287BD002287AD003286ED186E015
:1041D000704B98420AD1086810F00C0079D004287E
:1041E0007BD0082877D00C2860D178E06A4B9842C1
:1041F0000AD1086810F030006BD010286DD020284C
:1042000069D0302852D16AE0644B98420AD10868DC
:1042100010F0C0005DD040285FD080285BD0C0285F
:1042200044D15CE05E4B98420DD1086810F44070B8
:104230004FD0B0F5807F50D0B0F5007F4BD0B0F5B7
:10424000407F33D14BE0574B98420FD1086810F4B0
:10425000406009D0B0F5806F3FD0B0F5006F3AD024
:10426000B0F5406F22D13AE0012120E04E4B984258
:104270000DD1086810F440502BD0B0F5805F2CD0E1
:10428000B0F5005F27D0B0F5405F0FD127E0474B76
:1042900098420BD1086810F440401AD0B0F5804F16
:1042A0001BD0904217D0B0F5404F18D01021E069D4
:1042B0004FF6EF76904238D109295DD202E00CE04A
:1042C00009E006E0DFE801F00D1027582A58585899
:1042D0002D000021EBE70221E9E70421E7E70821AF
:1042E000E5E7FDF797FF01E0FDF7A4FF0146D4F8ED
:1042F0000400490001EB5001B1FBF0F080B2A0F1E5
:104300001001B14238D84FF6F0732168C0F3420271
:104310001840104324E026496068EBE7FDF79AFF58
:10432000E4E760684FF48031E4E7092924D2DFE84C
:1043300001F0050819231C2323231F00FDF76AFF42
:1043400001E0FDF777FF0146D4F8040001EB5001CE
:10435000B1FBF0F080B2A0F11001B1420CD821689D
:10436000C8600AE013496068F0E7FDF773FFEAE709
:10437000606802EB5001EBE70125002020666066D3
:104380002846BDE8F0810000F369FFEF001001400E
:10439000903802400044004000480040004C00407B
:1043A000005000400014014000780040007C0040B4
:1043B0000048E8010024F4002DE9F0419846174632
:1043C0000E460446069D08E0681C06D0FDF764F919
:1043D000A0EB0800A8420BD855B12068C06936EAA6
:1043E000000017D00020B842EED00020BDE8F081D8
:1043F0002168202000220B6823F4D0730B60216811
:104400008B6823F001038B606067A067032084F84A
:104410007020EBE70120E6E70148FEF721BC000031
:10442000B8040020FEE700000FB4054B10B503A947
:10443000044A029800F03CF810BC5DF814FB000040
:10444000A1460008540000200FB4084B10B504A981
:1044500002AA039800F02CF8044602A9002000F0FC
:1044600003F9204610BC5DF814FB00006946000803
:10447000090700284FEA116104DB00F1E02080F811
:104480000014704700F00F0000F1E02080F8141DC8
:10449000704702E008C8121F08C1002AFAD170470D
:1044A0007047002001E001C1121F002AFBD17047B4
:1044B0002DE9FF4F8BB09A460F460546002606E0D1
:1044C00025280BD052460D9990476D1C761C2878F4
:1044D0000028F5D10FB03046BDE8F08F0024A0468B
:1044E0000122604900E0044315F8013F203B02FA35
:1044F00003F00842F7D128782E2817D115F8010FBC
:1045000044F004042A280ED06FF02F022878A0F17E
:10451000300109290AD808EB880102EB410100EBC0
:1045200001086D1CF2E757F8048B6D1C2878692888
:104530003ED006DC0028CDD063280BD0642804D1FF
:1045400036E0732810D075284BD052460D9990470D
:10455000761C85E017F8040B8DF8000000208DF81C
:104560000100E946012003E057F8049B4FF0FF30BB
:1045700061074FF0000401D40AE0641C44450DDAE1
:104580008442FADB19F804100029F6D106E0641C15
:104590008442FCDB19F804100029F8D1264404E019
:1045A00019F8010B52460D999047641EF8D257E056
:1045B00001CF4FF00A0B002802DA40422D2102E021
:1045C000210504D52B218DF82410012103E0E107FA
:1045D00005D02021F7E70DF1200908910CE000211A
:1045E000F9E701CF4FF00A0BF9E75946FBF75DFEFB
:1045F00001F1300209F8012D0028F6D1ADEB0900D8
:1046000000F1200B600701D44FF00108D84502DD0E
:10461000A8EB0B0000E000208046002406E009A87B
:104620005246005D0D999047641C761C08988442A0
:10463000F5DB04E0302052460D999047761CB8F126
:104640000001A8F10108F5DC05E019F8010B52465C
:104650000D999047761CBBF10001ABF1010BF4DC26
:104660006D1C34E7092801000A68531C0B601070A8
:104670007047000070B5094C0546206BFBF778FECB
:10468000208E294680B2FBF749FF206B401C206337
:104690000A2801DD0020206370BD0000000000201A
:1046A00013B5044801224FF6FF736946FEF79AFCE2
:1046B00000981CBDB8040020FCF7FCFFFFF7FAF9D6
:1046C000FEF7A2FEFEF73CFEFEF718FEFEF768FEC0
:1046D000FFF712F9FFF764F9FFF7CAF9FCF744F99D
:1046E000FBF7D8FF01204FF04041FCF725F80121EE
:1046F0000846FCF717F95F4C01204FF07F43A0609C
:104700001846FCF7F3F84FF0FF30FCF721F9184694
:10471000FBF712FE04F13400FCF7F6F8FBF780FE1D
:10472000554E012700254FF064084FF400693046CC
:104730004946FCF79FFF60710028E06808D070BB15
:10474000206980B114283BDB6561C4E9037537E05B
:1047500028B3206938B1142832DB65612561E56032
:10476000607810B12CE067612AE0E069C0B10020F8
:10477000E061B8B1F0B3002230460221FCF786FFB9
:104780004FF4FA70E062C4E90875A06A10B13BA06A
:10479000FFF74AFE374901223B48FEF779FB0FE05D
:1047A0000120E5E7002230460221FCF76FFFC4F844
:1047B0002C80C4E90857A06A20B134A0FFF734FE6A
:1047C000606A60B1E16AA069884208DBE069E0B133
:1047D00001281FD0002230460221FCF757FF01209C
:1047E000FCF7F0FD606910B12069401C2061E16AAE
:1047F000A06900E004E0884239DA401CA06196E735
:10480000C4F82C80C4E90857DCE702213046FCF7E5
:1048100036FFE4E76078D8B102213046FCF72FFF7D
:1048200002213046FCF726FF0028D8D16078401ED0
:10483000C1B2617018A0FFF7F7FD0E4818A16278A9
:10484000801CFFF701FE0B48801CFFF713FFC6E733
:10485000C4E9087513A06570FFF7E6FD13A0FFF724
:1048600009FF044901220848FEF712FBB7E7A561DA
:104870005DE7000000000020002002406D6F6465CD
:1048800020320A0D00000000B80400206D6F64653E
:1048900020310A0D0000000025640A0D0000000010
:1048A00025640000656E640A0D000000656E6400FA
:1048B00000000000000000000000000000000000F8
:1048C00000000000000000000000000000000000E8
:1048D00000000000000000000000000000000000D8
:1048E00000000000000000000000000000000000C8
:1048F0000000000000000000000000000000038035
:104900000003800003800003800003800003800018
:10491000038000038000038000010000010000000C
:104920000000000000038000038000000000000081
:104930000000000000000000000000000000000077
:104940000000000000000000000E70000E70000E5D
:104950007000042000042000042000042000000057
:104960000000000000000000000000000000000047
:104970000000000000000000000000000000000037
:1049800000000000000000000000000000000660C1
:10499000000660000660000660000660003FF80048
:1049A0003FF8000660000CC0003FF8003FF8000C24
:1049B000C0000CC0000CC0000CC0000CC000000007
:1049C00000000000000000000000000000000000E7
:1049D00000000001800001800007B0000FF0001807
:1049E00070001870001C00000F800007E00000F04D
:1049F000001830001C30001C70001FE0001BC000BD
:104A000001800001800001800001800000000000A2
:104A1000000000000000000000000000000007800F
:104A2000000FC0001CE0001860001860001CE000CF
:104A30000FF80007E0001FF0000738000618000616
:104A4000180007380003F00001E00000000000003B
:104A50000000000000000000000000000000000056
:104A600000000000000000000000000003F000074C
:104A7000F0000C60000C00000C00000600000700B5
:104A8000000F9C001DFC0018F0001870000FFC00C7
:104A900007DC000000000000000000000000000033
:104AA0000000000000000000000000000000000006
:104AB000000380000380000380000100000100006B
:104AC00001000001000000000000000000000000E4
:104AD00000000000000000000000000000000000D6
:104AE00000000000000000000000000000000000C6
:104AF00000000000000000180000380000700000F6
:104B0000F00000E00000E00001C00001C00001C0B2
:104B10000001C00001C00001C00000E00000E00092
:104B20000070000070000038000018000000000055
:104B3000000000000000000000000000000018005D
:104B4000001C00000E00000E00000700000700001F
:104B500003800003800003800003800003800003C3
:104B600080000700000700000F00000E00001C007E
:104B7000001800000000000000000000000000001D
:104B80000000000000000180000180000180001D85
:104B9000B8001FF80007E00003C00003C000066073
:104BA000000660000000000000000000000000009F
:104BB00000000000000000000000000000000000F5
:104BC00000000000000000000000000000000000E5
:104BD00000000000018000018000018000018000D1
:104BE0000180003FFC003FFC0001800001800001CB
:104BF0008000018000018000000000000000000033
:104C000000000000000000000000000000000000A4
:104C10000000000000000000000000000000000094
:104C20000000000000000000000000000000000084
:104C30000000000000000000000000E00000C000D4
:104C400001C000018000018000030000030000009B
:104C50000000000000000000000000000000000054
:104C60000000000000000000000000000000000044
:104C70000000001FF8001FF8000000000000000006
:104C80000000000000000000000000000000000024
:104C90000000000000000000000000000000000014
:104CA0000000000000000000000000000000000004
:104CB00000000000000000000000000000000000F4
:104CC0000000000000000000000003C00003C0005E
:104CD00003C0000000000000000000000000000011
:104CE000000000000000000000180000180000385C
:104CF0000000300000700000600000600000C00094
:104D000000C00001800001800003000003000006D5
:104D100000000600000E00000C00001C000018003F
:104D2000001800000000000000000000000000006B
:104D300000000000000003C00007E0000C30000C81
:104D40003000181800181800181800181800181843
:104D5000001818001818000C30000C300007E00094
:104D600003C0000000000000000000000000000080
:104D700000000000000000000000000000000080B3
:104D8000000780001F80001D80000180000180005E
:104D9000018000018000018000018000018000018D
:104DA00080000180001FF8001FF8000000000000D4
:104DB00000000000000000000000000000000000F3
:104DC00000000000000007C0001FF0003830003075
:104DD000180030180000180000300000600001C00A
:104DE000000380000600000C00001800003FF800DF
:104DF0003FF800000000000000000000000000007C
:104E0000000000000000000000000000000003C0DF
:104E1000000FE0000C700000300000300000600067
:104E200003C00003E000007000001800001800003C
:104E300018001838001FF0000FC00000000000002C
:104E40000000000000000000000000000000000062
:104E500000000000000000E00001E00001E00003AD
:104E600060000660000660000C60000C60001860C6
:104E7000003060003FF8003FF80000600003F800D9
:104E800003F8000000000000000000000000000027
:104E900000000000000000000000000000001FF003
:104EA000001FF0001800001800001800001BC000D0
:104EB0001FF0001C3000001800001800001800004F
:104EC00018003030003FF0000FC00000000000006C
:104ED00000000000000000000000000000000000D2
:104EE00000000000000000F80003F8000700000EBA
:104EF00000000C00001800001BC0001FF0001C3058
:104F0000001818001818001818000C38000FF000CE
:104F100003E00000000000000000000000000000AE
:104F200000000000000000000000000000001FF86A
:104F3000001FF8001818001838000030000030007A
:104F400000700000600000600000E00000C0000091
:104F5000C00001C0000180000180000000000000CE
:104F60000000000000000000000000000000000041
:104F700000000000000007E0000FF0001C380018DF
:104F800018001818000C300007E00007E0000C3093
:104F9000001818001818001818001C38000FF0002E
:104FA00007E000000000000000000000000000001A
:104FB000000000000000000000000000000007C02A
:104FC000000FF0001C300018180018180018180006
:104FD0000C38000FF80003D8000018000030000063
:104FE000700000E0001FC0001F0000000000000073
:104FF00000000000000000000000000000000000B1
:1050000000000000000000000000000000000000A0
:10501000000003C00003C00003C000000000000047
:105020000000000000000000000003C00003C000FA
:1050300003C00000000000000000000000000000AD
:105040000000000000000000000000000000000060
:105050000000000000000000000000F00000F00070
:1050600000F0000000000000000000000000000050
:10507000E00001C000018000018000030000020088
:105080000000000000000000000000000000000020
:10509000000000000000000000000000001C0000F4
:1050A0003C0000F00003C0000F00003C0000F000D6
:1050B000003C00000F000003C00000F000003C00B6
:1050C000001C0000000000000000000000000000C4
:1050D00000000000000000000000000000000000D0
:1050E000000000000000000000000000007FFC0045
:1050F0007FFC000000000000007FFC007FFC00003F
:10510000000000000000000000000000000000009F
:10511000000000000000000000000000000000008F
:105120000000000000000000000000007000007897
:1051300000001E000007800001E000007800001E53
:105140000000780001E0000780001E0000780000E9
:1051500070000000000000000000000000000000DF
:10516000000000000000000000000000000000003F
:105170000007C0000FE00018700018300018300061
:1051800000700000E00003C0000380000300000086
:105190000000000000070000070000000000000001
:1051A00000000000000000000000000000000000FF
:1051B00000000000000003E00007F0000E38000CC3
:1051C000180018780018F80019D8001998001998D4
:1051D0000019980018F8001878001800000C00005A
:1051E0000E180007F80003E00000000000000000B7
:1051F00000000000000000000000000000000000AF
:10520000001F80001FC00001C00003600003600099
:105210000630000630000C30000FF8001FF80018B0
:105220000C00300C00FC7F00FC7F00000000000040
:10523000000000000000000000000000000000006E
:105240000000000000000000007FE0007FF0001878
:1052500038001818001818001838001FF0001FF840
:1052600000181C00180C00180C00180C007FF80027
:105270007FF00000000000000000000000000000BF
:10528000000000000000000000000000000000001E
:105290000003EC000FFC001C1C00180C00300C007C
:1052A00030000030000030000030000030000018F6
:1052B0000C001C1C000FF80003F0000000000000B0
:1052C00000000000000000000000000000000000DE
:1052D0000000000000000000007FC0007FF0001808
:1052E0003800181800180C00180C00180C00180CC6
:1052F00000180C00180C001818001838007FF00077
:105300007FE000000000000000000000000000003E
:10531000000000000000000000000000000000008D
:10532000007FF8007FF8001818001818001998007E
:105330001980001F80001F80001980001998001834
:1053400018001818007FF8007FF800000000000027
:10535000000000000000000000000000000000004D
:105360000000000000000000003FFC003FFC000CBB
:105370000C000C0C000CCC000CC0000FC0000FC0C7
:10538000000CC0000CC0000C00000C00003FC0006E
:105390003FC000000000000000000000000000000E
:1053A00000000000000000000000000000000000FD
:1053B0000003EC000FFC001C1C00180C00300C005B
:1053C00030000030000030FE0030FE00300C0038AD
:1053D0000C001C1C000FFC0003F00000000000008B
:1053E00000000000000000000000000000000000BD
:1053F0000000000000000000007E7E007E7E00189D
:1054000018001818001818001818001FF8001FF8C6
:10541000001818001818001818001818007E7E00D0
:105420007E7E000000000000000000000000000080
:10543000000000000000000000000000000000006C
:10544000001FF8001FF800018000018000018000AB
:1054500001800001800001800001800001800001C6
:1054600080000180001FF8001FF80000000000000D
:10547000000000000000000000000000000000002C
:1054800000000000000000000007FE0007FE000012
:1054900030000030000030000030000030003030BC
:1054A000003030003030003030003060003FE0002D
:1054B0000F8000000000000000000000000000005D
:1054C00000000000000000000000000000000000DC
:1054D000007F3E007F3E0018300018600018C000BA
:1054E0001980001B80001FC0001CE000187000180D
:1054F00030001838007F1F007F1F000000000000F0
:10550000000000000000000000000000000000009B
:105510000000000000000000007F80007F80000C81
:1055200000000C00000C00000C00000C00000C003F
:10553000000C0C000C0C000C0C000C0C007FFC0090
:105540007FFC0000000000000000000000000000E0
:10555000000000000000000000000000000000004B
:1055600000F00F00F81F00381C003C3C003C3C00E1
:10557000366C00366C0033CC0033CC00318C0030FC
:105580000C00300C00FE7F00FE7F000000000000D9
:10559000000000000000000000000000000000000B
:1055A00000000000000000000078FE0078FE001CF3
:1055B00018001E18001F18001B18001B980019D88F
:1055C0000018D80018F8001878001838007F180064
:1055D0007F18000000000000000000000000000034
:1055E00000000000000000000000000000000000BB
:1055F0000003C0000FF0001C3800181800381C0011
:10560000300C00300C00300C00300C00381C00183E
:1056100018001C38000FF00003C00000000000005C
:10562000000000000000000000000000000000007A
:105630000000000000000000003FF0003FF8000CF8
:105640001C000C0C000C0C000C0C000C18000FF8CB
:10565000000FE0000C00000C00000C00003FC00038
:105660003FC000000000000000000000000000003B
:10567000000000000000000000000000000000002A
:105680000003C0000FF0001C3800181800381C0080
:10569000300C00300C00300C00300C00381C0018AE
:1056A00018001C38000FF00007C00007CC000FFCEA
:1056B000000C3800000000000000000000000000A6
:1056C0000000000000000000007FE0007FF00018F4
:1056D00038001818001818001838001FF0001FC0F4
:1056E0000018E0001870001830001838007F1E0005
:1056F0007F0E00000000000000000000000000001D
:105700000000000000000000000000000000000099
:105710000007D8000FF8001C3800181800181800EF
:105720001E00000FC00003F00000780018180018D9
:1057300018001C38001FF0001BE0000000000000F3
:105740000000000000000000000000000000000059
:105750000000000000000000003FFC003FFC0031A2
:105760008C00318C00318C00318C00018000018074
:10577000000180000180000180000180000FF00026
:105780000FF000000000000000000000000000001A
:105790000000000000000000000000000000000009
:1057A000007E7E007E7E0018180018180018180071
:1057B00018180018180018180018180018180018E1
:1057C00018000C30000FF00003C0000000000000C3
:1057D00000000000000000000000000000000000C9
:1057E0000000000000000000007F7F007F7F0018A5
:1057F0000C000C18000C18000C18000630000630C5
:105800000003600003600003600001C00001C000ED
:105810000080000000000000000000000000000008
:105820000000000000000000000000000000000078
:1058300000FE3F80FE3F80300600300600308600CC
:1058400019CC0019CC001B6C001B6C001E7C000ED8
:1058500038000E38000C18000C1800000000000082
:105860000000000000000000000000000000000038
:105870000000000000000000007E7E007E7E001818
:1058800018000C300006600003C000018000018099
:105890000003C0000660000C30001818007E7E0077
:1058A0007E7E0000000000000000000000000000FC
:1058B00000000000000000000000000000000000E8
:1058C000007C7E007C7E001818000C300006600012
:1058D00006600003C000018000018000018000011B
:1058E00080000180000FF0000FF0000000000000B9
:1058F00000000000000000000000000000000000A8
:105900000000000000000000001FF8001FF8001851
:10591000180018300018600018C000018000030053
:10592000000618000C18001818003018003FF80086
:105930003FF8000000000000000000000000000030
:10594000000000000000000000000000000001F066
:105950000001F00001800001800001800001800052
:1059600001800001800001800001800001800001B1
:10597000800001800001800001800001800001F0B2
:105980000001F00000000000000000000000000026
:105990001800001800001C00000C00000E0000069B
:1059A00000000600000300000300000180000180E9
:1059B0000000C00000C00000600000600000700037
:1059C000003000003800001800001800000000003F
:1059D00000000000000000000000000000000F8038
:1059E000000F800001800001800001800001800024
:1059F0000180000180000180000180000180000121
:105A000080000180000180000180000180000F8083
:105A1000000F8000000000000000000000000000F7
:105A200000000000800001C00003E00007700006D5
:105A300030000C1800180C001004000000000000DA
:105A40000000000000000000000000000000000056
:105A50000000000000000000000000000000000046
:105A60000000000000000000000000000000000036
:105A70000000000000000000000000000000000026
:105A80000000000000000000000000000000000016
:105A90000000000000000000000000000000000006
:105AA00000000000000000000000FFFF00FFFF00FA
:105AB00000000003000003800000E0000060000020
:105AC00000000000000000000000000000000000D6
:105AD00000000000000000000000000000000000C6
