:020000040800F2
:10000000604600209D0200083B640008B5550008CA
:1000100039640008F12600085D6F00080000000048
:1000200000000000000000000000000089660008D9
:1000300035280008000000003D640008B5020008F3
:10004000B7020008B7020008B7020008B7020008AC
:10005000B7020008B7020008B7020008B70200089C
:10006000B7020008B7020008B7020008B70200088C
:10007000B7020008B7020008B7020008B70200087C
:10008000B7020008B7020008B7020008B70200086C
:10009000B7020008B7020008B7020008B70200085C
:1000A000B7020008B7020008B7020008B70200084C
:1000B000B7020008B7020008B7020008B70200083C
:1000C000B7020008B7020008B7020008B70200082C
:1000D000B7020008B7020008B7020008B70200081C
:1000E000B7020008B7020008B7020008B70200080C
:1000F000B7020008B7020008B7020008B7020008FC
:10010000B7020008B7020008B7020008B7020008EB
:10011000B7020008B70200089D670008B702000890
:10012000B7020008B7020008B7020008B7020008CB
:10013000B7020008B7020008B7020008B7020008BB
:10014000B7020008B7020008B7020008B7020008AB
:10015000B7020008B7020008B7020008B70200089B
:10016000B7020008B7020008B7020008B70200088B
:10017000B7020008B7020008B7020008000000003C
:10018000B7020008B7020008B7020008B70200086B
:10019000B7020008B7020008B7020008B70200085B
:1001A000B7020008B7020008B7020008416400085F
:1001B000B7020008B7020008B7020008B70200083B
:1001C000B7020008B70200084B1C012B98BF70470C
:1001D0002DE9F003911C9B08B1F80480B1F802905E
:1001E0000A8831F802CC8044814402448444D9F81E
:1001F0000070D8F800601568DCF80040C9F80060AD
:10020000C8F80070CCF800501460D9F80470D8F821
:1002100004605568DCF80440C9F80460C8F804704C
:10022000CCF80450546008315B1ED5D1BDE8F00312
:1002300070474B1C012B98BF70472DE9F003911CB0
:100240009B08B1F80480B1F802900A8831F802CC1A
:1002500000EB580800EB590900EB520200EB5C0C74
:10026000D9F80070D8F800601568DCF80040C9F8CB
:100270000060C8F80070CCF80050146008315B1EB4
:10028000DFD1BDE8F0037047DFF80CD001F0E6FAEB
:1002900000480047A18400086046002006488047C7
:1002A00006480047FEE7FEE7FEE7FEE7FEE7FEE75B
:1002B000FEE7FEE7FEE7FEE749670008890200085F
:1002C0009FED3E0A5FEA920C59D000BFD0ED000AC4
:1002D00090ED011A0B1D60EEA00A083041EE010AF4
:1002E000F5EEC00AF1EE10FAA6BFB1EEE01A81ED0C
:1002F000001A81ED000AD0ED000A90ED011A00F11C
:10030000080160EEA00A181D41EE010AF5EEC00AD0
:10031000F1EE10FAA6BFB1EEE01A83ED001A83EDFC
:10032000000AD1ED000A91ED011A031D60EEA00A4A
:10033000083141EE010AF5EEC00AF1EE10FAA6BF4F
:10034000B1EEE01A80ED001A80ED000AD1ED000A4E
:1003500091ED011A081D60EEA00A191D001D41EE65
:10036000010AF5EEC00AF1EE10FAA6BFB1EEE01AEE
:1003700083ED001A83ED000ABCF1010CA6D112F046
:10038000030208BF704700BFD0ED000A90ED011ACC
:1003900008300B4660EEA00A091D41EE010AF5EE99
:1003A000C00AF1EE10FAA6BFB1EEE01A83ED001A12
:1003B00083ED000A521EE7D17047000000000000E4
:1003C00091ED001AD1ED010AB6EE000A31EE011AE4
:1003D00070EEA00A0388D0F814C001F108005B1E7B
:1003E00071EE201A71EE600A01EBC3010CF1080CEA
:1003F00021EE801A60EE800A82ED001AC2ED010A39
:10040000083200BFD1ED002A90ED003A9CED001AB1
:10041000D1ED010A72EEC33AD0ED011A9CED012A2A
:1004200033EE223A30EEA14A61EE234A62EE232AED
:1004300071EEE00A22EE042A73EE241A21EE041A69
:1004400070EEA20A083071EE821A083970EEC10A05
:100450005B1E21EE801A0CF1080C60EE800AA2EC03
:10046000011AE2EC010ACDD17047D1ED000A91EDFD
:10047000011AB6EE000A038870EE811A70EEC10A06
:10048000D0F814C05B1E01F1080021EE801A60EE66
:10049000800A01EBC30182ED001AC2ED010A02F1EC
:1004A00008020CF1080C08BF704700BFD1ED002A0C
:1004B00090ED003ADCED003AD1ED010A73EE621ADC
:1004C00090ED011A9CED014A73EE222A31EE202AAA
:1004D00023EEA15A71EE600A64EE211A64EE024A1C
:1004E00032EEC51A23EE822A70EEA10A083031EEF0
:1004F000641A083970EEC20A5B1E21EE001A0CF174
:10050000080C60EE800AA2EC011AE2EC010ACDD1DF
:1005100070472DE9F0410446008A1D0016460F463B
:100520004FEA500020800AD02046FFF79EFF2A465F
:1005300031462046BDE8F041012300F09FBB012376
:100540002A46204600F09AFB324639462046BDE84E
:10055000F04135E70022018249080180B1F5807F32
:1005600031D008DC10294FD0202945D040293BD07C
:10057000802931D008E0B1F5007F1BD0B1F5806F44
:100580000FD0B1F5006F03D04FF0FF321046704727
:100590004FF46E638381214B8360214B214943607B
:1005A00039E04FF4E16383811F4B83601F4B204987
:1005B000436030E04FF4E07383811E4B83601E4B39
:1005C0001E49436027E04FF4DC7383811C4B83603A
:1005D0001C4B1D4943601EE0D02383811B4B83606D
:1005E0001B4B1C49436016E0382383811A4B836000
:1005F0001A4B1B4943600EE030238381194B836003
:10060000194B1A49436006E014238381184B836019
:10061000184B194943604161B8E7000008450108DB
:1006200070ED000848A20108F836010870CD0008F6
:10063000488201087833010870BD0008487201083B
:100640000830010870B50008486A0108682E0108E2
:1006500070B1000848660108F82D010870AF000865
:1006600048640108982D010870AE0008486301082D
:10067000702D0108F0AD0008C86201082DE9F047AF
:10068000064688462DED088B0088D6F804C045083C
:1006900001EB8004AB08274601EB850004EB8502E3
:1006A0007ED000BF91ED001AD4ED001AD1ED013AD1
:1006B000D4ED01BAD1ED025A94ED022A91ED030A6C
:1006C000D4ED032AD0ED034AD2ED030A71EE217A6C
:1006D000D0ED006A90ED013A90ED025A92ED007A69
:1006E00092ED016A92ED024A33EEAB8A75EE828A90
:1006F00030EE229AC1ED007A76EE879A81ED018A7A
:1007000033EE06AAC1ED028A75EE04AA81ED039AC2
:1007100034EEA0BAC0ED009A80ED01AAC0ED02AAA5
:1007200070EE622A80ED03BA71EE611A9CED000A48
:1007300073EEEB3A70EEE44ADCED010A34EE454A22
:1007400035EEC22A21EE805A63EE805A63EEA03A5B
:1007500037EE661A36EE433A61EEA01A35EE236A9A
:1007600061EE203A23EE005A63EE200A21EE000AE1
:1007700075EEE11A84ED006A33EEC51AC4ED011A74
:1007800030EE800A82ED001A0CF1080A82ED010AAF
:100790005B1E9AED000A04F1080402F1080900E06A
:1007A0002DE0DAED010A22EE001A62EE801A62EE06
:1007B000A02A22EE202A0AF1080C00F1100031EEE6
:1007C000223A24EE201A64EE802A64EEA00A24EE77
:1007D000000A71EEC21A84ED003A31EE621AC4EDDD
:1007E000011A30EE800A89ED001A04F1080489ED3F
:1007F000010A01F1100109F108027FF453AF726898
:1008000002232946404600F0E1FA7268294638463C
:100810000223BDEC088BBDE8F04700F0D7BA2DE904
:10082000F34F04244FF0060B2DED0A8B87B011987F
:10083000DDF844C0D1ED003A0088DCF804C0460879
:100840000CF1080901EB860202EB8600D2ED000AEA
:1008500090ED002A00EB86031D1F93ED000A019422
:1008600005EB860473EE821A0492760805910CF16A
:100870001008D1ED014A30EEA11A90ED014A93ED36
:10088000013A33EEC22A71EE002A92ED011A74EE9B
:10089000C43AC1ED002A74EE842A009601F10401E5
:1008A00092ED015A71EE024A31EEE06A72EEC11A1F
:1008B00032EE412A35EE225A93ED014A74EEC32AF4
:1008C00071EEC31A32EE032A73EEE05A35EE043AA3
:1008D0000CF1180703900293A6F1020C70EEA33AF4
:1008E00081ED003A161F35EE801AC2ED002A02F1A2
:1008F000040E76EE400A8EED001A01F10402C0EDFE
:10090000000A00F104015FEA5C0AA0F1040CC1EDE9
:10091000001A0EF1040033EEC00A83ED002A03F141
:10092000040E01F104038EED000A0EF1040100F043
:10093000078100BFD2ED007AD3ED006AD0ED002A26
:1009400091ED002A37EEA61AD2ED010A90ED016A68
:10095000D1ED015A32EE810A31EE629A77EEE66A03
:1009600070EE021A93ED010A76EE267AC2ED001AB5
:1009700030EE805AD0ED011A91ED013A71EE851AF0
:1009800075EE469A71EE831AC2ED011AD6ED003A61
:10099000D5ED004ADCED001A94ED001A33EEA47A8E
:1009A00016ED01AA55ED018A14ED014A31EE873AA0
:1009B0003AEE285A33EE018A1CED013A86ED008AA0
:1009C0005CED01AA37EEE58A7AEE857A54ED01AA4C
:1009D00077EEAABA70EEC07A71EEC1AA46ED01BAFE
:1009E000D9ED010A37EEE20A72EEA77A7AEE682AAA
:1009F00030EE02BA99ED000A7AEEA28A68EE00BAE9
:100A00002BEE20CA2BEE00BA28EE208A28EE80AA10
:100A10007BEE8CBA3BEE488AC0ED00BA80ED018ACD
:100A200033EEE48A38EE438A38EE048A28EE20BAA0
:100A300068EEA00A28EE000A39EE428A3BEE4AAA86
:100A400079EEE58A30EE800A8CED00AA0CED010A01
:100A500037EE610A30EE417A98ED000A28EE009AEE
:100A6000D8ED010A35EE435AB1EE47AA68EEA09AD6
:100A700068EE808A28EE208A35EE445A79EE299A6B
:100A80002AEE009A38EEC88AC3ED009A25EE000AD5
:100A900083ED018A25EE208A67EE200A37EEC22A0E
:100AA00034EE433A39EE488A30EEC00A31EEC11ACC
:100AB00085ED008A05ED010A36EEC60AD7ED010A7A
:100AC00031EE621A083030EE255A97ED000A22EE18
:100AD000206A083265EE005A22EE002A25EE205ADE
:100AE00061EE001A75EE865A083332EE452AC1EDE2
:100AF000005A083D81ED012A33EEE42A0831083E10
:100B000009F1080933EE422AACF1080C07EB8B0718
:100B100022EE203A61EE200A22EE000A73EE611AFC
:100B200030EE800AC4ED001A04ED010ADDF804E09D
:100B3000083CBAF1010A08EB8E087FF4FBAE00BF57
:100B400092ED001A93ED000A92ED013A71EE000A5F
:100B500071EE402A90ED000A30EE201A70EEC01AB5
:100B6000D1ED000A71EE203A31EEE01AD3ED011A10
:100B700033EE212A73EE611A31EEC03A30EE210ACB
:100B800073EE201A30EE603A90ED010A70EE220A00
:100B900032EEC04AD1ED012AC2ED003AD0ED013A61
:100BA00032EE400A70EEE20A33EE822AD1ED013ACB
:100BB00030EE620A74EE222A32EE232A82ED012AF6
:100BC00099ED002AD9ED013A20EE824A60EEA30A9F
:100BD00061EEA33A61EE821A34EE232A71EEE00A46
:100BE00080ED002AC0ED010AD8ED010AD8ED001A07
:100BF00020EE202A61EE213A20EE210A61EE200A41
:100C000033EE821A30EE600A83ED001A83ED010A9A
:100C100097ED000AD7ED010A042362EE801A23EE55
:100C2000201A23EE000A62EEA00A31EE811A30EE9D
:100C3000600A81ED001A81ED010A1198009942685D
:100C4000059800F0C3F811980423009942680498AD
:100C500000F0BCF81198042300994268039800F052
:100C6000B5F81198042300994268029807B0BDECCA
:100C70000A8B02B0BDE8F04F00F0A8B82DE9F041B2
:100C80000488012A984617460D46064621D1281D9C
:100C9000FCB114F0010FA0F1080106D091ED020A99
:100CA000B1EE400A81ED020A08315FEA540C10D01F
:100CB00091ED020AD1ED040ABCF1010CB1EE400A3B
:100CC000F1EE600A81ED020AC1ED040A01F11001A2
:100CD000EED1B4F5807F1BD008DC102C13D0202C73
:100CE00016D0402C19D0802C0DD01CE0B4F5007F1C
:100CF00013D0B4F5806F06D0B4F5006F08D0B4F50A
:100D0000805F0AD00FE029463046FFF7B7FC0AE0C3
:100D100029463046FFF783FD05E07268012321462E
:100D2000284600F053F8B8F1000F04D0B1892846E6
:100D3000B268FFF749FA012F18BFBDE8F08100EE55
:100D4000104AF7EE000A002CB8EE401A80EE810A35
:100D500008BFBDE8F08114F0010FA5F108000ED026
:100D6000D0ED030A90ED021AF1EE600A21EE001AAE
:100D700060EE800A80ED021AC0ED030A08306108B7
:100D800008BFBDE8F08100BF90ED031AD0ED021A54
:100D9000D0ED050A90ED042AB1EE411A61EE801AF9
:100DA000F1EE600A22EE002A21EE001A60EE800ABF
:100DB000C0ED021A80ED042A80ED031AC0ED050A89
:100DC000491E00F11000DFD1BDE8F0812DE9FF4F91
:100DD0002DED108B82B09FEDFE0A0B464FF0000CFC
:100DE0009E46DB080CEB0304E51800EBC408EC1886
:100DF00004EB030600EBC50906EB030500EBCC078B
:100E000000EBC60605EB030AD6ED000AD7ED002A73
:100E10000AEB030B00EBC50532EEA01A00EBCA0A81
:100E200072EEE00A95ED002ADAED004AD8ED002ACC
:100E300099ED005A00EBCB0B00EBC404DBED001A7C
:100E400094ED003A32EE824A75EE243A72EEC22AEE
:100E500033EE212A33EE613A71EE631A71EE233AD2
:100E600034EE421A34EE022A32EEC38A72EE832A3C
:100E700035EE645A33EE823A33EEC22A62EE806A6D
:100E800087ED003A86ED002AD8ED017A95ED014A0A
:100E900097ED017A96ED013AD9ED013A9AED012AE2
:100EA000D4ED018ADBED014A77EE845A37EEC44A6D
:100EB00037EE036A78EEA42A73EE827A73EEC23AB2
:100EC00035EE662A37EE433A75EE266A36EE677AD5
:100ED00036EE275A78EEE44A35EEE26A75EEA25A0B
:100EE000F44474EE648A74EE242A75EE257A35EEA5
:100EF000655A71EE865A62EE802A28EE004A68EE44
:100F0000804A31EEC66A8C4537EE418A37EE017A67
:100F100030EEC41A70EE841A73EE640A33EE244A7B
:100F200033EEE23A73EEA22AC7ED017A86ED015A5A
:100F3000C9ED005A71EEA23A71EEE21A8AED006A2A
:100F400089ED018A71EE032A8AED017A31EE431AA6
:100F5000C8ED003A34EE663ACBED001A34EE264A7C
:100F6000C5ED002A70EEC24A84ED001A70EE820AC6
:100F700088ED013A8BED014AC5ED014AC4ED010A45
:100F8000FFF430AF082B3FBF02B0BDEC108B04B0B4
:100F9000BDE8F08F4FF0000CCDF804C04FF0010C0D
:100FA000CDF800C0DDF804C0159C64440194DDF860
:100FB00000C065002E1902EBC40702EBC508351905
:100FC00097ED00FA97ED019A98ED00CAD8ED018AE5
:100FD00002EBC60702EBC5082E1935192C4402EBAB
:100FE000C60602EBC50502EBC404D7ED00BA97EDC7
:100FF000018A98ED00BAD8ED017AD6ED00AA96EDF7
:10100000017A95ED00AAD5ED016AD4ED009A94ED30
:10101000016A00BF0CEB0304E51800EBC409EC18EF
:1010200004EB030808EB030700EBCC0A00EBC50652
:1010300000EBC80807EB030598ED001ADAED000A8B
:1010400000EBC70705EB030B30EE814A30EEC11A07
:10105000D7ED002AD9ED000A00EBCB0B00EBC5055C
:1010600030EEA23A00EBC40470EEE20A9BED002AD7
:10107000D5ED001AD6ED002A94ED005AF44472EE34
:10108000A14A75EE023A35EE422A72EEE11A74EE8A
:10109000642A33EE635A34EE244A33EE233A70EE78
:1010A000823A70EEC2EA8C4534EE032A74EE430AAB
:1010B00023EE804A8AED002A9AED013A98ED012A42
:1010C0006BEE20FA27EEA0DA73EE020A33EE423A14
:1010D00031EEC42A71EE841AD9ED013A97ED014A36
:1010E000D6ED015AD4ED01DA73EE84CA73EEC43A38
:1010F00095ED014A75EE844A35EEC44A30EEE4EAD5
:1011000070EEA45ADBED014A7DEEA40A7DEEE44ABE
:101110007CEEE0DA7CEEA0CA72EEAD0A72EEED2A49
:1011200075EEACDA75EEEC5ACAED01DA67EEA5DAC7
:101130006BEE25CA7EEE455A3EEE055A7FEEADDADD
:101140007CEECDCA28EEA5EAC8ED00DA6CEE20DA16
:10115000C8ED01CA6CEE255A68EEA00A73EEE4CA27
:1011600073EEA43A7DEE8EDA75EEE04A6CEE80CA3C
:101170002AEE22EA66EEA25A63EE803AC6ED00DA63
:1011800073EE6C2A2EEE80DA33EE2C3AC6ED014A6D
:1011900066EE85FA74EE634A74EE233A2AEE055A37
:1011A00071EE4D0A33EE614A31EE0D1A3EEE2FEA32
:1011B00073EE211A32EEC23A75EE655A72EE822A49
:1011C00085ED00EA31EE232A29EE045A02E0000000
:1011D000F304353F31EE631A70EEA43A70EEE40A80
:1011E0006FEE024AC5ED015A66EE215A2FEE044A0F
:1011F00034EE855A69EE814A29EE022A69EEA11A77
:1012000026EE011A74EEA55A34EE422A67EE034A1E
:1012100071EEC11A2AEE831A27EE233A2AEEA34A68
:1012200089ED005A89ED012A6BEEA03A28EE222AB8
:1012300031EE433A2BEEA21A68EE200A34EE244A2D
:10124000CBED005ACBED011A73EE821A71EE600AF3
:1012500087ED004A87ED013AC4ED001AC4ED010A9A
:10126000FFF4D8AEDDF800C00CF1010CCDF800C0E1
:1012700063453FF697AE159C4FF6FF7C072B0CEAB3
:10128000C40CCDF854C03FF6A9AD02B0BDEC108B34
:1012900004B0BDE8F08F2DE9F05F054600209246CE
:1012A0009B4688460646814640241BE02846414628
:1012B0004746224600F08DF953465A46C01A9141DE
:1012C00010D311461846224600F074F92D1A67EB28
:1012D00001084F4622460120002100F06BF917EB70
:1012E00000094E41201EA4F10104DFDC48463146CE
:1012F0002A464346BDE8F09F40EA01039B0703D01E
:1013000009E008C9121F08C0042AFAD203E011F844
:10131000013B00F8013B521EF9D27047D2B201E006
:1013200000F8012B491EFBD270470022F6E710B5EA
:1013300013460A4604461946FFF7F0FF204610BD43
:101340002DE9FE4F81EA030404F0004421F000413E
:1013500000944FF0000B23F0004350EA01045ED0EC
:1013600052EA03045BD0C3F30A54C1F30A552C4478
:10137000A4F2F3340194A0FB0254C1F3130141F42D
:101380008011C3F3130343F4801301FB024400FBF9
:10139000034E840A970A44EA815447EA8357A4FB20
:1013A000076802958D0A05FB07854FEA932C04FB1D
:1013B0000C542705029D4FEA065847EA1637B5EB4D
:1013C00008056EEB070C870E920E47EA811742EA7A
:1013D0008312A7FB0201B6EB0B0164EB00042B0D9B
:1013E00043EA0C335E1844EB1C50DA465146E7FBE7
:1013F0000201C5F313044FEA0B3343EA14534FEAD7
:101400000432019C43EA0603A4F10C040294009CFC
:10141000CDE900B400F0FCF803B0BDE8F08F002087
:101420000146F9E72DE9F04D81EA030404F0004B91
:1014300021F0004514464FF0000A23F0004150EA25
:10144000050220D054EA01021DD0C5F30A57024616
:10145000C5F31303C1F31300C1F30A5640F480151A
:1014600043F48013A7EB0608101BD64608F2FD389C
:1014700073EB050002D308F1010801E092185B410B
:10148000B8F1000F03DA00200146BDE8F08D00201E
:101490004FF48011064684460EE0171B73EB0507D8
:1014A00005D3121B63EB050306434CEA010C490804
:1014B0004FEA300092185B4150EA0107EDD152EA41
:1014C000030012D082EA040083EA0501084305D034
:1014D000101BAB4106D20122002306E000224FF090
:1014E000004302E06FF0010253101AEB06004CEBD0
:1014F000085110EB0A0041EB0B01BDE8F04D00F084
:1015000078B80EB5C10F80EAE0700844CA07002120
:1015100040F233438DE80E000A460B4600F078F89F
:1015200003B000BD70B5C1F30A5201F000450024BC
:10153000C1F3130140F2FF3341F480119A4201DA02
:10154000002070BD40F233439A42A2F2334203DCE2
:10155000524200F03EF800E090402C43F1D040426F
:1015600070BD00F0004230F000400AD0C10D01F51E
:101570006071C0F3160042EA0151C20840071143EE
:10158000704700200146704730B50B4601460020E9
:101590002022012409E021FA02F59D4205D303FA35
:1015A00002F5491B04FA02F52844151EA2F10102B6
:1015B000F1DC30BD202A04DB203A00FA02F10020E1
:1015C00070479140C2F1200320FA03F31943904081
:1015D0007047202A04DB203A21FA02F000217047EC
:1015E00021FA02F3D040C2F120029140084319468B
:1015F000704710B5141E73F1000408DA401C41F165
:10160000000192185B411A4301D120F0010010BD86
:101610002DE9F04D92469B4611B1B1FA81F202E0FC
:10162000B0FA80F220329046FFF7C4FF04460F461E
:1016300040EA0A0041EA0B0153465A46084313D0D8
:10164000114653EA010019D0C8F140025046FFF795
:10165000C0FF05460E46504659464246FFF7AAFFD0
:10166000084305D0012004E020463946BDE8F08D4E
:101670000020054346EAE0762C4337430A98630589
:10168000E40AA0EB08000022FD0A44EA47540A30AD
:1016900002D500200146E9E7010510196941DDE99D
:1016A000084500196941BDE8F04DA2E72DE9FE4F5C
:1016B000804681EA0300C00F0C46009021F00041F3
:1016C00023F00045B8EB0200A94105D2404621466F
:1016D00090461C460B46024623F00040104347D07C
:1016E000270DC7F30A00C3F30A510290401A019074
:1016F00040286BDAC3F3130040F4801B0098924635
:1017000020B10023D2EB030A63EB0B0B019859467F
:10171000C0F140025046FFF74DFF06460D465046C9
:101720005946019A00F0ACF810EB08006141002422
:1017300087EA115284EAE7731A4340D0009A62B3F1
:10174000019A012A4FEA075215DC001B61EB0201E6
:101750004FF0004202EA0752CDE90042001C41F579
:10176000801132462B46FFF753FF03B0BDE8F08FE0
:1017700040462146F9E7001B61EB0201001C41F5E0
:10178000801300185B412018A2F5001747EB0301F6
:1017900040EAD570B6196D4111E06D084FEA360682
:1017A00045EAC0754FEA0752001B61EB0201001CBD
:1017B00041F5801149084FEA300000195141324685
:1017C0002B4603B0BDE8F04FFFF713BF009801228E
:1017D00040000023D0EB020263EBE0730098214647
:1017E0004FEAE074B8EB000061EB0401E9E783F035
:1017F00000435BE781F0004158E7C1F30A52C1F3AF
:10180000130140F2FF3341F480119A4202DA0020C2
:101810000146704740F233439A42A2F2334202DC5F
:101820005242FFF7D6BEFFF7C5BE000030B5041E1A
:1018300071F1000404DB4FF00044404264EB01010D
:10184000141E73F1000405DB1C464FF000435242A6
:1018500063EB0403994208BF904230BD064C074D2C
:1018600006E0E06840F0010394E807009847103470
:10187000AC42F6D3FEF70CFD68E3010888E30108EB
:10188000202A06DBCB17203A41FA02F043EAE07344
:1018900006E041FA02F3D040C2F120029140084331
:1018A000194670470EB540F2334102910021CDE94F
:1018B00000110A460B46FFF7ABFE03B000BD7047B0
:1018C00001F00EBB014803F0CBBF0000D43C002068
:1018D0003EB50224002202ABADF80820CDE9003469
:1018E0000A4623460146064804F074F8BDF808008D
:1018F0000102000AC1F3072140EA01203EBD0000B9
:10190000D43C002037B582B00A46022404ABBDF8AF
:101910001010CDE9003423460D02090A2D0A41EAD0
:101920000521ADF810100146024804F068F805B032
:1019300030BD0000D43C00207047704713460A4673
:1019400001464FF4007000F001B800002DE9F041AD
:10195000B0F5407F0F464FF4007405464FF0010686
:1019600001D0A54232D104F019FE1A4800223946AE
:1019700000F0D5F8174918480860084602F0F6FF4D
:1019800038B91448002100F0F5F81248002100F0A1
:1019900029F8A54201D10A2100E005213A4601209B
:1019A00004F00AFE0D4C3420A1688847A0F50941D7
:1019B00094390BD1E16A3420884709480026642213
:1019C0003B462946446034202468A0473046BDE8A1
:1019D000F0810000F03D0020245C0140D000002098
:1019E000B40000202DE9F0410646344886B0016875
:1019F00041F4000101600068304D00F400000590E2
:101A0000143D286840F04000286028680024022720
:101A100000F040004FF48068CDF80080CDE90174FB
:101A20000A210397CDE904102548694601F086FB99
:101A3000286840F08000286028686946CDE90247A0
:101A400000F080000590B803CDE900041D4801F0C6
:101A500075FB286840F480002860286800F4800046
:101A600005901948316881421DD11849C2144FF0C0
:101A7000030C970143144C6085158C60C1E9034841
:101A8000C1E90874C1E90AC411480C6341F8140B98
:101A90000E4881E82C00143931678E6301F03EF95D
:101AA0000A4801F06DF900220F21282001F0CAFF39
:101AB000282001F0BAFF06B0BDE8F08144380240AA
:101AC00000180240001C0240245C0140D43E00206B
:101AD000B86402408AB20146024810B503F064F9C6
:101AE000002010BDF03D002010B50446094802F06A
:101AF000B8FE09482146406882693420904708B101
:101B0000012010BD012C02D1012001F0E9F90020D3
:101B100010BD0000F03D0020B4000020704710B55B
:101B2000A2B00C46684601F0FDFFA4F52C51113916
:101B30004FF480104FF4800115D0A4F5AC42223A46
:101B400011D0A4F52C42443A0DD0072301244FF4C0
:101B5000AC72109109940393CDE90002684602F03B
:101B60000BF922B010BD022340F2AD121324F0E7AE
:101B7000704700002DE9F04F0646474887B00168DE
:101B800041F4000101600068434F00F4000005903B
:101B9000143F386840F480703860386800F4807012
:101BA0000590386840F480703860386800F48070C0
:101BB0000590386840F48070386038684FF002084B
:101BC0000325DFF8D8B000F480704FF00A098021B7
:101BD000CDE9001800246946CDE90490CDE902451D
:101BE000584601F0ABFA2021584602AACDE9001868
:101BF000694682E8300201F0A1FA02AA4FF0400AD9
:101C00006946584682E83002CDE900A801F096FA0C
:101C100010226946CDE9002802AA584682E830021F
:101C200001F08CFA386840F480003860386800F4BD
:101C3000800005901A483168814221D11949031565
:101C40006A06C7144FF480784A600420C1F808A0DF
:101C5000DA01C1E90343C1F81C804FF4005CC1E91B
:101C60000A54114B0C630B60C1E90820C1E9057CE3
:101C7000F16608468E6301F051F80A4801F080F8D9
:101C800000220E213C2001F0DDFE3C2001F0CDFEC3
:101C900007B0BDE8F08F0000443802400020024049
:101CA000045C0140743E0020706402401CB5044690
:101CB00000F064F9034600F051F902460020CDE936
:101CC00000040648064C006800EB800101EBC001EF
:101CD00004EB8101C96D03F0A7FE1CBDBC00002010
:101CE000184000200648C02330B4082405220460B0
:101CF00061034361C261C16230BC02F03DB80000C3
:101D0000943F002030B40A4C0A4B246804EB44048E
:101D100003EB84039B689C881D68E41DDB88E40852
:101D2000203A14FB02F203FB025230BC00F084BDE7
:101D3000BC00002000410020094810B500688169FE
:101D400041F00101816101220648110301F0E2FA2C
:101D500001220548BDE81040082101F0DBBA00006F
:101D60001840002000200240002802402DE9F047E2
:101D7000002704461546894610463A4600E0521CA4
:101D800010F8011B0029FAD100F0E8F8DFF89CC038
:101D9000012B274EDCF8001001EB410106EB81011D
:101DA00089688988B0FBF1F002D0022B09D104E0E8
:101DB000801A484304EB500002E0801A4843001B9D
:101DC00084B247F6FF71601E884200D30124E046CA
:101DD00000F0C4F80146D8F8000000EB400006EB24
:101DE00080008068808807FB101189B2814213D37C
:101DF000012012E049462046FFF784FFD8F8000092
:101E00007F1CBFB26D1C00EB400006EB80008068B9
:101E10008088204484B2DBE700202A780AB10121BF
:101E200000E000210842E5D1BDE8F087BC000020B9
:101E3000004100202DE9FC4F151A0027002D00DC81
:101E4000851A5C1A0FFA85FC002C00DCCC1A06B24D
:101E500082424FF0FF320DB220B203D3012400942E
:101E6000A24601E0924600928B4203D34FF0010B51
:101E7000D94601E09346D9464FF00001844507DB7F
:101E8000894600910CEBDC71E04601904C102AE091
:101E90008A464FF0000B00EBD0718046CDF804C0AD
:101EA0004C1020E01248A9B2124B0268B0B202EB0B
:101EB000420253F8222000F01FF80198204404B297
:101EC000444508DB0098A4EB08010CB2321805EB7E
:101ED0000B0016B205B27F1C06EB0A0105EB0900E8
:101EE0000EB205B23FB24745DCDDBDE8FC8F000015
:101EF000BC00002000410020164B70B506460D4680
:101F00001868154C00EB800101EBC00004EB800069
:101F1000806C02280ED000F021F8196805FB0060E3
:101F200001EB810303EBC10104EB8101C96D41F8B1
:101F3000202070BD00F012F8196805FB006001EB6D
:101F4000810303EBC10104EB8101C96D21F810206D
:101F500070BD0000BC00002018400020054800684B
:101F600000EB800101EBC000034901EB8000006E33
:101F700070470000BC0000201840002005480068A1
:101F800000EB800101EBC000034901EB8000406ED3
:101F900070470000BC000020184000202DE9F041EF
:101FA000224C2820092140F21B1604F1140840F2AB
:101FB0001525352240F21D1C0B2340F2352788E8F9
:101FC000EF1000212046FFF78DFE4FF4F0722266DD
:101FD0004FF488716166002084F8340084F835007D
:101FE00084F836006060A060114AE06022602061E1
:101FF000204601F0ECFB18B90021204600F05EF805
:102000000A4801F0E7FB01220A48110301F082F9B6
:1020100009480122082101F07DF900F02FF9074855
:1020200000F0FCF80020BDE8F0810000184000201E
:102030000068014000200240002802407C0000208F
:1020400070B58EB00A46002304460093FFF786FF62
:10205000CDE90103FFF792FFFF25039007208DF8DC
:102060003030022109928DF831304FF4C066CDE94D
:10207000041506938DF83230CDE90760FFF76EFF47
:102080000A90FFF77BFF0B9022460A48694601F051
:1020900075FB084804EB44014FF0FF34E83000EBD7
:1020A000810223065460044C946040F821300EB045
:1020B00070BD0000184000207C0000204748F0B5AB
:1020C000016887B041F080610160006800F08060C5
:1020D000059042481438016841F40001016001682C
:1020E00001F400010591016841F0100101600168EF
:1020F00001F010010591016841F0400101600168A3
:1021000001F040010591016841F4807101600168AE
:1021100001F480710591016841F40071016001686A
:1021200001F400710591016841F48061016001686A
:1021300001F480610591016841F4807101600168DA
:1021400001F480710591016841F4806101600068CB
:1021500002240E2500F4806005901020CDE90004D3
:1021600002A8002180E832001D48694600F0E6FF21
:10217000E6026946092004901A48CDE9006400F09F
:10218000DDFF194F4FF46640CDE90004694638463B
:10219000049500F0D3FF4EF6FF706946CDE90004C8
:1021A0001248049500F0CAFF0495F720104D6946C7
:1021B000CDE90004284600F0C1FF012469463846F5
:1021C000CDE9006400F0BAFF08206946CDE90004BB
:1021D000284600F0B3FF07B0F0BD000044380240CD
:1021E000001002400018024000200240002402407B
:1021F000002802400149086070470000BC00002030
:102200000449054A096801EB410102EB810148607C
:1022100070470000BC000020004100200449054A2E
:10222000096801EB410102EB810188607047000001
:10223000BC00002000410020094A8423012903EB4F
:10224000C01011680B5808D023F001030B50106820
:10225000416A41F001014162704743F00103F5E733
:10226000184000200349044A096801EB410142F883
:1022700021007047BC000020004100201B480222C2
:102280002DE9F04100F13401174E072306600425C3
:1022900081E82C00CB6000240A61D7014A61102339
:1022A0008A61910244604026C0E902454A00C0E9C3
:1022B0000741C0E909241030002180E8C800103827
:1022C00000F05EF809490948343102F0CBFD084DB1
:1022D00010B10120287000E02C7040F2036000F083
:1022E00009F82878BDE8F081400100A0D84100201D
:1022F000C00000202DE9F843204C102700254FF6A0
:10230000FF780126009521468146C4E90067C4E9AB
:102310000265A1F15000424602F0D8FD012000F014
:10232000DFFD02202146C4E90007C4E90265A1F1EE
:102330005000424602F0CAFD03214246C4E900179C
:1023400008202146C4E90205A1F1500002F0BEFDBB
:102350004FF40870009004214246C4E90260C4E9C9
:1023600000172146A1F1500002F0B0FDA4F1500089
:102370004946BDE8F84302F098BD0000284200201D
:10238000F0B504464F4887B0016841F00101016093
:1023900000684C4900F0010005900839086840F4D5
:1023A00080000860086800F480000590086840F02C
:1023B00004000860086800F004000590086840F018
:1023C00008000860086800F008000590086840F000
:1023D00010000860086800F010000590086840F0E0
:1023E00020000860086800F020000590086840F0B0
:1023F00040000860086800F040000590086840F060
:1024000080000860086801210C2200F0800005901F
:102410000220CDE9010108230093CDE903022A48F7
:10242000694600F08BFE4CF2037000902748694625
:1024300000F084FE4FF6837000902548694600F056
:102440007DFE4FF63F0000902248694600F076FE80
:1024500048F2331000902048694600F06FFE2820B3
:1024600000901E48694600F069FE1D494FF4007552
:1024700000224FF0800CEE006F004A606801C1E955
:1024800002C5C1E904761831164EC300032581E860
:102490000D00C1E903254A618A6141F8186D216385
:1024A0000F488C6300F03AFC0D4800F069FC0022F4
:1024B0000F21382001F0C6FA382001F0B6FA07B033
:1024C000F0BD00003838024000080240000C024015
:1024D000001002400014024000180240001C02409C
:1024E00018410020106402402DE9F04F95B0584D7E
:1024F0004FF0000B06465C46CDF844B0CDF848B02E
:10250000CDF84CB0A8680169687888470028307019
:102510007ED000240DF1100A0DF1380908AF8BE0D0
:10252000A8680DF12C080AEB440208EB440143694A
:10253000687898472878012807D138F8142029F8B6
:1025400014203AF8141027F81410810705D538F82C
:102550001410C1F5805129F81410410705D53AF837
:102560001410C1F5805127F81410000707D538F86A
:10257000140027F814003AF8141029F81410DFF8A2
:10258000D48039F8140058F82410884201D9421A2E
:1025900000E00A1A2F491FFA82FC37F81420143180
:1025A00051F824309A4201D9D31A00E09B1A9BB209
:1025B0006344052B03D948F8240041F8242095F8FA
:1025C00001C0BCF1700F26D058F8242006EB44005F
:1025D0006B885A43120B428051F82410AA88514349
:1025E000090B818113A8214612AB009011AA604605
:1025F00005F05CFE301911998175129980F8201050
:10260000139979B101290FD0022910D0032900E0D4
:102610001AE010D10DE006EB4401488037F81400B1
:102620008881DFE7012100E00221C17603E0032178
:10263000FBE780F81BB0641C3078A0423FF670AF17
:10264000304600F009F8044615B02046BDE8F08F8A
:10265000C400002038420020F8B504461448002683
:10266000694600963546407805F010FE0098182817
:1026700016D005DC68B110280DD0142806D10CE066
:102680001C280FD040280FD049280FD001252846FC
:10269000F8BDA662FBE7012000E00220A062F6E799
:1026A0000320FBE70420F9E70520F7E70620F5E71C
:1026B000C400002070B50C4C00260C4D60807020CA
:1026C000A18029688847696870208847512802D00E
:1026D0000326304670BDA56070206070082121700F
:1026E000E9688847F5E70000C40000208400002066
:1026F000FEE710B5FFF706F9002010BDF0B5059C08
:1027000044EA034503685C6C04F040442C435C6479
:102710000368DA634268B2F5403F02D00068C160E6
:10272000F0BD01F47F42856801F47F04224301F08B
:102730007F4301F47F0701F47F46CCB2BDB1012D88
:1027400016D001F47F02C1F3C401D20C022D11D0C6
:10275000032D14D0320B390D15011A0F45EA012350
:10276000210943EA02320A4300688263F0BD1A433A
:102770002243F9E7B30A5B0143EAC222F3E7F40A12
:10278000DB0F640144EA822242EAC332EBE7000035
:1027900001681823CAB2103AB2FBF3F2054B6FF38B
:1027A0000901032A9B5CC36500D9091D81650846A0
:1027B00070470000D0AD000810B583694FF0C074B9
:1027C000826A0146002053B1B3F5005F15D072B1A3
:1027D000012A0CD0022A0AD0032A09D104E01AB136
:1027E000012A06D0022A03D1C96AC90100D50120F5
:1027F00010BDC96AA142FAD010BD002AF7D0012A43
:10280000F2D0022AF3D0032AF3D010BD30B5046809
:10281000256825F480252560046863608368402B63
:10282000036803D099600068C26030BD9A60006898
:10283000C16030BD704700002DE9F74F29480026E0
:10284000DFF89CA0006800EB40000AEB8000806885
:102850008588C788E81D834620F00700401B00F0EC
:10286000FF0939E04FEADB010298012901FB06006C
:1028700009D0022909D0017842788378080440EA17
:102880000220184303E0007801E0008840BA0024E9
:1028900080461AE02A1B02EB09010120491E8840EC
:1028A00010EA080F009800EB04020E48016890B28D
:1028B00001EB410202D05AF8222002E00AEB820129
:1028C0004A680199FFF718FB641CAC42E2D30198F7
:1028D000401C80B20190761CBE42C3D3BDE8FE8F7F
:1028E00000410020BC0000207047F0B5D1E901256F
:1028F000D1E90343D1E905762A43D1F800C044EA7F
:102900000304D1E9073542EA0402496A42EA0702B0
:10291000BCF1010F42EA060208D004681A432A43B8
:102920000A43E30BDB031A4302600BE006684468CA
:102930002B4326F4F84529430B4303606FF30E0441
:10294000224342600020F0BD426942EA41014161F8
:102950000020704738B591E81C00C9686FF01F056A
:102960001A4305EB441444EA41210A4300920261F0
:10297000002038BD2DE9F043914691E81C006FF02E
:102980000F05521E2E0105EB03131A430B7E06EBB7
:1029900004268C8A2F034FEA054C0D8A32434FF0F0
:1029A0007F4808EB0366CB68B9F1010F07EB0545DB
:1029B0000CEB04540CD081683F1107EB03331A432E
:1029C0002A432243324301F070410A43826011E0FE
:1029D0008168DFF828C0C7681B03A3F58053234331
:1029E0002A4301EA0C0132430B43836007F0704431
:1029F0002243C2600020BDE8F0830000FF0F0FFFFC
:102A000070B590F83820012A23D0244C012680F894
:102A10003860022300EB011280F83930158CD3693D
:102A200018320A2B43EA054515D0092B13D0137B26
:102A300045EA0363056899B1E969A1431943E9616E
:102A4000016813680B6151680A291BD0092919D044
:102A50001DE0022070BDD36803F07F432B43E9E7FC
:102A6000696AA14319436962016813688B615168FF
:102A70000A2901D009290AD1D168026821F07F41D1
:102A8000916204E0D168026821F07F411162002167
:102A900080F8396080F83810084670BD0F0003FFD9
:102AA00070B5040004D094F83900002510B106E098
:102AB000012070BD204684F8385000F01FF8022035
:102AC00084F83900D4E900030121026822F440327D
:102AD0001A4302602068A368426B22F007021A437F
:102AE00042632068E368026C6FF30D021A430264CC
:102AF000E56384F83910002070BD000008B5006857
:102B00000649884208D10648016841F40001016085
:102B1000006800F40000009008BD000000B0024012
:102B2000303802402DE9F8430026044604270D46BC
:102B300000964FF0030800680068C00726D000F038
:102B4000EFFB81461EE04068009010F0210F10D08E
:102B50000098800603D5E06B40F00200E063009827
:102B6000C00703D0E06B40F00100E0632168212042
:102B700035E0681C06D000F0D3FBA0EB0900A842AA
:102B80004DD8A5B3206841688907DCD52068C169A4
:102B9000406A01F0200100F02000084335D000F029
:102BA000BFFB81462DE04068009010F0290F1FD038
:102BB0000098000703D5E06B40F00400E063009844
:102BC000800603D5E06B40F00200E0630098C00788
:102BD00003D0E06B40F00100E063216829208860A9
:102BE00084F83970012084F83860BDE8F88316E075
:102BF000681C06D000F094FBA0EB0900A8420ED898
:102C00006DB120684168C906CDD522681221012026
:102C1000916084F83900002084F83860E5E7E16BC2
:102C200084F8386041F02001E16384F839800320A2
:102C3000DBE7F8B50446069894F83850012D10D01B
:102C4000012684F83860022584F839500090204627
:102C5000FFF754FD2068016841F001010160002088
:102C6000F8BD0220F8BD2DE9F041876D044600F063
:102C700057FB064694F835000025022806D0802030
:102C80006065012084F83450BDE8F0812068016857
:102C900021F0160101602068416921F08001416145
:102CA000206C08B9A06C20B12068016821F00801EF
:102CB00001602068016821F0010101600CE000F072
:102CC0002FFB801B052807D920216165032084F88C
:102CD000345084F83500D7E720680068C007EED18B
:102CE00094F85C203F2001219040B86084F8345073
:102CF00084F835100020C7E790F83510022903D07A
:102D00008021416501207047052180F83510006859
:102D1000016821F0010101600020704770B50400D6
:102D20002BD094F83500022826D0206800252122D7
:102D3000016821F00101016020680560206845609C
:102D4000206885602068C560206805612068426150
:102D50002046FFF71DFD94F85C203F2191408160E3
:102D6000E56325646564A564E5642565656584F8A7
:102D70003550002084F8345070BD012070BD000033
:102D80002DE9F047044600F0CBFA054664B14FF058
:102D9000000984F83490022184F835102068016815
:102DA00021F0010101600EE00120BDE8F08700BFC5
:102DB00000F0B6FA401B052805D9202161650320E3
:102DC00084F83500F1E720680068C007F0D1D4E945
:102DD0000020D4E90251D4E9043C284304F1180549
:102DE00019430843116895E8E00140EA0C001C4BC8
:102DF0002843194040EA060040EA0700B8F1040FF2
:102E000040EA010003D1D4E90B13194308431060D1
:102E100020680126656A4069042D20F0070045EA14
:102E200000050CD1D4E90A01054341B12046FFF762
:102E3000C3FC20B14020606584F83560B4E72068A9
:102E400045612046FFF7A4FC94F85C303F229A408D
:102E50008260C4F8549084F835600020A5E7000033
:102E60003F8010F02DE9F041044690F83400002531
:102E70000128A66D0ED094F835C00127002084F8F3
:102E80003470BCF1010F07D0022584F834002846C5
:102E9000BDE8F0810220FBE7022784F83570606509
:102EA0002046FFF7B3FC94F85C103F208840B060E8
:102EB0002068016841F0160101602068416941F015
:102EC00080014161206C20B12068016841F0080157
:102ED00001602068016841F001010160D7E700004E
:102EE00070B5044600F01CFA0546601C02D0044888
:102EF0000078044400F014FA401BA042FAD370BDDD
:102F00000C010020F0B587B014216846FEF70DFAD9
:102F10002148016800293CD1012101601F48016856
:102F200041F001010160006802240025694600F0BB
:102F30000100059003264FF683700C278DE8F10001
:102F4000174800F0FBF848F2331069468DE8F100AD
:102F5000144800F0F3F84CF2037069468DE8F10074
:102F6000114800F0EBF84FF63F0069468DE8F1009C
:102F70000E4800F0E3F8282069468DE8F1000C487F
:102F800000F0DCF8082069468DE8F100094800F0FF
:102F9000D5F807B0F0BD00007000002038380240BE
:102FA0000010024000180240000C024000140240D1
:102FB000001C0240000802402DE9F04FDFF84CE110
:102FC00000224FF001094FF00F0A00BF09FA02F486
:102FD00001EA0403A3427CD122F00306764497075A
:102FE000D6F808C83F0FDFF828810AFA07FB4045EA
:102FF0000BEA0C0502D14FF0000C40E0DFF814C1E1
:10300000604502D14FF0010C39E0DFF80CC160459A
:1030100002D14FF0020C32E0DFF800C1604502D16E
:103020004FF0030C2BE0DFF8F8C0604502D14FF001
:10303000040C24E0DFF8ECC0604502D14FF0050C31
:103040001DE0DFF8E4C0604502D14FF0060C16E049
:10305000DFF8D8C0604502D14FF0070C0FE0DFF871
:10306000D0C0604502D14FF0080C08E0DFF8C4C0C2
:10307000604502D14FF0090C01E04FF00A0C0CFA48
:1030800007FCAC451DD1D6F80888DFF8ACC028EAAB
:103090000B08C6F808880CF10405DCF800802E1D2A
:1030A000371D28EA0308CCF80080D5F800C02CEAC8
:1030B000030CC5F800C035689D4335603D689D43ED
:1030C0003D6003230768D5084FEA42084FEA427C77
:1030D00000E015E04FEADC6C03FA08F39F43076059
:1030E0000AFA0CF600EB85052F6AB7432F62856854
:1030F0009D4385604568A5434560C4689C43C460A2
:10310000521C102AFFF462AFBDE8F08F003001407E
:10311000000002400004024000080240000C02408F
:10312000001002400014024000180240001C02403F
:103130000020024000240240003C01402DE9F84FED
:10314000DFF89CE100224FF001084FF0030B4FF035
:103150000F0A00BF0B6808FA02F42340A34271D1A2
:103160004D68022D01D0122D0FD1D5080E695707D9
:1031700000EB8505A9462D6AFF0E0AFA07FCBE4042
:1031800025EA0C052E43C9F820600F795500066822
:103190000BFA05FC07F0030726EA0C06AF4037439D
:1031A00007604E68012E05D0022E03D0112E01D0EB
:1031B000122E0ED18668CF6826EA0C06AF40374340
:1031C000876046680F79A643C7F3001797403743D7
:1031D0004760C4688E6824EA0C04AE402643C6608B
:1031E0004C68E40075D53F4C256845F48045256062
:1031F000246822F00306950704F4804400943A4CB6
:103200002D0F2644D6F80848DFF8E0C00AFA05F783
:10321000604524EA070401D100272EE0344FB8426C
:1032200001D1012729E0334FB84201D1022724E020
:10323000314FB84201D103271FE0304FB84202D1CD
:1032400004271AE045E02E4FB84201D1052714E0CB
:103250002C4FB84201D106270FE02B4FB84201D1C5
:1032600007270AE0294FB84201D1082705E0284F77
:10327000B84201D1092700E00A27AF40274375462D
:10328000C6F808784E68DEF80040F60324EA030426
:1032900000D51C43124E2C60361D4D683468AD03BA
:1032A00024EA030400D51C430D4F346008374D68F1
:1032B0003C68ED0224EA030400D51C43084D3C6041
:1032C0000C354E682C68B60224EA030400D51C4372
:1032D0002C60521C102AFFF43DAFBDE8F88F0000AF
:1032E000003C0140443802400030014000000240F0
:1032F0000004024000080240000C0240001002409E
:103300000014024000180240001C0240002002404D
:10331000002402400AB1816170470904FBE7000004
:1033200001488068704700000C01002010B50400BF
:1033300014D0242084F841002068016821F00101A4
:103340000160204600F0CAF90020606484F8410062
:10335000206384F8420084F8400010BD012010BDB5
:1033600090F841007047000070B5040004D094F854
:103370004100002510B106E0012070BD204684F810
:10338000405000F0ACF9242084F841002068016826
:1033900021F001010160D4E9001020F070600861A3
:1033A0002068816821F400418160E068216801287B
:1033B000A06806D040F404408860E068022803D08A
:1033C00006E040F40040F7E721684FF400604860F1
:1033D00020212068114A4368134343602068C26873
:1033E00022F40042C26054F8106B0DCC104340EA46
:1033F0000320F06054F81C3CD4E90002104318602C
:1034000054F81C0D026842F001020260656484F801
:103410004110256384F84250002070BD00800002F6
:103420002DE9FF4F83B0044690F841009A46934639
:10343000DDE91087DDF84890202874D15FEA0800A4
:1034400014D09FB194F8400001286CD0012084F87A
:103450004000FFF765FF0122064619230090D103C3
:10346000204602F077F9002871D103E04FF4007094
:1034700060646CE00025C4F82480222184F84110A7
:10348000402084F8420065646785534665635A4668
:1034900004992046CDE9009602F0E2F810B184F8D4
:1034A000405054E0618DFF2734484FF08078FF2969
:1034B0004FF0007A04D927853A464346009005E04C
:1034C000618D53462185009094F828202046049968
:1034D00002F02AF900224B4604212046009602F011
:1034E00039F9A0BB2068616A406A0870606A401CB4
:1034F0006062208D401E81B22185608D401E6085F6
:10350000608DD8B1D1B900224B468021204600966B
:1035100002F020F9D8B9608DFF2805D927853A46F1
:103520004346009506E026E0608D534620850095D1
:1035300094F828202046049902F0F6F8608D0028BF
:10354000C8D132464946204602F031F918B101206F
:1035500007B0BDE8F08F21682020094AC8612168C2
:103560004B6813404B6084F8410084F842500020BF
:1035700084F84050ECE70220EAE7000000240080D5
:1035800000E800FE2DE9FF4F83B0044690F84100AB
:103590009A469346DDE91087DDF84890202871D1DE
:1035A0005FEA080014D09FB194F84000012869D068
:1035B000012084F84000FFF7B3FE012206461923DC
:1035C0000090D103204602F0C5F800286ED103E038
:1035D0004FF40070606469E00025C4F82480212164
:1035E00084F84110402084F84200656467855346A2
:1035F00065635A4604992046CDE9009602F062F8C8
:1036000010B184F8405051E0608DFF274FF0807872
:10361000FF284FF0007A04D927853A4643460095A3
:1036200005E0608D53462085009594F828202046BB
:10363000049902F079F832464946204602F0DEF855
:10364000A0BB606A216800788862606A401C606282
:10365000608D401E6085208D401E80B22085618D6A
:10366000D9B1D0B900224B4680212046009602F005
:1036700071F8D8B9608DFF2805D927853A464346A9
:10368000009506E026E0608D53462085009594F86D
:1036900028202046049902F047F8608D0028CAD1FE
:1036A00032464946204602F082F818B1012007B0A0
:1036B000BDE8F08F20682021074AC1612068436877
:1036C0001340436084F8411084F84250002084F88D
:1036D0004050ECE70220EAE700E800FE7047704740
:1036E0000248816802781144816070470C01002013
:1036F000032010B500F0C6F9002000F005F800F036
:103700006BF9002010BD000010B5002201463620E4
:1037100088B000F097F9362000F087F91348016867
:1037200041F010010160006805A900F0100006904A
:10373000684600F035FE00F053FE0D4940000022BF
:103740000C4CB0FBF1F10C4840F2E7330460C0E9E7
:103750000332491EC0E9011201F054FC10B10120EE
:1037600008B010BD044801F07DFCF9E74038024084
:1037700040420F0000100040943C00202DE9F04131
:10378000044690F8A00016460F4601281DD00125DA
:1037900084F8A050022084F8A10006EB860000EB1C
:1037A000C600342204EB80003830FDF7A5FD324618
:1037B0003946204602F078F9216800204D6284F8ED
:1037C000A15084F8A000BDE8F0810220FBE790F84A
:1037D000A10070472DE9F041040004D094F8A10045
:1037E000002518B107E00120BDE8F081204684F8EB
:1037F000A05000F06BF83448022184F8A110012297
:1038000002CC8B6923F070438B6194E84A00194322
:10381000E3681E4354F8043D31439E693143996186
:1038200021688B6803408B602168A68AA7698B6832
:103830003B4343EA06438B602168CB680340CB607F
:103840002168A38B276ACE683E4346EA0346CE60D2
:1038500021680B6903400B612368A68CA76A19696C
:10386000394341EA0641196121684B6903404B61C4
:103870002068A38D266B4169314341EA03414161D0
:10388000236894F8351094F83600DE6A000406F0D8
:103890007F46DE62236840EA012094F83460D96AEA
:1038A00031430143D9622068416B41F00601416315
:1038B0002068816941F001018161C4F8A45084F855
:1038C000A120002090E7000000F800F070B586B05D
:1038D000044614216846FDF728FD384920688842CF
:1038E0006AD13748016841F080610160006800F0EA
:1038F0008060059032481438016841F01001016081
:10390000016801F010010591016841F40071016046
:10391000016801F400710591016841F48061016062
:10392000016801F480610591016841F04001016086
:10393000016801F040010591016841F48071016066
:10394000006800240E26694600F48070059010205F
:10395000009002251B48CDE90154CDE90346FFF74D
:10396000EDFB4EF6FF700090CDE901541648694614
:10397000CDE90346FFF7E2FBF7200090CDE90154C3
:1039800012486946CDE90346FFF7D8FB0921E80252
:103990000090CDE90154CDE903410D486946FFF798
:1039A000CDFB4FF446400090CDE9015409486946EB
:1039B000CDE90346FFF7C2FB06B070BD00680140C9
:1039C0004438024000100240002402400028024017
:1039D00000180240002002400A4808B5016841F082
:1039E00080510160006800F0805000900548001D83
:1039F000016841F480410160006800F4804000905B
:103A000008BD00004038024000280DDB410900F0ED
:103A10001F028900012001F1E0219040C1F88001DE
:103A2000BFF34F8FBFF36F8F7047002809DB410949
:103A300000F01F028900012001F1E0219040C1F84F
:103A4000000170470E4BF0B41B680D46C3F3022310
:103A5000C3F10706042E00D90426191D072901D237
:103A6000002300E0DB1E012404FA06F19C40491EFD
:103A70002940641E994014402143F0BC03F09CBAD5
:103A80000CED00E0064900F0070210B54FF6FF0408
:103A90000868044B204040EA02201843086010BD2B
:103AA0000CED00E00000FA051848F8B5016841F097
:103AB000805101600068164C00F080500090206832
:103AC00040F480302060FFF72BFC4FF47A760546F7
:103AD00005E000BFFFF724FC401BB0420FD8606830
:103AE000C003F7D5206840F400302060FFF718FCD1
:103AF000054606E0FFF714FC401BB04201D9032045
:103B0000F8BD60688003F5D50020F8BD403802405C
:103B1000007000400248016841F480710160704704
:103B2000007000404B4B30B549490160191D1C68BD
:103B30000A1DC4F3881444601C68C4F30144046182
:103B40001C68C4F30364C4601B68C3F3027383601E
:103B50000B68C3F3881343610B68C3F3014303622B
:103B60003C4B0C687C3BC4F3036484610968C1F37B
:103B70000271C1611468111D04F01F0444621468CD
:103B8000C4F3042484621468C4F30144C462146856
:103B900004F44014C463146804F4400404641C680E
:103BA00004F4000444630C6804F4403444660C6874
:103BB00004F4402484660C6804F44014C4660C6861
:103BC00004F4400404670C6804F0030444640C68C3
:103BD00004F00C0484640C6804F03004C4640C68C1
:103BE00004F0C00404650C6804F4407444650C6877
:103BF00004F4406484650C68164D04F44054C465B4
:103C00000C68143D04F4404404660C6804F04074ED
:103C100044670C6804F0806484670C6804F00064F6
:103C2000C467096801F08051C0F8801019682B68DA
:103C300001F4F81103F440730B4303631168C901E5
:103C400001D4002101E04FF08071816330BD00009C
:103C5000F1FFFF0084380240F0B5444BB0F5002F6F
:103C6000404D4FF4801E404EA3F10404404F03F139
:103C70000402404984464FF000000DD0F44516D1AF
:103C8000D2F800C01CF4400C3CD0BCF5800F4ED0E4
:103C9000BCF5000F0BD109E0D2F800C01CF4401CA9
:103CA00006D0F44519D0BCF5001F00D13846F0BD50
:103CB00008684002086800F03F0002D4B5FBF0F04D
:103CC00001E0B6FBF0F019681B681468C1F30362E9
:103CD000C3F38813C4F304213DE008684002086878
:103CE00000F03F0002D4B5FBF0F001E0B6FBF0F0CD
:103CF000216823681468C1F3036204F01F01C3F351
:103D0000881328E008684002086800F03F0002D4E9
:103D1000B5FBF0F001E0B6FBF0F01C681B68116821
:103D2000C4F30362C3F38813C1F3042113E00868EA
:103D30004002086800F03F0002D4B5FBF0F001E05B
:103D4000B6FBF0F0256823681168C5F3036201F043
:103D50001F01C3F388134343491CB3FBF2F0B0FBCC
:103D6000F1F0F0BD0024F40040787D018838024075
:103D70000080BB00043802402DE9F84F044600786B
:103D8000DFF824944FF000063746C0070ED0D9F86C
:103D9000001021F40001C9F80010D9F80010626B7E
:103DA0001143C9F80010606B00B90126FE4D206870
:103DB000843500030ED5E16B286820F440100843D9
:103DC0002860E06BB0F5801F01D010B102E0012641
:103DD00000E0012720684FF4800BC0020CD5216C55
:103DE000286820F4400008432860206C584501D121
:103DF000012601E000B901272068C10100D5012694
:103E0000800666D5E8483830016841F0805101608D
:103E10000068DFF898A300F080500090DAF80010F6
:103E200041F48071CAF80010FFF77AFA804605E085
:103E3000FFF776FAA0EB080064287DD8DAF80000D6
:103E4000C005F5D5DFF8608308F16808D8F80000F0
:103E500010F440702AD0218E01F44071814225D0A7
:103E6000D8F80010D8F8002021F4407142F48032D4
:103E7000C8F80020D8F8002022F48032C8F80020CA
:103E8000C8F80010D8F80000C0070FD0FFF748FAB4
:103E9000824607E0FFF744FAA0EB0A0141F28830BE
:103EA0008142CAD8D8F800008007F3D5206BC0F350
:103EB000012103297ED0D9F8001021F4F811C9F8A6
:103EC0000010228ED8F80010C2F30B021143C8F87C
:103ED00000102078C00607D5286820F08070286080
:103EE0002868A16B084328602188AF4888304904BE
:103EF00005D5626E016821F44031114301602188CB
:103F0000090405D5A26E016821F440211143016026
:103F10002168C90305D5E26E016821F440111143FF
:103F200001602168890305D5226F016821F44001F1
:103F300011430160217800E018E1490605D5626C63
:103F4000016821F00301114301602178090605D5BC
:103F5000A26C016821F00C01114301602188C905A0
:103F600005D5E26C016821F0300111430160218820
:103F7000890505D5226D016821F0C001114301605A
:103F80002188490505D5626D016821F4407111430E
:103F900001602188090505D5A26D016821F4406101
:103FA000114301602188C90407D5E26D016821F43D
:103FB000405100E041E0114301602188890405D5AA
:103FC000226E016821F440411143016021684902D9
:103FD00005D5A26F016821F080611143016021685D
:103FE0004FF0006A890209D5E26F016821F0006193
:103FF00011430160E16F514500D1012721680A0793
:1040000000D50127490305D5626F016821F0407191
:10401000114301602168090206D5D4F880200168A7
:1040200021F0805111430160DFF88491012E0ED000
:104030002068B0F1007F0AD08FE05E4AD9F80030E6
:10404000104023F4F8120243C9F8002039E7D9F8E8
:1040500000004E4620F08060C9F80000FFF760F9CC
:10406000804605E0FFF75CF9A0EB080064287DD8E6
:1040700030680001F6D421784B487C30C90712D053
:10408000616B81B9237A62680168D0F800C092013F
:10409000C1F3014142EA0142CCF3036142EA01610A
:1040A00041EA0371016021680A0303D5E26BB2F5AE
:1040B000801F04D0C9021AD5216C594517D16368F5
:1040C000016894F80CC002689B01C1F3014143EA06
:1040D0000141C2F3027241EA0C6141EA02710160DE
:1040E0002968626A21F01F01521E1143296021686C
:1040F000C90110D5238A62680168D0F800C0920116
:10410000C1F3036142EA034242EA0162CCF3027165
:1041100042EA01710160216889010CD56168228A37
:10412000237B94F808C0890141EA024141EA036116
:1041300041EA0C7101603168B04641F08061316044
:10414000FFF7EEF8064604E0FFF7EAF8801B642864
:104150000CD8D8F800000001F6D56FB3D9F80000EC
:104160004E4620F08050C9F8000000E079E0FFF7EB
:10417000D7F8074605E000BFFFF7D2F8C01B642858
:104180006FD83068C0438000F6D50748216880307A
:104190000A0301D5E26B1AB1C90225D5216C19BBFE
:1041A00063690168277E08E008380240007000401B
:1041B00000380240FFFCFF0F5AE00268C1F30141E2
:1041C0009B0143EA0143C2F3027143EA076242EAF8
:1041D0000171016029686FF0FF03A26A21F4F851B0
:1041E00003EB0222114329602168890212D5E16F95
:1041F00051450FD1238C6269016807689201C1F3B0
:10420000036142EA034242EA0162C7F3027142EAF1
:10421000017101602178090716D561690268D0F83B
:1042200000C08B01277FC2F30362CCF3014143EA54
:10423000014141EA026141EA077101602868E16ACF
:1042400020F4403008432860306840F080503060EF
:10425000FFF766F8044607E0FFF762F8001B6428E2
:1042600002D90320BDE8F88F3068C0438000F3D442
:104270000020F7E72DE9F04705000F4663D0444ED4
:10428000306800F00F00B84209D2306820F00F000B
:1042900038433060306800F00F00B84253D12868CE
:1042A0003C4C810712D5400703D5206840F4E0500C
:1042B00020602878000703D5206840F46040206023
:1042C000A968206820F0F000084320602878C00723
:1042D0002AD0304968680839012810D009680228B6
:1042E00010D0890700292EDA216821F0030101434B
:1042F0002160FFF715F8804641F288390DE0096822
:104300008903EFE78901EDE7FFF70AF8A0EB080161
:10431000494502D90320BDE8F0876868216801F0AB
:104320000C01B1EB800FEFD1306800F00F00B84204
:104330000BD9306820F00F0038433060306800F04F
:104340000F00B84201D00120E5E72878400705D5E5
:10435000E968206820F4E0500843206028780007CE
:1043600006D52869216821F4604141EAC000206037
:1043700000F056F82168084AC1F30311515CC840A7
:10438000064908600020FFF7BFF90020C3E70000DE
:10439000003C024008380240D8AD00081801002057
:1043A0000D4A0F2330B503604FF4E0540B4B1568F2
:1043B00005F003054560156805F0F0058560156892
:1043C00005F4E055C560126804EAD202026118687B
:1043D00000F00F00086030BD08380240003C024089
:1043E0000449054809680068044AC1F38221515C08
:1043F000C84070470838024018010020E8AD0008A6
:104400000449054809680068044AC1F34231515C17
:10441000C84070470838024018010020E8AD000885
:10442000154910B51548096811F00C0213D014494C
:10443000042A0FD0082A0ED10F4C241F22682368AB
:1044400002F03F025B0207D52068C0F38810A0FB92
:10445000010106E0084610BD2168C1F38811A1FBE7
:1044600000010023FCF717FF2168C1F30141491C3B
:104470004900B0FBF1F010BD083802400024F40000
:1044800040787D012DE9F84F05004FF000076ED010
:104490002878DFF81C93A9F1040AC007AAF10404E4
:1044A0004CD0D9F800104846C1F38101012908D049
:1044B0000068C0F3810002280AD1DAF80000400247
:1044C00006D52068800339D568680028DFD035E03C
:1044D0006868B0F5803F0BD010B1B0F5A02F11D0B7
:1044E000206820F480302060206820F4802002E0E2
:1044F000206840F480302060686890B1FEF710FFBB
:1045000006460AE0206840F480202060F0E700BF03
:10451000FEF706FF801B642872D820688003F7D559
:104520000CE0FEF7FDFE064605E000BFFEF7F8FED4
:10453000801B6428F0D820688003F7D4287880078F
:1045400042D5D9F80010484611F00C0F08D0006889
:10455000C0F3810002280BD1DAF80000400207D432
:104560002068800718D5E868012800D114E01CE114
:10457000E8680028206817D040F001002060FEF7AE
:10458000CFFE064605E000BFFEF7CAFE801B0228EC
:10459000C2D820688007F7D52869216821F0F80182
:1045A00041EAC00020600FE020F001002060FEF72B
:1045B000B7FE064605E000BFFEF7B2FE801B0228EC
:1045C0001ED820688007F7D42878000729D57848B6
:1045D00069696C3000298046016812D041F0010100
:1045E0000160FEF79DFE064605E000BFFEF798FE5F
:1045F000801B022804D8D8F800008007F6D510E008
:1046000089E021F001010160FEF78AFE064604E020
:10461000FEF786FE801B02287DD8D8F800008007B0
:10462000F6D4287840076BD5DFF8848108F1380884
:10463000D8F80000C0000BD4D8F8001041F0805129
:10464000C8F80010D8F80000012700F08050009052
:1046500058480168C90512D40168834641F4807145
:104660000160FEF75DFE064605E000BFFEF758FE5E
:10467000801B64284FD8DBF80000C005F6D54C4EEF
:10468000A868683601280AD008B1052811D030681A
:1046900020F001003060306820F0040002E0306853
:1046A00040F001003060A868A0B1FEF739FE8346F3
:1046B0000CE0306840F004003060F0E7FEF730FEB8
:1046C000A0EB0B0141F28830814266D83068800748
:1046D000F4D50EE0FEF724FE834607E0FEF720FE49
:1046E000A0EB0B0141F28830814256D83068800738
:1046F000F4D42FB1D8F8001021F08051C8F8001080
:10470000A869C8B3D9F80010C1F3810102294CD0BF
:104710000228206800E040E020F08070206003D094
:10472000FEF7FEFD05463BE0FEF7FAFD064604E017
:10473000FEF7F6FD801B02282FD820688001F7D4F1
:10474000D5E90962D5E907011B4B570895F82C20DC
:10475000084303EB074343EA8611084340EA02603B
:1047600040F00050CAF80000206840F080702060DF
:10477000FEF7D6FD054606E015E000BFFEF7D0FDCA
:10478000401B022809D820688001F7D50BE000BF44
:10479000FEF7C6FD401B022802D90320BDE8F88FB2
:1047A00020688001F4D40020F8E70120F6E700003B
:1047B00008380240007000400000FFFF2DE9F04182
:1047C000044690F87C000025012811D0012684F8C9
:1047D0007C602068016889032FD5016821F40031CD
:1047E0000160E06EA8B194F87D10122903D010E0AA
:1047F0000220BDE8F081FEF736FA50B1E06E406D60
:10480000802806D0D4F88000012540F08000C4F84C
:104810008000206F88B194F87D1022290DD1FEF719
:1048200022FA50B1206F406D802806D0D4F8800065
:10483000012540F08000C4F8800021680027781E20
:104840000F6121688861204601F06EFE2068416892
:1048500041F00801416084F87D60284684F87C704E
:10486000C7E770B5044690F87C00002501280ED0FB
:10487000012684F87C602068016821F40031016021
:10488000E06EA0B194F87D10122902D00FE0022052
:1048900070BDFEF7E8F950B1E06E406D802806D09B
:1048A000D4F88000012540F08000C4F88000206F1B
:1048B00088B194F87D1022290DD1FEF7D4F950B1BA
:1048C000206F406D802806D0D4F88000012540F08C
:1048D0008000C4F88000204601F026FE20680021F8
:1048E000426842F00802426084F87D60284684F8FD
:1048F0007C1070BD70B504001BD0022084F87D00D0
:1049000000252168C01E0D6121688861204601F0E4
:104910000BFE2068416841F008014160204600F02C
:10492000A9F9C4F8805084F87D50002084F87C50A8
:1049300070BD012070BD000070B50B4800F016F886
:1049400005460948843000F011F8022D044601D0D4
:10495000122D01D1FDF70CF9022C01D0222C01D12E
:10496000FCF7EAFF70BD00006C3D002090F87D0070
:10497000704700002DE9F041044690F87D000028C2
:1049800057D022685169106915680B0706D50307CF
:1049900004D5A16F2046BDE8F0410847CB074FF092
:1049A00001060FD0C3070DD0966194F87D00222830
:1049B00006D00220D4F880100143C4F880105FE0D4
:1049C0000120F7E78B0709D5830707D502209061FF
:1049D000606F00282DD0BDE8F04100472A4B8F06BC
:1049E00014D5870612D5D4F88000A90340F004003E
:1049F00015E00365E06E01E00365206FBDE8F0415E
:104A0000FEF77AB92046FFF7D9FE39E04F0612D5F6
:104A1000470610D5D4F88000A90340F00800C4F878
:104A200080000029EEDAE06E0028E2D1206F002835
:104A3000E2D1BDE8F0814D0716D5450714D5D4F86D
:104A40008010E06E41F02001C4F880100028D0D121
:104A5000206F0028D0D1411E10612268916184F836
:104A60007D60A4F86A000BE0C906E2D5C006E0D577
:104A700010209061D4F8800040F01000C4F880004D
:104A80002046FFF759FFD4E75D6400082DE9F047A1
:104A90004FF000060400354604D094F87D00B1467E
:104AA00018B107E00120BDE8F087204684F87C902B
:104AB00000F01AF9022084F87D00204601F034FD50
:104AC000E06838B1012802D0022803D101E01026A5
:104AD00000E02026A16861B1012906D002294FF427
:104AE000006005D0032904D10EE04FF4806500E09A
:104AF00005465C495B4A20682031904201D08842DB
:104B000005D15848001F03E046F00106F0E756487B
:104B10000660E06948B323680020934201D08B42CD
:104B200003D14FF40020FFF797F84F4A2168121D78
:104B3000914203D04C4A2432914203D14FF4801069
:104B4000FFF78AF8E16900EB80000A224000490281
:104B5000B0FBF1F0B0FBF2F3B0FBF2F1216202FB2B
:104B60001300082801D9491C216260684FF40078BD
:104B7000E8B3022871D0E06B012801D04FF00008A3
:104B80002068DFF8E8C06FF0FF01394E4EF20F02E7
:104B900003684FF2200703EA0C030360236B60688D
:104BA0001843D4E90D3C43EA0C031843636A40EA16
:104BB00008002843D4E904C51843236840EA0C00E0
:104BC0002843258CD3F800C040EA0555484645EAFD
:104BD0000C051D6023685D684FF0010C95435D6016
:104BE000D4F80080D8F80420A3691A4300E034E028
:104BF000D4E90A352B431A43C8F804202268936885
:104C000033409360A36C226D256C1A43E36C6D1ED8
:104C10002B43656C1A43236801EB05252A439D68E5
:104C20002A439A6054F8542BD3683B40D36094E8ED
:104C30006400A78954F8543D2A4301EB062141EA58
:104C40000741DD680A432A43DA60C4F8800084F82B
:104C50007DC084F87C00002025E7E06B01288DD022
:104C60008EE7000004580140005C014010C005FFC1
:104C70000080F8FF70B5174906460068164C174DBE
:104C800088420ED12068401E206006D1286820F49A
:104C9000000028605B20FEF7B7FE1148F021FEF708
:104CA0008BF90C4930682031884211D12068401EB0
:104CB000206006D1286820F4000028605B20FEF701
:104CC000A3FEBDE8704007484FF48061FEF774B959
:104CD00070BD0000045C01407800002044380240B0
:104CE00000200240001802402DE9F0432949074600
:104CF00000680026284D87B0284C88424FF00208F3
:104D00004FF00A091ED1206878B9286840F40000E5
:104D1000286028680022012100F4000005905B2033
:104D2000FEF790FE5B20FEF780FE2068F0236946C8
:104D3000401C20600093CDE901861948CDE9036944
:104D4000FEF7FCF913483968203081421FD12068F2
:104D500078B9286840F40000286028680022012102
:104D600000F4000005905B20FEF76CFE5B20FEF770
:104D70005CFE20684FF480636946401C206000930D
:104D8000CDE901860748CDE90369FEF7D7F907B0F9
:104D9000BDE8F083045C0140443802407800002004
:104DA000002002400018024070B5044629B122B12B
:104DB00094F87D00012802D043E0012070BD94F8F2
:104DC0007C0001283DD0012384F87C3061660025F9
:104DD000A4F868202220A4F86A20C4F8805084F83F
:104DE0007D00216F18480864216F1848C863216F3F
:104DF0001748C864206F05652168B4F86830626E92
:104E00001C31206FFEF72EF810B184F87C50D4E7E7
:104E100020680168C90303D4016841F4803101604E
:104E20000021204601F0A0FB21680A6910430861B7
:104E30002068016841F400310160002084F87C5052
:104E400070BD022070BD00001F650008E564000809
:104E5000A164000810B5FCF761FE10BD10B5FCF7A9
:104E60006CFD10BD70B504000D4603D094F82C0005
:104E700010B107E0012070BD002084F82D0020460D
:104E800000F011F8022084F82C002068211DFDF7A5
:104E90002CFDD4E900022946FDF76CFD012084F8C1
:104EA0002C00002070BDFEF72DB810B5044690F818
:104EB0002C00022809D0022084F82C002068FDF77D
:104EC00043FD012084F82C00002010BD70B504467D
:104ED00090F82C000D4602280DD0022084F82C00FA
:104EE0002068FDF737FD2868022805D05FF0010033
:104EF00084F82C00002070BD0520F9E7704770474A
:104F0000704700002DE9F04390F83C20012A42D080
:104F1000012280F83C2051F80C4BDFF880804FF0E4
:104F2000000991E8680051E9022723F44073B1F8C1
:104F30000CC03B43CF6923F480631343026823F41E
:104F40000063234323F4805343EA050323F400530F
:104F500043EA060323F4804343EA07030C3923F4AE
:104F60007023424543EA0C4302D00D4CA2420CD1BF
:104F70008D8C23F47006D1E9073446EA055121F0FF
:104F80008071194321F000732343536480F83C90EF
:104F90000020BDE8F0830220FBE700000000014094
:104FA0000004014070B590F83C20012A24D0134C35
:104FB000012580F83C50022280F83D2002685368A9
:104FC000A242966802D00E4CA24203D14C6823F450
:104FD000700323430C6823F0700389681C435460FA
:104FE000002326F0800602683143916080F83D502E
:104FF00080F83C30184670BD022070BD00000140B2
:105000000004014010B5040003D094F83D0010B135
:1050100007E0012010BD002084F83C00204600F08D
:105020000DF8022084F83D002068211D01F0BCFB32
:10503000012084F83D00002010BD000008B5006884
:105040000649884208D10648016841F00101016023
:10505000006800F00100009008BD00000000014061
:10506000443802400168094ACB6843F00103CB6031
:10507000016888681040062806D0B0F5803F03D04C
:10508000086840F001000860002070470700010038
:1050900070B5044690F83C00012817D0324B01252A
:1050A00084F83C50022084F83D0022689068184043
:1050B00020F47F4090600868502830D00DDC202814
:1050C0004DD005DC98B310283BD148E0022070BDDC
:1050D000302844D0402834D139E0602828D07028C6
:1050E00006D0B0F5805F2CD0B0F5005F29D10AE082
:1050F0004A682068D1E9021301F0BCFB206881688E
:1051000041F0770109E04A682068D1E9021301F013
:10511000B1FB2068816841F48041816011E0CA6878
:105120004968206801F0EEFC2068502107E016E095
:10513000CA684968206801F0F6FC2068602101F027
:10514000A2FB002084F83D5084F83C0070BDCA6882
:105150004968206801F0D6FC20684021EFE722680A
:1051600001461046EBE7000088FFFEFF704770B570
:105170000446006800250169C943890715D4C16840
:10518000C943890711D4EA1E0261012121772068F1
:1051900080698007204602D0FFF7E8FF04E000F0B6
:1051A000D1F8204600F07FF9257720680169C943CE
:1051B000490717D4C168C943490713D402216FF0C6
:1051C0000402026121772068806910F4407F204644
:1051D00002D0FFF7CBFF04E000F0B4F8204600F067
:1051E00062F9257720680169C943090716D4C168A7
:1051F000C943090712D404216FF008020261217724
:105200002068C0698007204602D0FFF7AFFF04E0A6
:1052100000F098F8204600F046F9257720680169EB
:10522000C943C90617D4C168C943C90613D40821A4
:105230006FF01002026121772068C06910F4407F8E
:10524000204602D0FFF792FF04E000F07BF82046F2
:1052500000F029F9257720680169C943C90708D1F9
:10526000C168C943C90704D1891E0161204600F005
:105270001BF920680169C943090609D4C168C943FB
:10528000090605D46FF0800101612046FFF737FE63
:1052900020680169C943C90509D4C168C943090621
:1052A00005D46FF4807101612046FFF727FE206866
:1052B0000169C943490609D4C168C943490605D4EF
:1052C0006FF040010161204600F0F8F820680169A4
:1052D000C94389060BD4C168C943890607D46FF056
:1052E000200101612046BDE87040FFF709BE70BD96
:1052F00010B586B0044614216846FCF716F80E492E
:105300002068884216D10D48016841F00101016012
:1053100000680123022200F00100059000204FF4F4
:10532000807100916946CDE90120CDE9030304486D
:10533000FDF704FF06B010BD000001403038024008
:1053400000000240704770B5044690F83C000D46DE
:1053500001280ED0012684F83C60022084F83D002C
:105360000C2A45D007DC5AB1042A1BD0082A78D170
:105370002CE0022070BD102A4ED0142A71D15DE0BD
:10538000206801F089FA2068816941F00801816193
:105390002068816921F00401816120682A6981699E
:1053A000114311E0206801F0B1FA2068816941F4ED
:1053B000006181612068816921F4806181612068D8
:1053C0002969826942EA012181614AE0206801F08D
:1053D000D9FA2068C16941F00801C1612068C1693A
:1053E00021F00401C16120682A69C169114311E0FB
:1053F000206801F003FB2068C16941F40061C161CC
:105400002068C16921F48061C16120682969C2698D
:1054100042EA0121C16124E0206801F01BFB206801
:10542000416D41F0080141652068416D21F00401A2
:10543000416520682A69416D114311E0206801F03F
:1054400035FB2068416D41F4006141652068416D84
:1054500021F48061416520682969426D42EA012199
:105460004165002084F83D6084F83C0070BD10B5B3
:10547000040003D094F83D0010B107E0012010BDF6
:10548000002084F83C00204600F00CF8022084F84C
:105490003D002068211D01F087F9012084F83D00BE
:1054A000002010BD7047704700680349884201D151
:1054B000FEF716B97047000000100040704710B5A5
:1054C000040002D0606F10B107E0012010BD002081
:1054D00084F87000204600F025F8242060672068DA
:1054E000016821F001010160204601F0DDFB012887
:1054F000ECD0606A10B1204601F054FB206841688E
:1055000021F4904141602068816821F02A01816086
:105510002068016841F0010101602046BDE81040AB
:1055200001F0A4BB70B586B0044614216846FBF7B1
:10553000FCFE1C492068884231D11B48016841F0BB
:1055400010010160006800F0100005901648143842
:10555000016841F002010160016801F0020105915A
:10556000016841F0010101600068002407266946D6
:1055700000F0010005908020009002250B48CDE945
:105580000154CDE90346FDF7D9FD28020090CDE98D
:10559000015407486946CDE90346FDF7CFFD06B043
:1055A00070BD000000100140443802400004024079
:1055B00000000240FEE701688A69D243920701D4E5
:1055C00000228A6200688169C943C90703D08169E2
:1055D00041F00101816170472DE9F0410446006806
:1055E00090460E468069C043C00635D4002520276A
:1055F00020688069C043800616D5701CF8D0FDF77E
:105600008FFEA0EB0800B04201D8002EF0D1606CF4
:1056100084F8405040F02000606484F8417084F8C1
:1056200042500120BDE8F08121681020C861206847
:10563000C7612046FFF7BFFF2068084942680A405B
:105640004260606C40F00400606484F8417084F84B
:10565000425084F84050E4E70020E3E700E800FE11
:105660002DE9F843174604461548DAB2DDE90898F3
:105670001E4600900023204600F056F84246494658
:10568000204600F0BBF8B8B9012EFDB208D0206862
:10569000390A816242464946204600F0AFF858B9BF
:1056A00020688562002240214B462046CDF80080CC
:1056B00000F050F8002800D00120BDE8F883000079
:1056C000002000802DE9F8430446164817461E4680
:1056D000DAB20090C3022046DDE9089800F024F811
:1056E00042464946204600F089F8B8B9012EFDB27D
:1056F00008D02068390A816242464946204600F0B7
:105700007DF858B920688562002280214B462046EA
:10571000CDF8008000F01EF8002800D00120BDE880
:10572000F88300000020008070B50068C1F3090113
:10573000074E41EA0241049C4FF4806542681943D8
:1057400005EA54553543AA4321430A43426070BDDC
:10575000FF63FF032DE9F0411D4617460E46044640
:10576000DDF8188008E0681C06D0FDF7D9FDA0EB35
:105770000800A8420BD855B12068806936EA0000BD
:1057800013D00020B842EED00020BDE8F081626C5A
:10579000002084F84000202142F02002626484F856
:1057A000411084F842000120EFE70120EAE770B5DC
:1057B00016460D4604460DE0324629462046FFF7C0
:1057C0000BFF08B1012070BDFDF7AAFD801BA842A8
:1057D00007D835B120688069C0438006ECD400202A
:1057E00070BD626C002084F84000202142F020024D
:1057F000626484F8411084F84200E3E770B516460D
:105800000D4604460FE0324629462046FFF7E4FEE7
:1058100008B1012070BD681C05D0FDF781FD801B1B
:10582000A84207D835B120688069C0438007EAD410
:10583000002070BD626C002084F84000202142F0FE
:105840002002626484F8411084F84200E1E710B558
:105850000446FDF76BFD2046BDE81040AFF3008025
:1058600010B50446FDF77CFD002818D10C48844291
:1058700001D10C4800E00C4801210C4A20600020B6
:105880006260C4E9020120616061E061206220463B
:1058900000F00EF82046BDE81040FDF765BD10BDD4
:1058A000D43C0020005C004000540040322791406E
:1058B000F0B542490022424B87B0424D4FF480760A
:1058C000414C9842D1F800C04FF012004FF0020353
:1058D0004FF0040737D14CF0800CC1F800C00968C4
:1058E0000DF1080C01F0800105918021CDE9001037
:1058F0008CE88C00354F69463846FDF71FFC694639
:1059000038460096FDF71AFC286840F4000028602D
:10591000286800F400000590206840F40000206032
:10592000206820F40000206000220F214820FEF7AC
:1059300089F84820FEF779F800220F214920FEF768
:1059400081F8492035E04CF0020CC1F800C009682C
:10595000CDE9022301F00201CDE90471CDE9006037
:105960001B4E69463046FDF7E9FB7015694600900D
:105970003046FDF7E3FB286840F4001028602868F3
:1059800000F400100590206840F4001020602068AA
:1059900020F40010206000220F211F20FEF752F893
:1059A0001F20FEF742F800220F212020FEF74AF8C0
:1059B0002020FEF73AF807B0F0BD00003038024072
:1059C000D43C00204038024020380240001C0240F5
:1059D00000040240FEB50D4606464FF47A74DDE938
:1059E00008018DE8130029463046FDF719FD040033
:1059F00003D029463046FFF72AFF2046FEBDFEB5FC
:105A00000D4606464FF47A74DDE908018DE813006F
:105A100029463046FDF7B6FD040003D0294630463E
:105A2000FFF715FF2046FEBD2DE9F84307461B484A
:105A30000E461546DDE908184FF440321C46426018
:105A4000174A126802EB820303EBC202A0F1A8031B
:105A500003EB8202926C022A00D000228260114A7B
:105A60000260C1600D48FDF71BF8002814D10B48F7
:105A70003946FCF7C5FF00280ED108482B463246B0
:105A800041460094FDF7D5F8002805D1BDE8F8435C
:105A900002480A21FDF746B8BDE8F883C04000205F
:105AA000BC00002000B002402DE9FE4F8146006896
:105AB000882493468D888C2204EBCB178A46C368D2
:105AC0009421BE46C459C3F30B432B4404F47044E1
:105AD0001F04019702EBCB1240F80E4001EBCB13F1
