:020000040800F2
:1000000070CC0120DD010008E753010843450108D9
:10001000E5530108C9160108B55C0108000000009D
:10002000000000000000000000000000EB53010889
:100030001518010800000000E9530108F501000847
:10004000F7010008F7010008F7010008F7010008B0
:10005000F7010008F7010008F7010008F7010008A0
:10006000F7010008F7010008F7010008F701000890
:10007000F7010008F7010008F7010008F701000880
:10008000F7010008F7010008F7010008F701000870
:10009000F7010008F7010008F7010008F701000860
:1000A000F5540108F7010008F7010008F7010008FE
:1000B000F7010008F7010008F7010008F701000840
:1000C000F7010008F7010008F7010008F701000830
:1000D000F7010008A95C0108F7010008F701000812
:1000E000F7010008F7010008F7010008F701000810
:1000F000F7010008F7010008F7010008F701000800
:10010000F7010008F7010008F7010008F7010008EF
:10011000F7010008F701000801550108F701000880
:10012000F7010008F7010008F7010008F7010008CF
:10013000F7010008F7010008F7010008F7010008BF
:10014000F7010008F7010008F7010008F7010008AF
:10015000F7010008F7010008F7010008F70100089F
:10016000F7010008F7010008F7010008F70100088F
:10017000F7010008F701000811170108000000004E
:10018000F7010008F7010008F7010008F70100086F
:10019000F7010008F7010008F7010008F70100085F
:1001A0002D4A0108F7010008D5170108F7010008DA
:1001B000F7010008F7010008F7010008F70100083F
:1001C000F7010008F7010008DFF80CD000F0ACF8E8
:1001D000004800479561010870CC0120064880471F
:1001E00006480047FEE7FEE7FEE7FEE7FEE7FEE71C
:1001F000FEE7FEE7FEE7FEE7A1540108C90100089B
:100200002DE9F05F0546002092469B46884606464B
:10021000814640241BE0284641464746224600F0DE
:1002200072F853465A46C01A914110D311461846E7
:10023000224600F059F82D1A67EB01084F46224676
:100240000120002100F050F817EB00094E41201E5C
:10025000A4F10104DFDC484631462A464346BDE8A6
:10026000F09F10B5441A0346944209D284181144F1
:1002700003E011F8013D04F8013D521EF9D210BD12
:1002800040EA0104A40703D009E010C9121F10C3FB
:10029000042AFAD203E011F8014B03F8014B521E75
:1002A000F9D210BDD2B201E000F8012B491EFBD2F9
:1002B00070470022F6E710B513460A460446194671
:1002C000FFF7F0FF204610BD421C10F8011B00296B
:1002D000FBD1801A7047034611F8012B00F8012B5F
:1002E000002AF9D118467047202A04DB203A00FA88
:1002F00002F1002070479140C2F1200320FA03F37D
:10030000194390407047202A04DB203A21FA02F07A
:100310000021704721FA02F3D040C2F1200291403F
:100320000843194670470000064C074D06E0E06898
:1003300040F0010394E8070098471034AC42F6D32C
:10034000FFF746FF38E1010858E1010870B58C1845
:1003500010F8015B15F0070301D110F8013B2A11D9
:1003600006D110F8012B03E010F8016B01F8016BC6
:100370005B1EF9D12B0705D40023521E0DD401F8C2
:10038000013BFAE710F8013BCB1A921C03E013F88B
:10039000015B01F8015B521EF9D5A142D8D30020C0
:1003A00070BD000070B5456882B00446014628461D
:1003B00007F024FE68B123680F2B59D00BDD282BE2
:1003C00045D0B3F5107F3CD0112B49D0204608F022
:1003D0004DFA02B070BD0B2B20D00E2BF6D1E36886
:1003E0001A6859680D2A53D0202A31D1002928468D
:1003F0004FF480717DDD07F0E3FE284601F02EFC0E
:1004000002AB846A43F8040D184601F05BFDA207B5
:10041000DFD52846012109F0C9FBDAE7284602ADFD
:1004200001F01CFC03466830019301F009FA55F80D
:10043000040D03216C3001F01FFA284601F042FD43
:10044000C4E7324B214628461B689847C1E7E3685A
:10045000002BBBD128464FF4807107F0B7FDB5E7FC
:100460002B4B1B68002BB4D0214628469847B0E799
:10047000284601F0F3FB034602A840F8043D5B6EFA
:100480001C6801F01FFD002CA3D02846A047A0E760
:100490000029DDDD4FF48071284607F091FE02ACA3
:1004A000284601F0DBFB866A44F8040D204601F083
:1004B00009FDB10703D50121284609F077FB4FF468
:1004C0008071284607F082FD284601F0C7FB0346ED
:1004D00020461E8E9C6A019301F0F4FC304604F025
:1004E00071FDA3077FF575AF2846022109F05EFB79
:1004F0006FE707F06BFD284601F0B0FB034602A84A
:100500009C6A1E8E40F8043DE6E700BF5C000020B8
:10051000B8C501202DE9F043044687B0304F0026CE
:100520000091A569B0F90C104C35B0F90A001944D6
:10053000B4F910301044B4F90E20039502970196D7
:10054000B4F9085008F0A6F8804618B9404607B03C
:10055000BDE8F083234F0DF1180901F07FFB294618
:10056000102205903E1D07F029FF59F804ED0FCE2B
:100570000EF134050FC50FCE0FC596E80F0085E8C4
:100580000F007B6B4846CEF8643001F09BFC7B6B20
:1005900040465B6898474046656801F05FFB03464C
:1005A00004A89C6E0493059401F08CFC29464846EF
:1005B00006F0BEF80028C9D0059B9C4209D04046F1
:1005C00001F04CFB059A034604A89A66049301F0D7
:1005D00079FC404609F018F8404607B0BDE8F083C2
:1005E000A50300085C000020974A816843682DE954
:1005F000F041044688B052F82160122B40D8DFE861
:1006000003F0B03F3F3F3F0A973F3F3F3F3F3F3FF1
:100610003F3F3F3F4300F569002D40F0B580371F55
:1006200057F8040F04F07EFC04F1140120690EC990
:1006300028445B1B521B2944013502F0D7F9022DD7
:10064000EED162693169E3690191911CF768134445
:100650002069A2695B1028440097521B02F0D0F871
:10066000E1696269B0698B1E1144A2690190491069
:1006700020697669521B01312844009602F0C0F8C7
:10068000002008B0BDE8F081006801F0E7FA876E4D
:100690000490002F00F0D080A368B0F95C80002B9C
:1006A00000F0C880032B14BF0023022300EB830358
:1006B000406D08AC1D6C04F039FC284604F032FC97
:1006C00006A802F0C1FAB28BBDF8181006A8BDF852
:1006D0001C301144BDF81A509A1ABDF81E30ADF8FE
:1006E0001810023554F8101D023BADF81C20B1F96A
:1006F0006020B1F95E10ADF81E30ADF81A5003F06D
:100700008BFF204608AC01F0DDFB022004F048FC22
:10071000384601F0A3FA06A9424644F80C0D01F050
:100720007FFF204601F0CEFB002008B0BDE8F0813D
:10073000006801F093FA049020680AF03FFCB8B911
:10074000049B5D6F05B9DD6E04A801F0BBFB0023BF
:10075000284621681A4601F08FFE002008B0BDE847
:10076000F081006809F06EFC002008B0BDE8F0815F
:10077000A368002B64D1049A136F002B14BF6C2361
:10078000682313445D68DFE7B268B046C369002799
:10079000039271688269029158F8040900956169B1
:1007A0000190206905F076FB58F8040F04F0BAFBBD
:1007B000F369A26921696069D21A1944384402F0C8
:1007C000EFF8F369A2692169E069D21A1944C01BE4
:1007D00002F0E6F8F369E26961692069D21A194406
:1007E000384402F045F9A069F369E269C01B616908
:1007F0000137D21A194402F03BF9022FD4D1B06864
:1008000004F090FBF16922696569901CE3690A4470
:100810005B1A2944013A02F07DF9F169A069656922
:10082000E369821E401A5B1A2944013002F072F912
:10083000F56906E7012339E704A801F043FB1FE748
:10084000049BDD6E80E700BF28D7010800B9704720
:1008500030B583B00D46044601F000FA02AB4565A1
:1008600043F8040D184601F02DFB204608F0CCFE9D
:1008700003B030BD70B582B018B90124204602B073
:1008800070BD0C46054601F0E9F90346866E6846E0
:100890008DE8480001F016FB214601A805F048FF4D
:1008A00000280CBF01240024E8D0019B9E4209D0FF
:1008B000284601F0D3F9019A034668469A660093E8
:1008C00001F000FB284608F09FFE204602B070BDF4
:1008D0002DE9F04F446805468BB020460AF06EFBC8
:1008E00029460646204607F089FB002834D02B68AD
:1008F0000F2B5CD033DC0B2B46D00E2B51D1002EAE
:100900004FD0EB685A68002A4BDDD3F80080A8F17D
:100910000903192B06D80121BF4A01FA03F31A4033
:10092000002A3ED1C4B10AAE204601F097F9034631
:10093000876D46F8180D304693F854A0D3F83490DC
:10094000DD6C01F0BFFA002F00F0DC80414620464C
:10095000B847204608F058FE0BB0BDE8F08F40F2D3
:100960001312934228D0B3F5107F1AD1EB68002BF5
:1009700000F096801A7A002A4ED0002C41D12046F1
:10098000012109F013F90CE020460AAC01F066F9E8
:100990000346343044F8043D00F052FF204601F095
:1009A00091FA284607F062FF0BB0BDE8F08F2046B1
:1009B00001210FF021FACFE720460AAE09F030FA04
:1009C000204601F04BF9034646F8040D304693F8F3
:1009D000562082F0040283F8562001F073FA0021B9
:1009E00020460FF009FA204601F038F903460021AD
:1009F000D0F88400099309F0B9F9304601F062FAA1
:100A0000CFE720461E6801F029F9436B079043B9F0
:100A100007A801F057FAB2E72046022109F0C6F80C
:100A2000BFE7184601F01AF9079B0690986E04F08C
:100A30007DFA8046204608F025FA0746069802F01F
:100A40003FF9079A8146136E03F00303012B00F070
:100A5000E781022B40F0DD813B1A013348BF0133AF
:100A6000A6EB6306069805F0A5FC002E0746C0F22B
:100A7000F881B14519DA204601F0F0F8436B08908F
:100A8000002B40F0D38108A801F01CFA06A801F061
:100A900019FA404604F04AFA204608F0B5FDB7E7D7
:100AA0002046032109F082F87BE70246314606988A
:100AB00005F000FC0646204601F0D0F8436B089094
:100AC000002BE0D0184626EAE67601F0C7F8099038
:100AD00005F070FC0899B1F9383091F85470CA6C7F
:100AE000002F18BF013BB342A8BF33469842A8BFAE
:100AF0001846824200D0C864002309A80B6501F0A3
:100B0000E1F9C0E7A8F10803162B00F2E680DFE860
:100B100013F0A000E400E400E400E400E400E400DA
:100B2000E400BC00850076004800E400E400E40036
:100B3000E400E400E400E400E400E400380017000E
:100B4000204601F08BF803460AA85D6B40F8083D8B
:100B5000DF6C01F0B7F9002D3FF4FBAE284601F041
:100B60007DF839460646099004F07CFB0546304680
:100B7000FFF7AAFB8542C0F0E28109A801F0A2F9C3
:100B8000E7E6204601F06AF8BAF1010F0346049047
:100B900040F08781002280F85420304601F092F91D
:100BA000D7E6B9F1000F3FF4D4AE484601F056F84D
:100BB00006462946099004F055FB0644304604F0E9
:100BC00011FB002305468DF82230ADF82030013DA1
:100BD00004F014FB0746ADB2284604F00FFB874231
:100BE000CBD1294608A804F0F7FA08A93A463046BE
:100BF000FFF737FB0521204608F0D8FFBDE7204668
:100C000001F02CF8436B0890002B40F0A88108A855
:100C100001F058F99DE600BF13000403B9F1000F7D
:100C20003FF497AE484601F019F806462946099068
:100C300004F018FB0644304604F0D4FA00230546BD
:100C40008DF82230ADF82030013504F0D7FA074690
:100C5000C1E7002D3FF47DAE204600F0FFFF436B5F
:100C60000890002B40F0948108A801F02BF9204651
:100C700000F0F4FF034608A85D6BDF6C089301F0F9
:100C800021F9002D3FF465AE68E7204600F0E6FF4D
:100C9000436B0890002BBAD0184600F0DFFF099094
:100CA00005F088FB089A6B1EB2F9381023EAE3734B
:100CB00092F85460D56C002E18BF01398B42A8BF42
:100CC0000B469842A8BF184600238542136518BFFB
:100CD000D06409A801F0F6F899E7B8F11F0F7FF783
:100CE00038AEBAF1000F40F00881204600F0B6FFA0
:100CF000B0F9383081460590002B07DD406B0028A5
:100D000040F06B8107469F4280F263811FFA88F3AF
:100D10000DF128091E46019359F8143DDB6C484635
:100D2000039301F0CFF8304604F068FA834620467A
:100D300000F094FF436B0690002B40F08F811E461D
:100D40000AA80BEB060350F8102D0133568F9E1B9B
:100D500001F0B8F8002E40F37E812046103600F0F6
:100D60007DFF0346B0F83A800AAFD3F834A0B04410
:100D700047F8080D384601F0A5F84146504600F006
:100D800081FF029000283FF4E4ADBAF1000F00F0BB
:100D9000548109AE204600F061FF029A03463846AE
:100DA0000893A3F83A805A6301F08CF8204600F0CB
:100DB00055FF03464846D3F83480059301F082F886
:100DC000404600F04BFF80460399099004F04AFA30
:100DD00080444046FFF778FA4146421C08EB0B007E
:100DE000FFF73FFA0199404604F0F6F9304601F06A
:100DF00069F80521204608F0D9FE204600F02EFFB4
:100E0000436B0890002B40F0F680384601F05AF80A
:100E10009FE5536ED16A5A1C0B681344F61A21E6FB
:100E2000536E3F1A0133FB1AF61A1BE6184627EADF
:100E3000E77700F013FF099005F0BCFA0899B1F9C3
:100E4000383091F85460CA6C002E18BF013BBB4289
:100E5000A8BF3B469842A8BF184682427FF44BAEDB
:100E60004AE6204600F0FAFE436B0890002B3FF460
:100E70000AAE184600F0F2FE099005F09BFA0899B8
:100E8000B1F9383091F85460CA6C002E18BF013B9C
:100E900003EAE3739842A8BF184682427FF42BAE60
:100EA0002AE60122204683F8542000F0D7FE436B47
:100EB0000890F3B1184625EAE57500F0CFFE0990D9
:100EC00005F078FA089AB2F9383092F85470D16C7B
:100ED000002F18BF013BAB42A8BF2B469842A8BFCA
:100EE000184600238142136518BFD06409A800F09A
:100EF000E9FF08A800F0E6FF4FE60AAF204600F041
:100F0000ADFE466B034647F8080D3846D3F84C90C3
:100F100000F0D8FF002E3FF4E8AE304600F09EFE11
:100F200049460746099004F09DF906463846FFF702
:100F3000CBF986421CD309A800F0C4FFD5E635449E
:100F4000284604F055F929182846FFF7C4F909A8DE
:100F500000F0B8FF0521204608F028FEF9E4184605
:100F600000F07CFE099005F025FA089A6B1C9BE6C0
:100F70003E44304604F03CF931183046FFF7ABF9F7
:100F800009A800F09FFF0521204608F00FFEACE6FF
:100F9000184600F063FE099005F00CFA089A6B1EE3
:100FA000B2F9381092F8546023EAE373D56C002E3E
:100FB00018BF01398B42A8BF0B469842A8BF1846FC
:100FC00000238542136518BFD06409A800F07AFF9A
:100FD0004AE605A800F076FFBBE40AAE00F03EFE4C
:100FE00046F8040D05F0E6F90746304600F06AFFC2
:100FF000B9F9383087E6184600F030FE099005F060
:10100000D9F908996B1C91F854E0B1F9385023EAEA
:10101000E373CA6CBEF1000F18BF013DAB42A8BF1D
:101020002B469842A8BF1846002390420B6518BF74
:10103000C864304600F046FFE7E600F00FFE0AAE57
:101040000D4B514646F8040D42461B689847304602
:1010500000F038FF9EE609AE08AFA7E618460AAFD3
:1010600000F0FCFD47F80C0DFFF72EF90646384658
:1010700000F028FF64E600BFF00000202DE9F047F3
:10108000044688B04D4F4FF480560091A569B0F9E1
:101090000C106035B0F90A001944B4F9103010444E
:1010A000B4F90E20039502970196B4F90850D4F8CC
:1010B000148007F0EFFA20B90027384608B0BDE8E1
:1010C000F087074600F0CAFD29461022059007F078
:1010D00075F93B4E4FF0010CDDF814E00FCE0EF128
:1010E00060050FC50FCED6F8009018F1010618BFA5
:1010F0000126B8F1000F0FC5C5F800908EF855C055
:101100008EF8886055DD0FFA88F808EB0C0500238F
:10111000AEF8388005A808AEAEF83A30CEF83430D4
:1011200000F0D0FE384600F099FD0346428FD3F818
:101130003480154446F8080D304600F0C3FE2946B9
:10114000404600F09FFD824678B3B8F1000F1DD0F5
:101150000DF11C09384600F081FD034630465D87DD
:10116000C3F834A0069300F0ADFE3846648A00F060
:1011700075FD079018B10466384608F045FA4846F0
:1011800000F0A0FE384608B0BDE8F08700F066FD2C
:101190000DF120090B4B414649F8040D2A461B6806
:1011A0009847484600F08EFED4E7384607F08EFB9D
:1011B00082E709254FF00808A9E700BFD108000819
:1011C00094000020F000002000B9704770B582B094
:1011D0000D46044600F042FD02AE034685662046F9
:1011E00046F8043D08F010FA304600F06BFE02B0FD
:1011F00070BD00BF00B97047AFF300802DE9F04F1C
:101200008BB00E46074600F029FD0AAD0246446B3E
:1012100045F8180D2846B2F9388000F053FE002E2C
:1012200000F0A880002C7DD1A1463046444605F050
:10123000C1F88045A8BF04463046214604F012F8A4
:1012400000F10108384600F009FD436BC9EB080ABC
:101250000690002B57D19946D144438F06A809F137
:101260000109C3EB090900F02DFEB9F1000F25DDDE
:10127000384609F1100900F0F1FC0346428F0DF1E8
:10128000280AD3F834B091444AF8080D504600F0CB
:1012900019FE4946584600F0F5FC019068B3BBF1D1
:1012A000000F54D0384600F0D9FC019B024650464E
:1012B000A2F83A905363089200F004FE384600F01A
:1012C000CDFC0346406B049300F0C8FC314B424612
:1012D000314605901B689847059A0023904408F80A
:1012E000013C049BB3F93820DC64A24228D005A855
:1012F00000F0E8FD284600F0E5FD384608F084F9E6
:101300000BB0BDE8F08F18460DF1280B00F0A6FCDD
:101310004BF80C0DFEF7D8FF8146584600F0D2FD81
:10132000069899E720460AAC00F098FC44F8140DA2
:10133000FEF7CAFF00F10109204600F0C3FD74E783
:1013400093F85420012AD2D1013CDC64CFE700F0AD
:1013500085FC0AABDFF840E0594643F8040D4A46E5
:10136000DEF800B002930393D847029B184600F0C2
:10137000A9FD97E7384600F071FC0346343004932A
:1013800000F05EFA049B28465E87DE6400F09AFD5A
:10139000B3E700BFEC000020F000002000B9704768
:1013A00030B583B004460D4600F058FC019018B1EA
:1013B0000566204608F028F901A800F083FD03B077
:1013C00030BD00BF0D4B10B5186806F069FA0C4B24
:1013D0000C4C186806F09EFA2368002201219A85B9
:1013E00010465A85197606F0C7FA074A236812682C
:1013F00002B1DA6100229A7610BD00BF38000020E9
:10140000340000203C00002030000020014B83E825
:1014100003007047B4BC0120014B83E80300704710
:10142000BCBC0120014B83E803007047C4BC012011
:10143000704700BF704700BF2DE9F04F5C4E8DB084
:101440003368DA69B3F92250D469B4F80CB0834533
:1014500000F29780E1898142C0F093802168CBEB54
:10146000000B08914FF0FF310A91BBF1FF3F00F0F4
:10147000828092F81880A27CB3F92A10B3F92490E4
:1014800018FB02F3084607911F4694F810A006F0D7
:1014900073FAD6F800E008994346DEF838C05246A1
:1014A000099007FB0B10DEF81CE00B970127049056
:1014B0004946CDF814C0284694F812C00297CDF8DA
:1014C0000CC09EF81BC0DFF8E8B0CDF804C09EF851
:1014D0001AE0CDF800E005F08FFB0A9F7B1C25D0B9
:1014E000079941F0020006F047FADBF800100B9A6A
:1014F00043460898D1F838C002FB0700D1F81CE039
:101500000127CDF814C00490524694F812C0494601
:1015100002972846CDF80CC09EF81BC0CDF804C039
:101520009EF81AE0CDF800E005F066FB3368DFF8BE
:101530008080DB695A7E1B7E9A4215D9079B022B5D
:1015400012D083F0040006F017FAD8F800302846CD
:10155000DB691F7ED97E9A7E5B7E07FB01910AFBC9
:1015600002524B4405F050FD9DF8240006F004FAA9
:101570003368B3F92250627C15445D840DB0BDE838
:10158000F08FA1680029F6D00F88B842F3D3B1F8E4
:1015900002E08645EFD3C01B4968676880B20897B0
:1015A00001EB800731F920B0B7F902100A915CE72E
:1015B0003C000020044B1B68DB69DB6909B11A7C25
:1015C0000A60587C704700BF3C00002002230B805B
:1015D000704700BFC3699A898A4202D8DA898A4271
:1015E00011D2986818B10388994201D2002070473F
:1015F00042888A42FAD3C91A436833F82100C043AB
:10160000C0F3C03070470120704700BF2DE9F04F94
:101610003A4D89B02B68DA69B3F92A90D36943B19E
:101620001A88904202D35988814205D29B68002BC8
:10163000F6D109B0BDE8F08F841AD3F8048048468B
:1016400008EBC40696F802B006F096F982462868C0
:1016500018F834204FF0010EC769D0F838C0B0F93F
:101660002410B0F922003B7E0790CDF814C07068BA
:10167000CDF80CB00490CDF808E097F81BE007987F
:10168000CDF804E0BF7E009705F0B6FA2B68DA6962
:10169000537E177EBB4223D9B9F1020F07931FD0A7
:1016A00092F81BB001F0D4FA814601F0B5FA03F0CC
:1016B00039FC124B18F834E01868079BC169B0F97F
:1016C0002240CA7EB0F9241020460EFB02420BFBDA
:1016D00003130BFB071105F097FC484603F022FCAF
:1016E000504606F049F92B687178D8695A8C807E8B
:1016F00000FB01225A8409B0BDE8F08F3C000020B5
:10170000114B1B6870B4DD69EB6943B11A889042D4
:1017100002D35C88844205D29B68002BF6D1184620
:1017200070BC7047821A5E68AC7E06EBC2035B78C1
:1017300013FB04F00029F3D016F8323014FB03F346
:1017400070BC0B60704700BF3C00002001230B8081
:10175000704700BFC06950B103888B4202D84388EC
:101760008B4203D280680028F6D170470120704771
:1017700000B970470AF016B808B900207047F8B5EC
:1017800006460AF00FF8044638B3154D3246154F99
:101790000021E8696B6B013003EBC406E86113F8C4
:1017A0003400013003F8340076683B6806F1080025
:1017B000984731686A6B12F83130012B01D9E8691A
:1017C00020B9013B204602F83130F8BD0138013B19
:1017D000E861204602F83130F8BD0020F8BD00BFB6
:1017E0005CC70120F000002021F00301014B83E8D9
:1017F00003007047CCBC012000B9704770B50A4C9B
:10180000C6000546636B33445968486809F01CFEFE
:101810006368626B0021606A013316446360706024
:1018200002F83510656270BD5CC7012028B1034A1B
:10183000D36B036003B15860D06370475CC701206D
:10184000F8B50468054694B10A4EE700736B3B4453
:101850005968486809F0F8FD7368726B0020716A76
:10186000013317447360796002F834007462002316
:101870002B60F8BD5CC7012000292ADD2DE9F04767
:1018800000258A46041F134FA94603E0AA45C4F861
:1018900000901CD054F8046F0135002EF6D04FEAAA
:1018A000C6087B6B43445968486809F0CDFD7B68E6
:1018B000796BAA457A6A03F1010388447B60C8F812
:1018C000042001F836907E62C4F80090E2D1BDE8B1
:1018D000F08770475CC70120F8B58B4E044696F838
:1018E0002830002B2FD00334356CF26B24F0030426
:1018F0000434A54238BF254662B152F8043C144670
:101900009D4204D114E054F8043C9D4210D0246858
:10191000002CF8D1F368B46B1C4454F8041C611A11
:101920000B68002B68D14B689D426FDD002408E0F6
:1019300023680BB161685960616801B10B60A24214
:1019400056D02046F8BD714B01219A6886F82810C0
:1019500058680AB982089A605A27102220254FF049
:10196000400E3762802732644FF48072B5644FF4C2
:1019700000751968C6F850E04FF4806EB7654FF4F3
:10198000006732664FF48052B5664FF40055A1F1FE
:101990001403C6F870E0B7674FF4804EC6F8802095
:1019A0004FF40047C6F888504FF480324FF40035AA
:1019B0000344C6F890E04FF4802EC6F898704FF4B8
:1019C0000027C6F8A0200222C6F8A8500125B1635E
:1019D0007363C6F8B0E03261F060C6F8B8705D605D
:1019E0007562756009F030FD0CF074FB35637AE7C1
:1019F00023682046F363F8BD00200EF029FD54F85B
:101A0000041C611A0B68002B90D18CE7581BD6F888
:101A1000B8703D4A041DBB420C4472D2D2F8B0707B
:101A2000BB426CD2D2F8A870BB4266D2D2F8A0708A
:101A3000BB4260D2D2F898709F425AD9D2F89070C7
:101A4000BB4254D2D2F88870BB424ED2D2F88070DA
:101A5000BB4248D2926F934243D2376F2A4ABB426D
:101A60003DD2976EBB4238D2176EBB4233D2976DD0
:101A7000BB422ED2176DBB4229D2976CBB4224D2F7
:101A8000126C93420CD2F2687369521B2B44F260C1
:101A9000736110B944F8045C53E709F0D5FCF9E729
:101AA00000223768D1F808E0FF1ACB683760BEF132
:101AB000000F01D0CEF8043013B1C3F800E0E2E724
:101AC00006EBC202C2F844E0DDE70122E9E70222A8
:101AD000E7E70322E5E70422E3E70522E1E7062240
:101AE000DFE70722DDE70822DBE70922D9E70A2240
:101AF000D7E70B22D5E70C22D3E70D22D1E70E2240
:101B0000CFE70F22CDE700BF5CC70120CCBC01208E
:101B1000F8B54A4C94F82830002B3DD0D4F8BC30AE
:101B2000464A3BBBD2F8B43023BBD2F8AC300BBB37
:101B3000D2F8A430F3B9D2F89C30DBB9D2F89430A3
:101B4000C3B9D2F88C30ABB9D2F8843093B9D36F23
:101B500083B9536F73B9E36E63B9536E53B9D36DE1
:101B600043B9536D33B9D36C23B9536C13B96FF0C8
:101B70000B00F8BD9B68002BF9D0002201E09B68A8
:101B800043B159681046914201D90A4608469B68FC
:101B9000002BF4D10C38F8BD294B01219A6884F848
:101BA000281058680AB982089A605A2610222025FF
:101BB00040272662802622644FF48072A5644FF489
:101BC0000075196827654FF48067A6654FF40066B5
:101BD00022664FF48052A5664FF40055A1F114031C
:101BE0002767A6674FF48047C4F880204FF400466B
:101BF000C4F888504FF480324FF400350344C4F8E1
:101C000090704FF48027C4F898604FF40026C4F811
:101C1000A0200222C4F8A8500125A16363632261B9
:101C2000E060C4F8B070C4F8B8605D60656265607B
:101C300009F00AFC0CF04EFA25636FE75CC701203F
:101C4000CCBC012030B1044B5B6B03EBC00043689C
:101C500058680C38704700BF5CC70120084AD1693A
:101C6000536B013110B4D16103EBC00413F8302081
:101C7000013203F8302060685DF8044B083070478B
:101C80005CC7012009B9084670472DE9F0470646B0
:101C900008468A4609F086FD044600285AD0002EE0
:101CA00058D02E4DF700DFF8B8C06B6BE969DA1930
:101CB00013F8300003EBC40E0231D2F80480013077
:101CC000D8F8042003F834000C3ADEF80490E961F7
:101CD00008F1080113F836E0524509F108000EF149
:101CE000010EA8BF524603F836E0DCF800309847F2
:101CF000D9F800106B6B13F83120012A03D9E86979
:101D000008B10138E861013A03F83120D8F8001031
:101D100013F83120012A06D9E869DFF840E010B154
:101D20000138CEF81C00D819013A03F83120416877
:101D3000486809F089FB6B68696B4FF0000E6A6AAE
:101D400001330F4420466B607A6001F836E06E6222
:101D5000BDE8F0872046BDE8F08700BF5CC70120E2
:101D6000EC000020F8B5544C94F82830002B51D0EA
:101D7000D4F8BC30504A83BBD2F8B4306BBBD2F835
:101D8000AC3053BBD2F8A4303BBBD2F89C3023BB61
:101D9000D2F894300BBBD2F88C30F3B9D2F884303F
:101DA000DBB9D36FCBB9536FBBB9E36EABB9536E2D
:101DB0009BB9D36D8BB9536D7BB9D36C6BB9536C35
:101DC0005BB96FF00B033D49DA1781FB0313C2EBDC
:101DD0006313206A00FB03F0F8BD9B68002BF8D06A
:101DE000002201E09B6843B159681046914201D935
:101DF0000A4608469B68002BF4D10C38B0F5800FDA
:101E00000346E0D8226A2D4B02FB00F0A3FB00231F
:101E10005809F8BD2A4B01219A6884F8281058689F
:101E20000AB982089A605A26102220254027266285
:101E3000802622644FF48072A5644FF400751968FF
:101E400027654FF48067A6654FF4006622664FF45D
:101E50008052A5664FF40055A1F114032767A667C9
:101E60004FF48047C4F880204FF40046C4F88850EF
:101E70004FF480324FF400350344C4F890704FF4AF
:101E80008027C4F898604FF40026C4F8A0200222EE
:101E9000C4F8A8500125A16363632261E060C4F81F
:101EA000B070C4F8B8605D606562656009F0CCFA36
:101EB0000CF010F925635BE75CC701201F85EB512F
:101EC000CCBC012003680B4A30B4044653F8085CCC
:101ED000506B10F83530012B03D9D16909B10139A4
:101EE000D1610022013B00F835301046226030BC41
:101EF000704700BF5CC70120034B5B6B03EBC00066
:101F000040680830704700BF5CC701202DE9F041F0
:101F1000064610461446884600F0A2FEC8B9A7003F
:101F2000184D3B1905EB8303DA68B24204D11B69F3
:101F3000434501D1BDE8F0813B1905EB83035869A6
:101F4000B0B93C4405EB8404E660C4F81080BDE8F9
:101F5000F0810C4B04EB840403EB840463689A68FF
:101F60005968C2EB0802711ABDE8F04102F0FCBFEB
:101F70005B689A685968C2EB0802711A02F08AFC21
:101F8000DFE700BFE0C60120C3B2CAB29A1A92B21C
:101F900010B414B2002C1EDBC1F30722C0F30723D8
:101FA0009B1A9BB21AB2002A12DB090C02FB02F246
:101FB000C1EB104104FB042089B20CB2002C01DA01
:101FC00049420CB2A1B25DF8044B01FB010070471D
:101FD0005B421AB2E9E7524214B2DDE700212DE973
:101FE000F041084682B000F0ABFE042005F0C4FCCE
:101FF000144B154F43F6FF761B6980463D46344629
:10200000DA6C68461B6D174416441D441C44ADF839
:102010000070ADF80460ADF80250ADF8064008F06D
:10202000D7FB48B1234632462946384604F0ECFF38
:1020300008F070FA0028F5D1404605F09DFC02B08A
:10204000BDE8F0812C00002001C0FFFF2DE9F04128
:10205000074682B0042016461C460D4605F08CFC4F
:10206000124B804668461B69DA6C1B6D1744164498
:102070001D441C44ADF80070ADF80460ADF802508A
:10208000ADF8064008F0A4FB48B123463246294685
:10209000384604F0B9FF08F03DFA0028F5D1404673
:1020A00005F06AFC02B0BDE8F08100BF2C00002002
:1020B000034604202DE9F04182B0B3F90070B3F972
:1020C0000260B3F90450B3F9064005F055FC124B19
:1020D000804668461B69DA6C1B6D174415441E4424
:1020E0001C44ADF80070ADF80450ADF80260ADF8D6
:1020F000064008F06DFB48B123462A463146384673
:1021000004F082FF08F006FA0028F5D1404605F0F9
:1021100033FC02B0BDE8F0812C0000202DE9F0472F
:10212000044682B00D461646002B37D09A460096DC
:1021300051460B9B204626680A9AB047074618B9B5
:10214000384602B0BDE8F08706F034FE618A80466A
:10215000384606F035F8013D384607F0D1FF4046D5
:1021600007F0CEFF002D1DDD4FF0000903E007F062
:10217000C7FF013D16D054F81C6F0023CDF8009026
:10218000414620461A46B04706460028EFD1384659
:1021900006F09CFB304602B0BDE8F08706F018FE62
:1021A0008246C4E740461D2107F070FEBAF1FF3FAA
:1021B000C6D006F031FE40B9BA450CD0384607F01B
:1021C000CBFE3846BDE70028F8D0FFF795FE8069C2
:1021D0008742F8D1B4E75046B3E700BF012B17DCC4
:1021E0002DE9F04107461C2090460D461E46FFF79C
:1021F00073FB0446D0B16DB1056100232046A66192
:10220000A4F81480E76023606360A360BDE8F081F8
:1022100000207047074B53F826200AB9EDE71A460D
:102220001368002BFBD113692361E6E70020BDE8AA
:10223000F08100BF3CC80120012B3BDC2DE9F843B5
:1022400081461C2090460F461E46FFF745FB05467B
:1022500000287FD0414A002F31D00023DFF804E16D
:1022600052F8264003609EF8001007618E42866196
:10227000A0F81480C0F80C904360836002DB731CEC
:102280008EF80030002C5DD021464C68002CFBD12C
:10229000D9F80000CB681B6883422CDD096800294F
:1022A000F8D148B92E4B163628461A6842F82650FF
:1022B000BDE8F883002070472846BDE8F88352F84F
:1022C0002610002930D0084600E018460368002B8D
:1022D000FBD10069DFF88CE02B6028619EF80000DC
:1022E000AE618642A5F81480C5F80C906B60AB60B7
:1022F000CBDB0C46C3E70AD04B6843B31D606B6071
:102300008D4214BF0B4600234D602B60C9E7B8F126
:10231000010FF1D104E0DC68194623688342EBDB4E
:102320000B68002BF7D1E7E7DFF838E001609EF893
:10233000003086619E42A0F81480C0F80C90416085
:102340008160D6DA42F82650D9F80000A9E742F8B1
:102350002650D5E70020BDE8F88300BF3CC8012027
:102360003C00002035C80120FFF760BA00283DD0AE
:1023700070B48469012C03DD0123184670BC7047DA
:102380001F4B1A78944221DA1E4D55F824300BB9B0
:1023900032E013465A68002AFBD1C268116802E095
:1023A0001B68002BE8D0DA6812689142F8DB10D085
:1023B0005A68F2B110604260984214BF1A46002277
:1023C000586000230260184670BC7047621C1A7087
:1023D000DAE7828A012AEBD104E0D6681346326834
:1023E0009142E5DC1A68002AF7D1E1E7012318469B
:1023F000704745F82400DFE745F82400BDE700BF3B
:1024000035C801203CC801200F4A816952F82130AB
:1024100098420AD042680AB103681360036803B1A6
:102420005A600023036043607047036842F821301C
:102430002BB100225A604268002AEED1F0E74268D0
:10244000002AEAD1EDE700BF3CC8012001280EDCDC
:10245000084B53F8200058B1C3681B681BB908E04B
:10246000C3681B6823B100680028F9D170470020B9
:10247000704770473CC8012000B970472DE9F04112
:1024800082B01E4615460C460746FFF7E7FB02AB37
:10249000026843F8040D1846D2F80080FFF712FDD9
:1024A00033462A4621463846C04702B0BDE8F0818F
:1024B00070B50546094E0FF01FFB054407E000F01C
:1024C000FBFA3068A042A8BF20460FF00BFB0FF0CC
:1024D00013FB2C1A002CF2DC70BD00BF4000002062
:1024E0002DE9F04F484D83B0044600F0C9FB2B683E
:1024F0000646B3F9228000F0FBFB2B681FFA80F937
:102500009A8CC9EB020212B29A84217800294FD02A
:10251000B6B22F4647F6FF71204603F023FF01466F
:102520008346204603F0DEFE29688B8D03F003030B
:10253000012B58D0022B5AD01FFA80FA4FF0000E10
:102540004B8C0AF1FF3CB1F92420CEEB0303ADF82C
:102550000220013A9BB2B0186A460FFA83FE634428
:10256000ADF806002046A1F822E05946ADF800E09B
:10257000ADF8043003F028FA2B682046BDF802209D
:1025800059469A8402F06EFE235C04440A2B19D04B
:102590000D2B17D0BDF800003B688244A3F822A0A1
:1025A00022781AB162780134002AB3D1B3F9242019
:1025B000998D914421F00302A3F824909A8503B0E9
:1025C000BDE8F08F2B689A8D02F00302013A012AD0
:1025D00016D8A3F8228022780A2AE2D19A8C3244B3
:1025E0009A842278DDE71FFA80FEF246A8E70028E9
:1025F00003461FFA80FAB8BF431CC3F34F0E9FE790
:102600001A8C5A84E7E700BF3C000020034B1B688C
:1026100059849A8408B1FFF763BF70473C000020DB
:1026200000B3F0B5054683B016460C46C1B1084666
:1026300007F05AFD074638B102462146684603F0C6
:1026400009FF684607F050FD32462146284647F606
:10265000FF7303F01BFA384607F046FD03B0F0BDE8
:102660000F46F1E7704700BF08B100F001B87047AE
:102670002DE9F04F89468BB01F46B1F90030B1F912
:102680000410154600930446CE1AB9F90630059297
:1026900001910136B9F902B0039300F0F1FA15F097
:1026A0000C05029019D0A2463A4631464FF0000878
:1026B000504604F0A9F848B182443A46314608F140
:1026C0000108504604F0A0F80028F5D1082D79D073
:1026D0000C2D00F08280042D74D0BDF808A048466F
:1026E00007F002FD02460490A8B10099002506A853
:1026F0002B4661F30F0501996BF31F4561F30F033F
:102700000399069561F31F434946079303F0A2FE20
:1027100006A807F0E9FC059B1FFA8BF503F00308F8
:102720000AF1FF3302934346B0461E4615E0022EDF
:1027300034D01EB9B9F80030ADF8203020465946E3
:1027400008AA554403F040F920463A46414604F0B1
:102750005BF80444ADB2237873B33A464146204651
:1027600004F0B4F8BDF80020029B8346ADF82020A9
:102770002046EB18BDF804205946ADF82250ADF8BC
:102780002420ADF8263003F0ADFD012ECFD1B9F8ED
:1027900004300133181AADF82000CFE7B9F9001062
:1027A000B9F904305B1A181A013048BF013001EB47
:1027B0006000ADF82000C1E7049807F095FC0BB06D
:1027C000BDE8F08FBDF808A0039B18FB0AF85D1C5C
:1027D000C8EB05050FFA85FB81E7039B029ACBEB5B
:1027E0000303BDF808A0013308FB1238B8F1000F4D
:1027F000B8BF08F101080BEB68050FFA85FB6EE71F
:102800002DE9F04F654C91B02468E56C246D2818D3
:10281000AA186118E318064607900EA808920D46FC
:10282000029101931C46ADF83860ADF83C20ADF83C
:102830003A10ADF83E3007F0CBFF002800F095804D
:10284000C5EB040B1A999DF86820C1F30724BBF16E
:10285000000F1B995B46B8BF0BF101030BFB02FE97
:10286000C1F307271A995B109DF86CC0C1F30740AC
:102870001B9903EB0E05C1F307461A990A95090E39
:102880000BFB04353C1B0B9503940BFB0034301AF7
:102890000BFB01335E460C940D931B9B0490C1EB24
:1028A00013630593C2EB0C03069300F0D1F91A9B56
:1028B0001B9A0990934267D0002E52D0029D019A34
:1028C000954259DC0AAF86464FF0010B97E8800726
:1028D00006E00BF1010B0135019BA646AB422FDB55
:1028E00070469AFBF6F499FBF6F197FBF6F398FB2A
:1028F000F6FC2206059C43EA0C23A24442EA01446A
:10290000049A1C43029B9144069AAB421744039AD3
:102910009044E0DA7445DCD004F0FCFFBBF1010F19
:10292000CBEB050105F1FF33089A079820D004F09E
:102930006BFB0135019B4FF0010BA646AB42CFDA92
:10294000204604F0E7FFBBF1010F17D0019B089A66
:10295000CBEB03010798013104F056FB099804F012
:10296000D9FF07F0D7FD00289FD111B0BDE8F08F47
:10297000691E04F0C7FAAEE704F0CCFF089A01998B
:10298000079804F0BFFAE9E7184604F0C3FF019B7B
:10299000089A0299079804F037FBDFE73C00002013
:1029A000F0B5114F83B03B681D6DDC6C0544684683
:1029B000661814442BB2ADF80060ADF80440ADF8D1
:1029C0000230ADF8063007F003FF50B13B682246F5
:1029D000294630465B6E1B68984707F09BFD002830
:1029E000F4D103B0F0BD00BF3C0000202DE9F0435E
:1029F0001E4C83B025682E7E2F6DEC6C013E07EBDC
:102A0000010907EB030825181444B2B26846AE1A50
:102A10001119C2EB09034244ADF80060ADF804108F
:102A2000ADF80230ADF8062007F0D2FED8B109F1BA
:102A3000010708F1FF3622464946284604F062FAAB
:102A400022464146284604F05DFA32463946284679
:102A500004F0B2FA32463946204604F0ADFA07F0E7
:102A600059FD0028E7D103B0BDE8F0833C00002009
:102A7000104B1B6870B5DD6C82B01C6D0544684658
:102A8000661814442BB2ADF80260ADF80640ADF8FC
:102A90000030ADF8043007F09BFE40B122463146CD
:102AA000284604F089FA07F035FD0028F6D102B077
:102AB00070BD00BF3C0000202DE9F0410025124F01
:102AC000124EDFF84C803C681CB1A047041C18BFB4
:102AD000012406F017F83368002818BF01244BB111
:102AE000984738B1D8F8003013B1012498473CB169
:102AF0000125E8E7D8F80030002BF7D1002CF7D1FA
:102B00002846BDE8F08100BF64C8012068C80120E4
:102B10005CC80120F0B5104C83B02468E56C246DCE
:102B20002F18154466181C446846ADF80070ADF8BF
:102B30000450ADF80260ADF8064007F049FE48B118
:102B400023462A463146384604F05EFA07F0E2FC96
:102B50000028F5D103B0F0BD3C000020002850D083
:102B6000C388013B10B5848880681F2B47D8DFE8F5
:102B700003F0162346314646463C46464646464600
:102B800046404646464646464646464646464646EB
:102B90004610A31002FB031150F8210010BD02FBE8
:102BA00004F200EBD104C843A35C00F0070023FA51
:102BB00000F000F0010010BD02FB04F200EB9104F4
:102BC0006FEA4100A35C00F0060023FA00F000F079
:102BD000030010BD02FB04F200EB5104CB07A05C24
:102BE0004CBF00F00F00000910BD02FB0404605C44
:102BF00010BD631002FB031130F8110010BD00205E
:102C000010BD7047034B082153F82000C3689B6A2E
:102C1000184700BF3CC8012008B504F035FABDE8EC
:102C2000084004F001BC00BF024B00211B68DB69B7
:102C30005B6818473C000020024B1B68DB695B683F
:102C4000184700BF3C00002008B106F0A5B8704747
:102C500008B504F021FABDE8084004F0E5BB00BF68
:102C6000012801D900207047014B53F8200070471C
:102C7000A8BD0120014B1B68187C70473C00002058
:102C8000024B1B68DB69587E704700BF3C00002088
:102C900038B50D46144604F09DFA10B100232B60A0
:102CA000236038BD044A054BB2F90020B3F9003067
:102CB00002600B60704700BF28C801202AC80120AD
:102CC00010B5044603F076FB01462046BDE81040EF
:102CD00003F008BB0EF010BF044B342235206121F5
:102CE0009A70187018461971DA7070472400002025
:102CF0000A4B1A68938D03F00C03082B05D00C2B9C
:102D000003D0042B05D000207047D369187E4008FB
:102D10007047D369187E0138704700BF3C0000201F
:102D2000024B53F820301B69186870473CC80120DB
:102D3000024B53F820301B69586870473CC801208B
:102D4000024B1B6858840020998470473C00002087
:102D500090B583B000AF534A524B1B6823F0010378
:102D60001360514B1B68C3F30A0340F2494293427C
:102D70000CBF01230023DAB24B4B1B68C3F30A03D9
:102D800040F251418B420CBF01230023DBB21343BD
:102D9000DBB21946444B1B68C3F30A0340F25242AC
:102DA00093420CBF01230023DBB20B43002B10D056
:102DB0003E4B01221A6000BF3C4B1B68002BFBD12D
:102DC0003B4B3C4A1A603A4B1B683B4A934218D033
:102DD000FEE73A4B1B68C3F30A03B3F58A6F10D1C1
:102DE000374B01221A6000BF354B1B68002BFBD10B
:102DF000344B304A1A60334B1B682F4A934200D041
:102E0000FEE702F0A1FD304B2E221A700EF07AFE82
:102E10002E480CF0ABFC0EF0CFFB786004F054FAB7
:102E20000346002B0CBF01230023DCB204F092FA0E
:102E30000346002B0CBF01230023DBB22343DBB28C
:102E4000002B09D004F056FA044604F099FA034620
:102E50001946204604F08AFD0021002002F086F881
:102E600006F0C0FA1A4B1B68002B12D00DE0184B6D
:102E70001B681B68002B03D0154B1B681B68984709
:102E8000134B1B685B68124A1360114B1B68002BC5
:102E9000EDD1104B01221A707B6818460C37BD46E5
:102EA00090BD00BF002000E0002004E00830024098
:102EB00000300240C2A507F4CDB5E8B50010005CB3
:102EC000084C0258004C025820C80120E0BC0120E8
:102ED00058BD012034C8012010B582B028B90F4B6D
:102EE0001B68186E08B902B010BDFEF7B7FE02AB42
:102EF000446943F8080D1846FEF7E4FF002CF2D0B1
:102F0000204602ACFEF7AAFE826844F8040D9368DE
:102F100098472046FEF7D6FF02B010BD3C000020C7
:102F200000B97047014A114600F002B801F0FFFFF6
:102F30002DE9F047DFF8F08084B0064600200C460B
:102F4000154601F0F1FFD8F80030814630461F6E7B
:102F5000FEF784FE03680090986901F0C7FF314BCB
:102F600082469C42009B4DD01A895B89013AADF89C
:102F70000840013BADF80A5022442B44ADF80C2028
:102F8000ADF80E3005F0FAFA6846FEF79BFF02A88E
:102F900007F01EFC18BB504601F0A8FF002F39D0E7
:102FA000D8F800301B6E93BB05F056FC3846FEF790
:102FB00055FE04ACD8F8003044F80C0D1F660068CC
:102FC000FFF7D4F92046FEF77DFF04F081FD04F001
:102FD00093FC484601F0A8FF04B0BDE8F0872A46FC
:102FE0002146304600F07CFC07F094FA0028D2D04D
:102FF0002A462146304600F073FC07F08BFA002881
:10300000EDD1C8E7B3F90440B3F90650ACE701F0DD
:1030100063FFC9E701F060FF484601F085FF04B097
:10302000BDE8F08701F0FFFF3C0000202DE9F043F0
:103030001C4D0F4606461C4C296885B090469946A3
:10304000487C54F8204001E02468DCB1E3681A6849
:10305000042AF9D1DB6A0121204698470546B8B118
:103060002469A3689847013016D00C994B46424614
:103070000294009139460195304600F0ADFA05B052
:10308000BDE8F083FFF7E2F9044608B1C368E1E761
:10309000002005B0BDE8F0830C9B044C43F0010315
:1030A0000C93E2E73C0000203CC801208865010841
:1030B000C0B1114B1B681B6E984210B5044682B01C
:1030C00016D02046FEF7CAFD436901905BB900683F
:1030D000FFF74AF901A8FEF7F5FE2046FEF78CFB44
:1030E00002B010BD7047184602F0C6F90198EEE72D
:1030F00001F0F2FEE5E700BF3C0000202DE9F04FB3
:10310000DFF864B1894604465548DBF800101E46D6
:1031100087B092464F7CC3573846012B40F38E80D0
:1031200004F0D8F80546384604F01AF90746002C92
:1031300000F0818005A904A8FFF7B4FD049A059B5F
:103140001544B4F900201F44B4F9023022EAE272B7
:10315000013D23EAE373013F114602921846B4F998
:10316000042003939542D4BFC1EB0501C1EB0201DA
:10317000B4F9063002460D469F42D4BFC2EB0702A7
:10318000C2EB030201351746013706B97E42002D16
:103190004DDD002F4BDD109B2A46039900933346EB
:1031A0000298FFF743FF804600284FD000F08AF8CE
:1031B0008742064604D0DBF80030986C00284BD1DB
:1031C00040463D46002400F07DF90EE0AD1BACB951
:1031D00050463444C847234BFF201B6803B198472F
:1031E0004046FFF79DFEA74212DDAE42EEDD2946C6
:1031F000404600F04DF9AD1B002CE9D0039B404642
:103200000299E21800F088F94046FFF765FEDFE713
:103210004046FFF74DFF002000F054F9B74206D0BA
:10322000DBF80030986C10B1332108F01FF8002053
:1032300007B0BDE8F08F03940294A6E703F0F4FF13
:103240000546384604F01AF8074670E75046C84766
:10325000012007B0BDE8F08F322108F007F8AFE792
:1032600038C80120ACC601203C00002030B583B036
:1032700018B90446204603B030BDFEF7EFFC0368E2
:1032800002AD1B6945F8040D9B68984704F040FDAA
:1032900004462846FEF716FE204603B030BD00BFA8
:1032A00070B110B582B0FEF7D9FC00F1180402AB82
:1032B00043F8040D1846FEF705FE204602B010BD87
:1032C000704700BF10B582B060B1FEF7C7FC02AB1B
:1032D000B0F90A4043F8040D1846FEF7F3FD204606
:1032E00002B010BD044B1B68186E0028EDD10446D7
:1032F000204602B010BD00BF3C0000202DE9F04F79
:10330000804687B0002758E0002E7ED105F060FD92
:10331000804500F09A80584B012649462246029388
:103320005846564B009601932B4600F055F98146BE
:103330004046FEF793FC03460590C0F82490B9F18F
:10334000000F79D0826A05A8DFF840B142F48032DC
:103350009A62FEF7B7FD484600F0B4F88246304660
:10336000474E02F0EDF84846FFF79AFF454B05FB44
:1033700004F2454C197892003568A8474046256804
:10338000CBF8008005F076FD2060404607F036FE61
:10339000002225601046CBF8002002F0D1F85046FC
:1033A00000F090F84046FEF7A7FD406AB0FA80F3BF
:1033B0005B090137042F22DC0BB34046FEF74EFCBD
:1033C000034605A8B3F900B0B3F90290B3F904407D
:1033D000B3F90650CBEB04040593C9EB05055E6A0F
:1033E0000134FEF76FFD0135002DC8BF002CD4BF9E
:1033F0000123002388DC01370020042FDCDD08B125
:1034000000F0BCF807B0BDE8F08F3046FEF726FCB0
:10341000034606A8B3F9065040F8083DB3F9044046
:10342000FEF750FDA94501D1A345BBD04A465946F8
:10343000304600F071F8B5E705A8FEF743FD4046B9
:1034400007F0DCFD33464846B3E703F027FF0646A6
:1034500003F06AFFB44202DC85427FF75CAFB442FE
:10346000A8BF34468542A8BF0546214640462A46A5
:1034700006F00EFE4FE700BF886501088CE00108EA
:10348000F0000020B0C6012058C70120E8CC012080
:1034900010B50C4682B060B1FEF7E0FBB0F90A301F
:1034A0000190A342C8BF448101A8FEF70BFD02B002
:1034B00010BD034B1B68186E0028EDD102B010BD83
:1034C0003C000020F0B5134F83B03B681E6ED8B1AE
:1034D0000446B6B905F0C0F92046FEF7BFFB02ADC1
:1034E0003B6845F8040D1C660068FEF73FFF284660
:1034F000FEF7E8FC04F0ECFA04F0FEF9304603B005
:10350000F0BD01F0E9FCE5E701F0E6FC304603B070
:10351000F0BD00BF3C00002030B50C4683B028B998
:10352000154B1B68186E08B903B030BD15B224B234
:10353000FEF794FBC5808480009004F0DDF9009BC9
:10354000586920B96846FEF7BDFC03B030BDFEF7F0
:1035500085FB009B0190B3F90820B3F90A30828003
:10356000C38013B10AB10480458001A8FEF7AAFC0C
:103570006846FEF7A7FCE8E73C00002000B970476A
:1035800070B584B00446FEF769FB014601A8B1F9A5
:103590000460B1F906500A894B89324401912B44E9
:1035A000ADF80860013AADF80A50013BADF80C20C7
:1035B000ADF80E30FEF786FC02A807F009F940B11D
:1035C0002A463146204600F06DF906F0A3FF002898
:1035D000F6D104B070BD00BF2DE9F04FDFF82C81AB
:1035E00087B082468B46D8F8000017461E461299CF
:1035F000437C00221198FEF7F1FD00284DD00369AD
:1036000005469B68984704F083FB00FB07F481465E
:10361000FEF7A8FB109B073413F001034FEAD40414
:103620003FD0002E2CDD002B42D004FB06F01830DA
:10363000FEF79EF8024668B30023029310460392F9
:10364000FEF70CFB029A034606A8A3F804A0A3F811
:1036500006B01F815E81DC60C3F810905A6140F8AB
:10366000043D1D60FEF72EFC129AD8F800302A6146
:10367000039A1046AA605B7CAB6107B0BDE8F08F8F
:10368000002C34D1204676428642A8BF064693B32A
:10369000002ECADC2846FEF767FE002007B0BDE812
:1036A000F08F0028B8BF0330801000EB4000B8E76F
:1036B00000933A4633465946504601F053FE029075
:1036C00004FB06F01830FEF757F802460028B5D183
:1036D00028460392FEF748FE029B002BDDD01846D9
:1036E000FEF78AF8039A104607B0BDE8F08F183845
:1036F000B0FBF4F0C7E700933A46334659465046CC
:1037000001F030FE002E0290DADCC3E73C0000201E
:103710002DE9F04FDFF880918BB05D4BD9F800C0F8
:10372000DFF878819CF811E053F82E40D8F800308B
:10373000D4F810E0002B00F0A6801646DCF86020DC
:1037400007460D46002A75D0E2681268072A78D02D
:10375000504AC2EB0E02B2FA82F25209002A70D02D
:103760003846FEF77BFA03460AA8B3F908B040F8DA
:10377000083DB3F90AA00BEB0504DB68013C059397
:10378000FEF7A0FBD9F80010B1F90C30B1F9080030
:10379000E41A002CCCBFC4EB0B045C4685425EDB14
:1037A0000023002C43DD0AEB0600B1F90EE00138DE
:1037B000CEEB00000028C8BFC0EB0A0AB1F90A002E
:1037C000B04247DC0021BAF1000F079306912EDDCD
:1037D0003846FFF765FD079BD9F80020069901FBE5
:1037E0000B31136E00EB8107002B3CD01846FEF71F
:1037F00035FA02460AA8B2F90410B2F906306D1A79
:1038000040F8042DF31AA900D56801F1180605FB4C
:1038100003661644FEF756FB4EB1059B2246009503
:103820003946019330465346D8F80040A0470BB0C4
:10383000BDE8F08FE2681268B2FA82F25209002AFB
:103840008ED173463246294638460DF063FC0BB0E4
:10385000BDE8F08F811B0646C1EB0A0AB3E7431BA4
:103860000546E41A9DE7507C4FEA8B02DFF830E012
:103870003B4602922946CDF804A032460094DEF879
:103880000040A047D3E773460DF044FCCFE700BFEC
:103890003CC80120886501083C00002048C8012080
:1038A00044C801202DE9F04182B00F4690460646FB
:1038B000FEF7D4F9034602AC16211D68002044F837
:1038C000043DEB685B6A984705462046FEF7FAFA26
:1038D0001DB1424639463046A84702B0BDE8F081E6
:1038E00000B970472DE9F04FA3B08B4692460446CD
:1038F000FEF7B4F922AB456943F81C0D1846FEF7F4
:10390000E1FA2046FFF7B2FC0828814640DD002D91
:103910003ED12046FEF7A2F922AA0346B0F90810CC
:1039200042F8100D10460D92B3F90A200A9109923F
:103930001968DA680E690B930E92FEF7C3FA924883
:1039400092490068D6F80480407C51F820100D6937
:103950002B680C93FFF756F908280B9B14D91028F5
:103960008BBF20221022042702270B92AE4200F0C8
:10397000F882B9F1200F00F0B381B9F1100F00F017
:10398000458123B0BDE8F08F082201270B92EDE7B7
:103990000021012320467C4E20910DF188080B91D7
:1039A00021930A93FEF75AF9074630683A68FB6894
:1039B000B7F908101269139314913B69B7F90A100B
:1039C000407C0993169148F8147D5568D7F81490F7
:1039D000FFF718F932680E90507CFFF7A9F90746F7
:1039E0004046FEF76FFA099A0A9B082A0B9940F2A3
:1039F0009D80102A13460A918CBF042302230C9346
:103A0000BD4200F0C1813368587CFFF789F9149BEF
:103A100006469800FDF7ACFE10900028B1D0204675
:103A2000FFF73EFC0446B9F1000F00F088804846DD
:103A3000FEF714F9169B1E90002B40F3A181002382
:103A4000DDF83880CDF834A00B93139BCDF848B047
:103A5000E31815931FAB19460F93836800225B6927
:103A60001F920B9A9847159B139A04469B1A0E9324
:103A7000149B834200F0F680099B012B00F08880A4
:103A8000002842D01CAB11931098FEF7E7F8099B71
:103A900007461C90082B1F9A65D90C9BA3460E99CC
:103AA000824602FB031939F8020BA847B047BBF165
:103AB000010B4AF8040BF6D1B8F11F0F04D83846B1
:103AC0004246214601F0A6FD0A9901231F9822468D
:103AD000059112991C9F08440021019300930391C2
:103AE000CDF808800D99049703F086F81198FEF739
:103AF000E9F91F9B1E981C440B9A83680F991F9429
:103B00005B69984704460028BED1159A13990B9B10
:103B10000A44013315920D9A0B9301320D92169AB5
:103B20009A4200F02D811E980F9996E7012A03D141
:103B300020AB0C920A9363E70C930A9160E701258E
:103B40000A9B139A0999059304905846039202918F
:103B50005146169B149A0195009503F04DF8109864
:103B6000FDF74AFE0DE70C9BA2460E99814602FB2B
:103B7000031B1BF8010BA847B047BAF1010A49F82B
:103B8000040BF6D198E700BF3C0000203CC80120A0
:103B90000028BAD0CDF8608019960B9F0A9EDDF8F8
:103BA0003880DDF83490DDF848A0DDF83CB017959A
:103BB0001192DDF87CE02246119D01230EF00700F2
:103BC00049460395012506900AEB0E00BEF1000F51
:103BD00005960295B8BF0EF1070E0195009508EB0A
:103BE000EE0ECDF810E003F085FF1F9B1E983A46BD
:103BF0001C44594683681F945B6998470446002813
:103C0000D7D1179DDDF86080199E7EE70A9B03FBE4
:103C100007F0FDF7ADFD109000283FF4B2AEFEF7BF
:103C20001DF820902046FEF719F800F118031E90A9
:103C30000E932B69002B00F0A6817369002B00F016
:103C4000A281B0F908008000FDF792FD11900028D4
:103C500040F0BA811F900D98FEF734F920A8FEF7C6
:103C600031F97CE71098FDF7F9FF099B81461C901C
:103C7000082B149F0446DDF838A028D93AF8020B27
:103C8000A847B047013F44F8040BF7D1B8F11F0F24
:103C900004D848464246149901F0BCFC22AB129865
:103CA0000D991A460A9B059300230393012352F8AA
:103CB00018EDCDF8088017460193149A0093CDF8BB
:103CC00010E002F099FF3846FEF7FCF81DE71AF8FD
:103CD000010BA847B047013F44F8040BF7D1D5E7E3
:103CE0000A9B07FB03F0FDF743FD0E9000283FF40D
:103CF00048AEFDF7B3FF20902046FDF7AFFF1E90C2
:103D00002C6900F11808002C00F0EB800A9A5C4640
:103D100001260A954FEA82099346CDF83090DDF8E6
:103D2000249017E0042F21D0012F15D00B9B0020E9
:103D3000209D51460293012305905A460390204648
:103D400001969A440096049502F056FFB9F10109D4
:103D500000F0E880022FE5D10C9D40463B465A46D4
:103D6000A8440A9D20992D69A847DFE70C9B40468F
:103D70000A9D5A46984420993B462D69A847D5E7A5
:103D80001EA8FEF79FF8EAE62046FFF789FA80466C
:103D9000B9F1000F00F0D4804846FDF75FFF169B95
:103DA0001E90002B40F3C88000261FABCDF834A036
:103DB0000125B146DA461F4683683246CDF87C902D
:103DC00039465B699847149B0446834231D0099B6E
:103DD000012B57D020B30D9B0B9603EB060B1F98BE
:103DE00001230C990A9A01FB008E099E13995044F5
:103DF0000592224603915946CDF810E002960195AE
:103E0000009502F0F9FE1F9B1E9839461C440B9A40
:103E100083681F945B69984704460028DFD10B9E96
:103E2000139B01369844169BB34240F385801E983D
:103E3000C2E7CDF82C80B346984600E0A3461E9812
:103E40000BF101043946836822465B699847804537
:103E5000F4D00A9AC6EB0B03DDF82C80504605928D
:103E600001330D9ACDF810809119139E099A03968B
:103E700002920195149A06FB03880095264602F0EB
:103E8000BBFED0E70028CBD00D9B0B9603EB060BB7
:103E9000DDF87CE022460A9E01230EF00700594619
:103EA000059606900AEB0E00BEF1000F139E0295D8
:103EB000B8BF0EF1070E0396019508EBEE0E0095C4
:103EC000CDF810E003F016FE1F9B1E9839461C44E7
:103ED0000B9A83681F945B69984704460028D7D1E2
:103EE0009DE7A1460125099E0123022F51460A9A0A
:103EF00058460AEB030E00F0A981042F00F07D81E3
:103F00009F4200F052810B9CF246CDF8149002942F
:103F1000209CCDF80C9001950095049402F06CFE65
:103F2000013EE1D10D98FDF7CDFF20A8FDF7CAFFB6
:103F30000E98FDF761FC24E51EA8FDF7C3FF20E500
:103F400001240A9B139A09990593049058460392F9
:103F500002915146169B149A0194009402F04CFE73
:103F60000FE50E9A0124183300250392514604935D
:103F70005846099BCDF808900A9A0595019400943B
:103F800002F03AFEFDE40125DDF82890099E0123A8
:103F9000022F51464A4658460AEB030E00F0D480E1
:103FA000042F00F0A0809F426DD000240195009561
:103FB000F246059403940B9C0294209C049402F016
:103FC0001BFE013EE3D146E6FDF748FE1F900028A8
:103FD0003FF441AE0A9A0124CDF828B04FEA4209D5
:103FE00090460C95CDF83C90B146DDF838B017E01E
:103FF000042F2ED0012F28D00B9B0020209D51464E
:10400000029301230590424603909A440194009440
:104010000A98049502F0F0FD099B013B09932BD00F
:10402000022FE5D1209B1E463B4642461F9958462B
:10403000D9F81450A8470F9D31463B46AB440C9D20
:1040400042461F982D69A847D6E7209B1E460223AB
:10405000EBE7209B42460F9E58461D461F990223C0
:10406000B344D9F81460B04729460C9D3B464246FC
:104070001F982D69A847BFE71FA8FDF723FF1198D8
:10408000FDF7BAFBE7E50A9B444609965D000C9EE6
:104090000C95209DDDF83880DDF8289038F8020B6B
:1040A000A047B047B9F1010905F8010BF6D10E9D03
:1040B00001230B985146AE460C9D02905846AE44E3
:1040C000209DCDF814909A440A9ACDF80C9001974F
:1040D00000970495CDF838E002F08EFD099B013B76
:1040E0000993D6D1B7E50A9B0125099644465E009F
:1040F0000C9F0C96209EDDF83880DDF8289038F86B
:10410000020BA047B847B9F1010946F8040BF6D1F4
:104110000E9E01230B985146B6460C9E02905846BF
:10412000B644209ECDF814909A440A9ACDF80C908B
:10413000019500950496CDF838E002F05DFD099BED
:10414000013B0993D6D186E50A9B01250996444691
:104150005E000C9F0C96209EDDF83880DDF82890DC
:1041600038F8020BA047B847B9F1010926F8020B4D
:10417000F6D10E9E01230B985146B6460C9E029036
:104180005846B644209ECDF814909A440A9ACDF829
:104190000C90019500950496CDF838E002F02CFDC6
:1041A000099B013B0993D6D155E595000C9C0996D6
:1041B0000C95209D4646DDF8289056F8040BA04744
:1041C000B9F1010905F8010BF7D10B980123209EE5
:1041D000514602905846CDF814909A440A9ACDF868
:1041E0000C900197009704960C9D02F005FD099B29
:1041F000A844013B0993DCD194E609960125960079
:104200000C9C0C96209E4746DDF8289057F8040B2E
:10421000A047B9F1010946F8040BF7D10B98012327
:10422000209F514602905846CDF814909A440A9A1D
:10423000CDF80C900195009504970C9E02F0DCFCE3
:10424000099BB044013B0993DCD16BE6099601253B
:1042500096000C9C0C96209E4746DDF8289057F857
:10426000040BA047B9F1010926F8020BF7D10B980E
:104270000123209F514602905846CDF814909A444D
:104280000A9ACDF80C900195009504970C9E02F0C7
:10429000B3FC099BB044013B0993DCD142E600BF6B
:1042A0000A4BD3F8A82710B5044632B1002C084BAE
:1042B000084A08BF0023136010BD074A03F5F560E4
:1042C000C3F8A82702F020FAF0E700BFD8BD01200C
:1042D000DD42000824C801204DFC0008A74B1B68E4
:1042E0002DE9F04F8DB0002B00F09C80DFF898A2F4
:1042F00081460C46DFF88C82DAF800E0DAF80470C8
:10430000BE4500F02281474500F02C8108F5DC63B2
:10431000A7F1B0010193D9F804504B689D4200F019
:10432000E08007F1100E99E80F000A298B4687E814
:104330000F00C7F80CE000F2D08069B3BC4600263D
:10434000103401360CF110055E45AC4614E90F003F
:1043500085E80F00F4D3D9F800B04FEA8B0408EBDE
:104360000403D3F8A037BBB13A465F4608EB040B11
:1043700075460126DBF89037002B74D008EB040358
:10438000D3F8A037013B062B5ED8DFE803F0839E0D
:104390009A958B7950001746FEF79CFC784BB860D5
:1043A0001F6847B3DAF8042002A892E84800052EF7
:1043B000B6468DF8083028BF4FF0050E8DF809E09D
:1043C000C6B100230146BC469E4500EB030403F141
:1043D000010308D9156957694D8095698F81CD8290
:1043E000958B84F820509E4202F1100201F10201E7
:1043F000EAD16746B847DAF80430019C614803F116
:104400001001A342604A00F5DC6500F0A280B033E1
:104410001468A342536000F0AA80DAF808300BB1A8
:104420004846984700F0C6FD0DB0BDE8F08F444403
:1044300095E80300D4F89077D4F89837791A1B1AC6
:104440000139013B85E80A0053689E42A3D2D9F89E
:1044500000700136BC0002EB061508EB040BDBF81C
:104460009037002B8AD1384602F034FFCBF8900702
:10447000384602F075FFDAF80420CBF898077DE79C
:10448000444495E80300D4F8903768605B1A013B18
:104490002B60D9E744442968D4F890375B1A013B74
:1044A0002B60D1E7444429686868D4F898372860BD
:1044B0005B1A013B6B60C7E795E80A0069602B60F7
:1044C000C2E7444429686868B4E744446968D4F89A
:1044D00098375B1A013B6B60B6E70A237B609B460B
:1044E0002CE77DB18E8BA389B3427FF41AAF0A46C5
:1044F000002303E0908BB0427FF413AF01331032FE
:104500009D42F7D18E453FF40CAF414514BFB03901
:104510001E494B689D427FF404AF75B1A0898B8B17
:1045200083427FF4FEAE002303E08A8B82427FF455
:10453000F8AE013310319D42F7D147451BD0A7F1AA
:10454000B0031F46CAF80430EBE608F5DC630193BC
:10455000E7E61368506083427FF45FAFB033CAF878
:1045600000305AE707F5DC6301931946D3E6AB4206
:10457000F4D10346F3E7054BE3E700BF24C801206D
:1045800060C80120D8BD012050000020B8C401201F
:10459000094B1A6A002A18BF002003EB800210B4EE
:1045A0009469002C04DB4FF0FF3443F82010946131
:1045B0005DF8044B704700BF7CBD012058B311B3B8
:1045C0000AB3B1F90030F0B5B2F90050B2F902E027
:1045D000B1F902409D42B2F90470B2F90660A8BF79
:1045E0001D46B1F904207445B1F90630A8BF7446E0
:1045F000BA420580B8BF3A46B3424480B8BF33469A
:104600008280C380F0BD002908BF11460A684B684C
:10461000026043607047704778B189B2C38892B234
:1046200070B40688448885880E4414441A4429448A
:10463000068044808180C28070BC704770B4124D87
:1046400004462B686A6893420FD0104EB34293E839
:10465000070014BF0C333C3B84E807002B60207A32
:10466000003070BC18BF01207047094A934204D043
:1046700013E9070084E80700F1E73C3393E80700FB
:1046800084E80700EBE700BFD800002058C60120EF
:104690001CC60120034B09CBC01AB0FA80F04009B8
:1046A000704700BFD8000020F0B53C4E85B00446EE
:1046B000336D002B55D03A4A01AD3A49F36C116085
:1046C00094E8070085E807000BB128469847364F65
:1046D0003C687B689C4232D0B342304A32D09DF86D
:1046E0000C00A3F10C0113F804EC8C46864535D17F
:1046F0008C4233D091423BD002F13C0E11F8042C95
:1047000082423DD0734595E8070083E807000BD04F
:104710000C339C427B600BD0B36C0BB1284698479E
:1047200000F048FC05B0F0BD1C4B9C427B60F3D10F
:104730001E4B9C4214BF0C343C3C3C60ECE7DFF861
:104740006CE0DFE79DF80C0096F8442082421DD112
:1047500006F13C0E744519D07146CFE702F13C0ECC
:10476000D0E7134B304640F8503F01F0CDFFA2E7B1
:1047700091F8442001F13C0E8242C3D16346C1E767
:10478000B34208D0A3F10C0C6346BBE795E80700E1
:1047900086E80700BCE7054BB4E700BF1CC6012054
:1047A000F4CC0120DD8E0008D800002058C601207E
:1047B00009FD0008094A136851688B420CD010B5F6
:1047C000074CA34293E8030014BF0833503B136027
:1047D00005F000FA012010BD00207047D000002035
:1047E00010C60120F0B5164C059F2568069CB5F94A
:1047F00008E0B5F90C607045B8BF7046B242A8BF7A
:10480000324690421ADCB5F90A60B5F90E50B14251
:10481000B8BF3146AB42A8BF2B468B4203DAF0BD8E
:1048200025682DB12C46E5682D6835F00405F7D1D3
:1048300006940597BDE8F04002F000BFF0BD00BF50
:104840003C000020B0F90220B1F906309A4214DC95
:10485000B1F90220B0F906309A420EDCB0F900201E
:10486000B1F904309A4208DCB0F90400B1F9003023
:104870008342CCBF0020012070470020704700BF5A
:1048800008B5034B014674221868FBF7EAFC08BD23
:104890003C00002000B970472DE9F04FABB00D4649
:1048A00016461C921B91FDF7D9F9B0F90430046843
:1048B0009D422790119400F058810020FEF702FEDF
:1048C000AD4B119A1B689269597C1F900846279D31
:1048D00019928242209118BF5A74B5F90430B5F983
:1048E000062019460793B5F90830104612925B1A54
:1048F000B5F90A201C46121A08931646139222464E
:104900002B8A01329B071A92324602F101021D9254
:1049100040F10E811B9B6A695B1A0392002B1C9A63
:104920001493A2EB000440F3A48109934FF0010B10
:104930000023DDF868901093002C40F3A5811D9BA7
:104940004FF0000A1794169301231593119E8B4B79
:10495000B0691B56012B40F386810023ADF8A230CD
:10496000ADF8A03002F0B6FC431EB069ADF8A4303B
:1049700002F0F6FC0138ADF8A60027985A4600F17F
:10498000140107F0F1FB2190002800F0D080279857
:104990005A4600F1140107F0E7FB2390002800F0CD
:1049A000C180279BD868002840F07E81169A524526
:1049B00000F0B4801A9B10999A00CDF810900AFB71
:1049C0000313C4EB0A01D946229005EB83030D9132
:1049D00015990E93129B01FB02F223441E92189329
:1049E0004FEA8B03D3460593179B139A5B45109CA4
:1049F000CCBF002301235A45B8BF00230B93129B61
:104A00005B440F93189B5B440A93049B1A46A24293
:104A100075D01498079BC0EB040A0E9D03440C93B9
:104A20005A4621460398FEF799F8030E06465FD0D2
:104A3000099B089AA3420799CCBF00230123A242F5
:104A40000C9A214402EB0407BDF9A020B8BF002353
:104A50000691BA420B9903EA01030DDCBDF9A220CD
:104A60000A98824208DCBDF9A420BA4204DBBDF9F1
:104A7000A620824280F2A6804FF00008002B00F0B2
:104A80008380BAF1000F09DB0D9B002B06DB1A4671
:104A900051460398FEF762F8030E75D0BDF9A030B9
:104AA0009F4223DBBDF9A2300A9883421EDCBDF988
:104AB000A430BB421ADBBDF9A630834216DB304678
:104AC0002F4B229EFF221B6846F07F419847199A80
:104AD0002C4B53F822301B691B689847219B0246D8
:104AE0000A9900933846119B0BF0A4FFC5F820806B
:104AF000059B4C44CA441D44049BA34290D10E9B89
:104B00001E99159A0B4493440E930D9B1946169BC0
:104B100011445B450D917FF467AF279B239918687B
:104B20000BF050FC279B219918680BF04BFC279D3C
:104B30001B991A9B1C980B44A980421E1D99013B8E
:104B4000E8800A442B81199B6A811946209A914278
:104B500002D0094B1B685A741F98FEF7B3FC27A8B4
:104B6000FDF7B0F92BB0BDE8F08FB0F906309E42EA
:104B70007FF4A3AEF3E700BF3C00002038C801205B
:104B8000440000203CC80120BDF9A030069A9342A1
:104B900086DCBDF9A2200F98824281DCBDF9A420F9
:104BA00006998A42FFF67CAFBDF9A62001468242F3
:104BB000FFF676AF239B2A6A06980093119B0BF0B1
:104BC00039FF6BE7DDF89C80B8F90420BA422FDC8E
:104BD000B8F90810B9422BDBB8F906E00146864562
:104BE00026DCB8F90A00884222DBD8F81400F8B1B4
:104BF0002593BB1A194622930A9BCEEB03031A4650
:104C00002493FDF7ABFF030E259B11D0B8F90410D8
:104C1000B8F90820521A249902FB011222990A4479
:104C200008EB8208D8F8202042F07F4090460FE041
:104C3000119A1068002833D0D0F80CE039460A9A4F
:104C4000DEF814802293C047229B804640F07F40CC
:104C50002493199A9A4B53F822201269526890476C
:104C6000249B22900AE7F368304628A91B6B9847DB
:104C700083E60022089B4FF0FF390992149ACB4635
:104C800010931344089357E6139900224FF0FF3313
:104C900017920A4616938A4622441593139255E6B4
:104CA00080464FF07F40D3E7FCF7D8FF169B269055
:104CB000534500F099801A9B10999A00CDF81090F6
:104CC0000AFB0313C4EB0A01D9460D9105EB8303DC
:104CD00012990F934FEA8B032144D3460593189101
:104CE0001599079B01FB02F22292149A13440C932C
:104CF000179B139A5B45CCBF002301235A45109A9A
:104D0000B8BF00230B93129B5B441E93189B5B441C
:104D10000A93049B93425AD01446149A0F9DC2EBF7
:104D2000040A5A4621460398FDF718FF0646002854
:104D300046D0099B089AA3420B99CCBF00230123BC
:104D4000A242BDF9A020B8BF00231F460C9B03EB75
:104D50000408079B0F40424523440CDCBDF9A22008
:104D60000A98824207DCBDF9A420424503DBBDF965
:104D7000A620824257DA00220692002F39D0BAF1DB
:104D8000000F0E9309DB0D9B002B06DB1A465146E4
:104D90000398FDF7E3FE0E9B58B3BDF9A0209045A4
:104DA0000CDBBDF9A2300A998B4207DCBDF9A430B7
:104DB000434503DBBDF9A6308B4257DA069B2B62D5
:104DC000059B4C44CA441D44049B9C42A9D10F9BA3
:104DD0002299159A0B4493440F930D9B1946169BE9
:104DE00011449B450D9183D126A8FDF76BF8279BB5
:104DF00094E6BDF9A0209A42D1DCBDF9A2101E9F15
:104E0000B942CCDCBDF9A4109942C8DBBDF9A610AB
:104E1000B942C4DB1846239B2A6A39460093119B8A
:104E20000BF008FEB9E7279A0692B2F90420424532
:104E30000DDC0698B0F90810414508DBB0F906E032
:104E40000A998E4503DCB0F90A00884218DA119AF3
:104E5000106800288FD0D0F80CE041460E930A9AD3
:104E6000DEF8143098470E9B069086E7269A404657
:104E7000119B52F82620219E00960BF0DBFD9DE74A
:104E80002593C2EB0803CEEB010206990E93486905
:104E900019462492FDF762FE259B0028D7D006987C
:104EA000B0F90410B0F90820521A249902FB01123B
:104EB0000E990A4400EB8202126A06925DE700BF77
:104EC0003CC8012008B5034B74221968FBF7C9F9E7
:104ED00008BD00BF3C00002008B502F0BFFC02F096
:104EE000F7FDBDE8084003F049BB00BF70B50A4DAF
:104EF00001282A68567C01D9304670BD0446FDF76A
:104F0000A5FA0028F8D02B685C74FFF7E5FF034B87
:104F100030461C6070BD00BF3C0000208CCC0120DE
:104F200002F0BEBC02F0F6BC02F026BD034B024606
:104F30001B68D86902B1DA61704700BF3C000020ED
:104F400010B418B111B10346002002E00021012085
:104F50000B46034C034A216013605DF8044B704715
:104F600044C8012048C8012002F04CBD084A0B4645
:104F7000014670B415681A46064C074E6D7C3080A9
:104F800054F82500054DC4682B80236A70BC18476F
:104F90003C0000203CC8012028C801202AC801206C
:104FA000034B1B68B3F92A2058851046704700BF91
:104FB0003C000020024B1B6803B11847704700BF3C
:104FC00074C60120024B1A6802B91860FFF7F2BFDD
:104FD000BCC5012000B970472DE9F041DFF8B88069
:104FE00082B00546D8F80040A04242D06F461CB9B6
:104FF00019E0FCF767FFB4B12046FCF72FFE03462B
:1050000038469C680093A542F3D12846FCF726FE5B
:105010000346009A01A8996801939160FCF752FF3A
:105020003846FCF74FFF2846FCF718FED8F8044036
:105030000090A542184B29D094B101AE02E0FCF7D4
:1050400041FF6CB12046FCF709FE034630465C6820
:105050000193A542F3D1009A52685A60FCF732FFDF
:105060003846FCF72FFF2846FCF7C6FB02B0BDE828
:10507000F08102AEFCF7F2FD83686F4646F8040D3E
:105080003046C8F80030FCF71DFFCCE742683846D0
:105090005A60FCF717FFE6E72CC7012010B582B075
:1050A00018B90124204602B010BD0C46FCF7D6FD0D
:1050B000828902AB224243F8040D184614BF012432
:1050C0000024FCF7FFFE204602B010BD00B9704777
:1050D00030B585B00546FCF7C1FD0190FDF7FAFD3E
:1050E00004AA52F80C1D8B69034410464B61FCF76F
:1050F000E9FE2846FCF7B2FD124B02905C68A5421F
:1051000019D084B12046FCF7A9FD034603A85C68CA
:105110000393A54202D0FCF7D5FEF2E7029A52684B
:105120005A60FCF7CFFE02A8FCF7CCFE28460AF036
:10513000CFFB05B030BD426802A85A60FCF7C2FE42
:10514000F4E700BF2CC7012000B9704710B582B04A
:105150000C46FCF783FD02AB846143F8040D18464E
:10516000FCF7B0FE02B010BD0A4A002330B5146847
:1051700083B003605CB105462046FCF76FFD02ABCF
:10518000026943F8040D18462A60FCF79BFE20468E
:1051900003B030BD2CC70120002370B50B6082B076
:1051A00018B90446204602B070BD0D46FCF756FD06
:1051B000846801AE01902CB93046FCF783FE20468E
:1051C00002B070BD3046FCF77DFE2046FCF746FD80
:1051D000036901902B60EFE7014B1B68DB68184700
:1051E00050C80120014B1B681B68184750C801209C
:1051F000014B1B685B68184750C80120014B1B68B6
:105200009B68184750C80120F8B5084E0546046849
:10521000336820461B6898473368074620465B681A
:105220009847044438462C60F8BD00BF50C80120A0
:1052300000292DE9F04111DD00240F460646DFF874
:1052400020802546D8F80030301901355B68984732
:105250000444A742F6DC2846BDE8F0810025FAE7C1
:1052600050C80120F8B569B105460C460026064F26
:105270003B6828465B689847013C05440644F7D1E3
:105280003046F8BD0E46FBE750C801202DE9F84333
:10529000089C054689469846A96843462846561CF8
:1052A0004F684946B847013C3246F5D1BDE8F8831E
:1052B000F8B5B0F90040B0F904500C1BAC422ADA42
:1052C0002344B0F90250E710FF21013B551B02694E
:1052D00004F00704DE4302FB057541FA04F406F00E
:1052E0000706D7EBE30205F11405E4B201FA06F66E
:1052F00000EB050EF6B20FD0435D013A0EF1010747
:105300001C43002A445503DD38461744FAF7D3FFFF
:105310003C7834433C70F8BD435D34401C434455F5
:10532000F8BD00BF30B4B0F9024080250369121BFC
:10533000B0F9004003FB02F3091B143301F007022C
:1053400003EBE1011541435C2B4330BC43547047F0
:105350000346B0F90620002114301B6903FB02F25A
:10536000FAF7A9BF2DE9F04302F10F04804683B09C
:10537000164624111D460F46640003FB04F014304A
:10538000FCF7FAF9814688B1FCF768FC0123014675
:10539000084A02A88E8040F8041DCD800C61A1F857
:1053A00000804F808A608B81FCF78CFD484603B0FB
:1053B000BDE8F08300E10108B0F9063093423BDD1F
:1053C000B0F90430F0B40D689D4232DAEE1007698E
:1053D0005C1E05F0070307FB0262C6EBE40614320D
:1053E000845C013204FA03F3104413F0FF0308D184
:1053F00026B3083510F8013B013E25F00705002BC8
:10540000F6D01C0634D45B000135DBB21A06FAD59F
:105410005F062A4604D55B000132DBB25C06FAD493
:1054200002F00703072B0CD0561B0D60701CF0BC5C
:1054300070470020F0BC7047002070473046F0BC39
:105440007047002EF0DD0478471CFF2C0DD1831926
:1054500003E017F8014BFF2C07D1BB4202F1080211
:10546000F7D1E1E764000132E4B22306FAD4DBE7C6
:10547000FF2BCDD1EA1DD3E730B583B00546FCF74D
:10548000EDFB034602A89C8940F8043D013C24B290
:105490009C81FCF717FD14B92846FCF7ADF903B061
:1054A00030BD00BFF0B583B0C0B9224C05462369BA
:1054B000CBB1E0681F4E18B91F4B1868F060D8B127
:1054C00023681C4F2BB3002663681A4FC3B115B174
:1054D000A368184C2BB3304603B0F0BD154C01AD9A
:1054E0002369002BE5D1154A2046012340F8142FEB
:1054F000236101F009F9DCE701F0A6FEF060DFE7C7
:10550000F8688000FCF7E8F90028786008BF0126F9
:10551000DDE78000FCF7E0F9B0FA80F63860760944
:10552000D2E7E0688000FCF7D7F90028A06008BF48
:105530000126D0E7B0BD012030C8012025FC0008BD
:10554000094B10B51C7838B902464FF07F401A70ED
:1055500001F004FB204610BD012200201A7001F06A
:10556000FDFA204610BD00BF36C80120002846D0F5
:105570002DE9F0411D4614460E46FDF7A1FB05F04E
:1055800003030746012B2AD0022B40D1B6F9003085
:10559000B6F90420D21A0132121A48BF013203EBC5
:1055A000620805F00C05FDF76BFB042D22D00C2DD5
:1055B0002AD1B6F90210B6F90620521A0132121A8F
:1055C00048BF013201EB62027B1E0138A4F8008063
:1055D000434410446280A380E080BDE8F081B6F9C6
:1055E000043005F00C051B1A03F10108FDF748FB18
:1055F000042DDCD1B6F90620121A0132E4E708685E
:105600004B68106053607047B6F90220DCE7B6F9CA
:105610000080C6E7082A10B40EDD102A1CDC00EB5F
:105620004101034650F8042B23F8022B9942F9D18B
:1056300001205DF8044B7047022A11D0042A00F0C3
:105640009A80012A3FD00144034650F8042B03F806
:10565000012B9942F9D1EBE700205DF8044B70472C
:1056600000F1100252F8103C01294FEA8313DBB21B
:1056700026D052F80C4C02294FEA041404F03004EE
:1056800043EA04031CD052F8084C03294FEA84046F
:1056900004F00C0443EA040312D052F8044C043919
:1056A00002F1100204F0030443EA040300F8013B92
:1056B000BED052F8103C01294FEA8313DBB2D8D197
:1056C00003700120B5E700F1200252F8203C0129C7
:1056D0004FEAC313DBB2F3D052F81C4C02294FEA55
:1056E000841404F0400443EA0403E9D052F8184C4F
:1056F00003294FEA441404F0200443EA0403DFD0F2
:1057000052F8144C04294FEA041404F0100443EA3C
:105710000403D5D052F8104C05294FEAC40404F014
:10572000080443EA0403CBD052F80C4C06294FEA94
:10573000840404F0040443EA0403C1D052F8084C82
:10574000073902F120024FEA440404F0020443EA5C
:105750000403B5D052F8244C012904F0010443EAB3
:10576000040300F8013B52F8203C4FEAC313DBB2BC
:10577000B2D10370A5E700F1080454F8083C0129F0
:105780004FEA0313DBB213D054F8042C023904F1AE
:10579000080402F00F0243EA020300F8013B3FF461
:1057A00047AF54F8083C01294FEA0313DBB2EBD1B1
:1057B000037008465DF8044B704700BF082A2DE9C6
:1057C000F0410C4605461F680CDD102A21DC1E69DD
:1057D000002E00F09180224629460223B047012086
:1057E000BDE8F081013A072A10D8DFE802F0045141
:1057F0000F770F0F0F9A00F1200858F8200CB847C8
:10580000012C4FEAC010C6B206D12E700120BDE8AF
:10581000F0810020BDE8F08158F81C0CB847022C3C
:1058200046EA8010C6B2F0D058F8180CB847032CDE
:1058300046EA4010C6B2E8D058F8140CB847042C19
:1058400046EA0010C6B2E0D058F8100CB847052C54
:1058500046EAC000C6B2D8D058F80C0CB847062C9F
:1058600046EA8000C6B2D0D058F8080CB847072CDA
:1058700046EA4000C6B2C8D058F8040C08F1200827
:10588000B847083C40EA060005F8010BB5D1BDE772
:1058900000F1100858F8100CB847012C4FEA80109E
:1058A000C6B2B2D058F80C0CB847022C46EA001029
:1058B000C6B2AAD058F8080CB847032C46EA8000B4
:1058C000C6B2A2D058F8040C08F11008B847043C3E
:1058D00040EA060005F8010BDCD197E700F1080863
:1058E00058F8080CB847012C4FEA0010C6B20CD18A
:1058F0002E702046BDE8F081861E55F8040BB8478F
:10590000013C26F8020FF8D180E758F8040C08F1A2
:105910000808B847023C40EA060005F8010BDFD151
:1059200074E71E693EB12846224601232946B04746
:105930000120BDE8F0816E1E55F8040BB847013C0C
:1059400006F8010FF8D161E7F0B51B4E85B0F36F93
:105950000BB105B0F0BD194B6F4604AD4FF0010E11
:1059600006F18004C6F87CE00FCB07C7190C15F8C8
:10597000102D27F8023B397004F8012B15F8012F80
:10598000002AF9D1FDF7A8F9234610F8012B194692
:1059900003F8012B0278002AF7D14A700CF09AF82C
:1059A0000EF024FF064B0748C6F8943005B0BDE85A
:1059B000F04000F0A9BE00BFE0BC0120386601083D
:1059C000E1FB000874BD01202E4B1B682DE9F0415E
:1059D000044682B00D4683B1002004F0F9FE48B1C0
:1059E0006E4632462946204606F018FC04F092FD29
:1059F0000028F6D102B0BDE8F081DFF88C806B465C
:105A000010686E46D8F800705168B7F84CC0B7F807
:105A100050E003C3BDF800706846BDF80410BDF83F
:105A200002206744BDF8063061447244ADF800704E
:105A30007344ADF80410ADF80220ADF8063004F060
:105A4000C7FE60B9D8F80030598C9A8CDC6C186DA0
:105A5000091B121A59849A8402B0BDE8F081D8F863
:105A600000303246BDF802002946BDF80070988427
:105A700020465F8406F0D2FB04F04CFD0028EED1F6
:105A8000E0E700BF4CC801203C0000202DE9F04FAA
:105A90000C4687B017461D460190FDF7F1F8DDF87A
:105AA00004A08146002C00F0A48004AB206861684B
:105AB00003C317F00C0B5FD1BDF91260CDF804A041
:105AC000002D56D00DF1040809F1FF39504607F0BA
:105AD000030700241FFA89F9DFF838A12DE0022F0F
